:020000040800F2
:10000000881B0020014B0008094B00080D4B00081D
:10001000114B0008154B0008194B000800000000A8
:100020000000000000000000000000001D4B000860
:10003000214B000800000000254B0008294B000858
:100040002D4B0008314B0008354B0008394B000898
:100050003D4B0008414B0008454B0008494B000848
:100060004D4B0008514B0008554B0008594B0008F8
:100070005D4B0008614B0008654B0008694B0008A8
:100080006D4B0008714B0008754B0008B51F000848
:10009000B31F0008814B0008854B0008894B0008FE
:1000A0008D4B0008914B0008954B0008994B0008B8
:1000B0009D4B0008A14B0008A54B0008A94B000868
:1000C000AD4B0008B14B0008B54B0008B94B000818
:1000D000BD4B0008C14B0008C54B0008C94B0008C8
:1000E000CD4B0008D14B0008B71F0008D94B0008C2
:1000F000DD4B0008E14B0008E54B0008E94B000828
:10010000ED4B0008F14B0008F54B0008F94B0008D7
:10011000FD4B0008014C0008054C0008094C000884
:100120000D4C0008114C0008154C0008194C000833
:10013000C168096A11B189680A0001D100F008BEDE
:10014000084710B50146CC68226A00200AB900F0C1
:100150000DBED268130002D00846904770B961699D
:1001600011B9D4E900236261E16911B9D4E900232E
:10017000E261A16911B9D4E90023A26110BD7CB587
:10018000DDE90645C168096A11B1096D0E0000D1AB
:1001900034E0CDE90045884776BD38B50499C46898
:1001A000246A14B1646D250001D100F021BE0091D4
:1001B000A04732BD38B50499C468246A14B1A46D4F
:1001C000250001D100F014BE0091A04732BDC168E6
:1001D000096A11B1096E0A0001D100F0B9BD0847E2
:1001E0007CB5DDE90645C168096A11B1496E0E00AA
:1001F00000D103E0CDE90045884776BD4FF0FF30E0
:1002000076BD38B50499C468246A14B1A46E25007B
:1002100001D100F0EDBD0091A04732BD38B5049981
:10022000C468246A14B1E46E250001D100F0E0BD79
:100230000091A04732BDC168096A11B1496F0A0037
:1002400001D100F085BD084710B50446FFF770FFE7
:1002500020B92046FFF775FF0128FADA10BD00B576
:10026000104640F2BB32521A9A4288BF1A460FF229
:100270000C03C91804F064F8002000BD3D3D3D3D6D
:100280003D3D3D3D3D3D3D3D3D3D3D3D3D3D3D3D9E
:100290003D3D3D3D3D3D3D3D3D3D3D3D3D3D3D3D8E
:1002A0003D3D3D3D3D3D3D3D3D3D3D3D3D3D3D3D7E
:1002B0003D3D3D3D3D3D3D3D3D3D3D3D3D3D3D3D6E
:1002C0003D3D3D3D3D3D3D3D3D3D3D3D0D0A565392
:1002D00046204D5343426F6F7420426F6F744C6FD2
:1002E0006164647220302E316265746120202020A8
:1002F000202020202020434F505952494748542065
:1003000062792053696D6F6E5169616E20202020E3
:1003100020202020202020202020202020200D0A06
:100320007777772E76657273616C6F6F6E2E636F61
:100330006D20202020202020202020202020202070
:1003400020202020202020202020202020202020AD
:10035000202020202020202020202020202020209D
:10036000202020202020202020202020202020208D
:100370000D0A3D3D3D3D3D3D3D3D3D3D3D3D3D3D10
:100380003D3D3D3D3D3D3D3D3D3D3D3D3D3D3D3D9D
:100390003D3D3D3D3D3D3D3D3D3D3D3D3D3D3D3D8D
:1003A0003D3D3D3D3D3D3D3D3D3D3D3D3D3D3D3D7D
:1003B0003D3D3D3D3D3D3D3D3D3D3D3D3D3D3D3D6D
:1003C0003D3D0D0A0D0A53696D706C79207570649E
:1003D000617465206669726D77617265206279204B
:1003E000636F7079696E67206E657720666C6173E4
:1003F000682E62696E20746F2074686520726F6F5A
:1004000074206469726563746F72792E0D0A4C4FA3
:1004100053542E444952206469726563746F727933
:10042000206973207573656420746F2061766F692D
:100430006420416E64726F69642073797374656DB2
:1004400073206372656174696E67206469726563A5
:10045000746F72792C0D0A7768696368206973205C
:100460006E6F7420737570706F727465642062793A
:10047000204D5343426F6F742E0D0A0D0A427920AE
:1004800064656661756C742C2074686520626F6F9A
:10049000746C6F616465722077696C6C2074616B39
:1004A000652033324B422066726F6D207468652080
:1004B00073746172742061646472657373206F6613
:1004C00020666C6173682E0D0A536F2C20796F754E
:1004D00072206170706C69636174696F6E207368FB
:1004E0006F756C64207374617274206166746572D8
:1004F0002074686520626F6F746C6F616465722C24
:1005000020616E6420666C6173682E62696E207370
:10051000686F756C64200D0A6E6F74206578636572
:10052000656420666C617368207370616365206F19
:1005300066207468652074617267657420636869F9
:10054000702E0D0A0D0A4E6F74653A20466F7220A8
:1005500056657273616C6F6F6E4D696E692073685A
:10056000697070656420776974682053544D333224
:1005700046313033434254362C207468697320620C
:100580006F6F746C6F61646572206973200D0A72FD
:1005900065636F6D6D656E6465642E20596F75209F
:1005A00063616E2066696E642074686520626F6F97
:1005B000746C6F616465722062696E617279207516
:1005C0006E6465723A0D0A0972656C656173652F18
:1005D0006669726D776172652F4D696E6952656CDF
:1005E00065617365312F4E46570D0A0D0A526570CD
:1005F0006F727420746F20617574686F72206F66FB
:100600002056657273616C6F6F6E20696620616E33
:10061000792070726F626C656D207768656E2075E9
:1006200073696E67207468697320626F6F746C6F92
:10063000616465722E0D0A00F0B583B00C46154654
:100640001E46002000F041FB01AA00A9002000F096
:1006500067FB0198401E00994843A04215D304F55A
:100660000041DFF8A07C0098B4FBF0F0009A02FB98
:10067000104018B900F0C3FB012005E033462A46BC
:10068000002000F077FB022038700020FEBDF8B596
:1006900014461D4601F50046DFF8687C38780128CD
:1006A00002D002280CD016E03146002000F0BEFB3C
:1006B00090B92B462246314600F05CFB0220387090
:1006C0002B4622463146002000F084FB20B900F082
:1006D000E3FA002038700020F2BD7CB500F023F86A
:1006E0000098401E01994843A04201D2002076BDE7
:1006F00000F013F800F02FFB76BD7CB500F013F886
:100700000098401E01994843A04201D2002076BDC6
:1007100000F003F800F02DFB76BD33462A4604F5C1
:100720000041002070470C4615461E4600AA01A94C
:100730000020F5E2F0B587B0002000F0F5F80020C9
:1007400000F0A4FADFF8A84C04F5077500F0CCF827
:1007500000F001FB00F0C8F800F00BFB0028F9D115
:1007600004F5087548F2040604232A46314600F0D1
:10077000F2FA04232A463146002000F0FAFA002853
:10078000F7D1012000F0B9FB88220921012000F0F7
:10079000CAFB4FF40071012000F077FC98B1D4F847
:1007A0001C0200F07F41B1F1005F02BFD4F82012BB
:1007B00001F07F41B1F1006F05D180F30888D4F8D2
:1007C00020028047FEE7022000F097FB4FF4005123
:1007D000022000F03EFC01220D21022000F0A3FBCC
:1007E000C82000F096F903AA02A9002000F098FAA8
:1007F0000298A4F890014FF000600299B0FBF1F06C
:10080000C4F89401012084F89801029803994843A0
:10081000A0F50040C4F8E80004F50970FFF714FDE6
:100820004FF40051022000F00CFC0FF2B400D0E9AC
:100830000023CDE9042302F098FF0026182512E0DA
:1008400004A801900020009033460222A1682046AF
:1008500002F02CFA002840D1606805FB06000499DC
:1008600049790174761C2078F6B28642E8D3204696
:1008700021690968884780BB20690069804760BB9F
:100880006069010001D0804738BB94F84E00616870
:1008900005FB00162069C0688047F0B9E0690100D7
:1008A00001D08047C8B994F84D000028EDD000274A
:1008B00001E07F1CFFB2307A8742E6DA0C20F16853
:1008C00000FB071000680028F3D042691000F0D048
:1008D0002146384690470028EBD0002007B0F0BDF5
:1008E000000000000000000004232A464FF40041ED
:1008F0000020704700207047DFF8800B016801F48A
:10090000E061DFF8942C11430160BFF34F8FFEE7E5
:1009100001220021824201D1084670475200491C41
:100920001F29F7D30020704738B50100DFF8744B5A
:1009300003D02046282203F013FD207818B10228A6
:1009400007D003D308E0DFF8901B04E0DFF88C1B2E
:1009500001E0DFF88C1B6162DFF8885B296841F0F9
:10096000010129606968DFF8802B114069602968FE
:10097000DFF8782B11402960296821F48021296053
:10098000696821F4FE0169604FF41F01A960012824
:100990001CBF6078002804D001281CBFA078002864
:1009A00010D1286840F480302860E078002828685A
:1009B0000CBF40F4802020F4802028602868800349
:1009C000FCD503E0286820F480302860DFF8200B95
:1009D0001221016068686FF30D106860606AE16859
:1009E00000F068F830B16968401E40F0080041EA44
:1009F00000106860606A216900F05CF830B16968D5
:100A0000401E40F0040041EA00206860606A6169AD
:100A100000F050F830B16968421E42F0040241EA29
:100A2000C2216960A16831B3696821F47C116960F1
:100A3000617819B102290DD005D30DE060686968AD
:100A400041F4803104E060684008696841F4403155
:100A5000696001E0DFF8780B6968A268B2FBF0F02A
:100A6000801E41EA80406860286840F080702860FD
:100A700028688001FCD56868800880006860686824
:100A800040F0020068606868C0F381000228FAD173
:100A9000A86940F00100A861DFF8380B016894F8FC
:100AA000202041EA02610160E069DFF8741C0860FF
:100AB000002032BDB0FBF1F02AE7DFF81C0B042167
:100AC0000160002181600020704770B50446FFF787
:100AD000F4FFDFF8045B002C0AE06E60286840F049
:100AE000010028602868C003FCD5FFF7E6FFA41BBF
:100AF00006D0B4F1807F2CBF6FF07F462646ECE72E
:100B0000002070BD80B5DFF89C19496ADFF8C82C59
:100B100005E080B5DFF88C19496A4FF47A72B1FBB1
:100B2000F2F14843FFF7D1FF002002BD80B501215B
:100B300001E080B50021DFF8EC0B00F0EEFB0020B7
:100B400002BD10B5DFF8B41BDFF8AC2C10880B88A1
:100B500040EA034013880C8843EA04439842F5D1E5
:100B600010BD3EB5DFF8C00B016841F400610160C3
:100B70000121012000F091FA0121082000F08DFAF6
:100B8000DFF8A05B284600F0A6FA4FF0804000F0A6
:100B9000A2FADFF8984B204600F09DFA00A800F07A
:100BA000B3FB0120ADF800000020ADF80200DFF833
:100BB000F408406940084FF47A71B0FBF1F0ADF8E9
:100BC0000400002000F04BF8284600F056FB2021DE
:100BD000284600F0B7FB8021284600F0C0FB00A8A3
:100BE00000F092FB002000904FF6FF7500F035F802
:100BF0004FF0804000F041FB07214FF0804000F0B3
:100C0000AAFB00214FF0804000F091FB20214FF023
:100C1000804000F097FB80214FF0804000F09FFB68
:100C200001214FF0804000F078FB00A800F06CFB41
:100C30000020009000F011F8204600F01EFB072174
:100C4000204600F088FB0021204600F070FB0121C7
:100C5000204600F062FB00203EBDADF80450ADF828
:100C600006008DF8080000A9704780B5DFF8B80AC3
:100C7000016821F4006101600021012000F00DFAFB
:100C80000021082000F009FA002002BD00E000BFAA
:100C900008B14FF0FF3070471CB500F037F800B1D5
:100CA00038E001980099484374B9DFF8841C0A6859
:100CB00042F080020A60B0F5002F03D9086C40F0C2
:100CC00080000864002016BD27E01CB500F01EF867
:100CD00000B11FE0019800994843B4B9DFF8B01B98
:100CE000DFF8B02B0A60DFF8A03C0B608C6844F0A2
:100CF00035048C60B0F5002F05D90A640B64886C4C
:100D000040F035008864002016BD06E0044600AAC5
:100D100001A905E06FF0050016BD4FF0FF3016BDCC
:100D2000DFF8743B1B8898B9FF2B09DD11B14FF434
:100D30000060086052B103EBD3704010106005E012
:100D400011B14FF48060086002B113600020704759
:100D50004FF0FF30704710B514461A4630B901F114
:100D60000061204603F0ECFA002010BD4FF0FF3088
:100D700010BD8DE7F0B550BBDFF8904CB1F5002FFA
:100D800032BF201D04F144004034056845F00105E0
:100D90000560002502E0891C921C6D1CB5EB530F09
:100DA0000FD201F10066178837802668F607FCD459
:100DB0002668F606EFD5016849084900016001F090
:100DC00061BA01684908490001600020F0BD4FF098
:100DD000FF30F0BD5CE738B50C46154640B900F071
:100DE0004DF8009B2A4621460020FFF7B4FF32BD94
:100DF0004FF0FF3032BD80B500B948E044E0A0B903
:100E0000DFF82C0BB1F5002F39BF0246001D00F1B1
:100E100040024430136843F00203136001F10061A3
:100E20000160106840F040002CE191E7A8B9DFF8BC
:100E3000DC2BB1F5002F32BF111D02F1440140320D
:100E4000106810F0010003D10B6823F002030B605F
:100E50001168C90603D502F056B84FF0FF3070474D
:100E600038B50C46154640B900F008F8009B2A46F4
:100E700021460020FFF77EFF32BDB9E7002200A91E
:100E80004EE780B500B902E04FF0FF3002BDFFF73A
:100E9000F5FF002002BD28BBDFF8740BDFF8F41962
:100EA0000160DFF8E41A0160816841F0200181608F
:100EB000816841F0400181604168C907FCD48168C4
:100EC00021F020018160816841F010018160DFF82C
:100ED000681C00220A804168C907FCD4816821F09F
:100EE0001001EFE534E730B9DFF8500C0068400836
:100EF00000F00100704700207047DFF82C180A68E6
:100F0000042303FA00F010430AE0042101FA00F080
:100F1000C043DFF8781BCA680240CA600A68104004
:100F200008600020704770B502F00F03800200F1E6
:100F3000804000F584300F24082909D28D0006680E
:100F4000AC4026EA040403FA05F52C4304600AE0E9
:100F5000A1F10805AD004668AC4026EA040403FA96
:100F600005F52C434460082B06D1012303FA01F157
:100F700012064CBF01614161002070BD2DE9F34FA5
:100F8000800200F1804000F584300668416800244A
:100F9000DDF82C9009EA030A4FF0010B0BFA04F577
:100FA0004FEA840C0F2707FA0CF76FEA070E0327A6
:100FB00007FA0CF8019F2F421BD00EEA0606A70085
:100FC000BF1C2A420DD048EA06061AEA050F02D0D5
:100FD0000BFA07F73E4319EA050F14BF0561456197
:100FE00007E02B42F4D000961026BE40009F3E43FF
:100FF000F1E704F108050BFA05F5019F2F4218D01F
:101000000EEA01012A420FD048EA01011AEA050F4F
:1010100004D04FF0040E0EFA0CF7394319EA050F0D
:1010200014BF0561456104E02B42F2D04FF0080E79
:10103000F1E7641C082CB1DB066041600020BDE8CC
:10104000F68F800200F1804000F5843001610020BD
:101050007047800200F1804000F5843008E0800293
:1010600000F1804000F5843002EA010303619143FE
:10107000416100207047800200F1804000F584301B
:1010800080680840106000207047800200F18040B6
:1010900000F58430806808407047DFF8802C002914
:1010A000116814BF084321EA000010607047DFF8A0
:1010B000DC290029116814BF084321EA00001060F0
:1010C0007047DFF8C82C0029116814BF084321EAD3
:1010D00000001060704780B5DFF84816884208D1DC
:1010E00001214FF40060FFF7E2FF00214FF40060A0
:1010F000BFE0B0F1804F06D101210120FFF7E1FFF1
:10110000002101208CE0DFF8BC1B884206D10121C0
:101110000220FFF7D6FF0021022081E0DFF8A81BA4
:10112000884206D101210420FFF7CBFF00210420D3
:1011300076E0DFF8F815884206D101210820FFF794
:10114000C0FF002108206BE0DFF8801B884206D139
:1011500001211020FFF7B5FF0021102060E0DFF82B
:10116000C01B884206D101212020FFF7AAFF0021E1
:10117000202055E0DFF8AC1B884208D101214FF454
:101180000050FFF794FF00214FF4005071E0DFF8AA
:10119000981B884208D101214FF40020FFF787FFF8
:1011A00000214FF4002064E0DFF8801B884208D162
:1011B00001214FF48010FFF77AFF00214FF48010D7
:1011C00057E0DFF86C1B884208D101214FF4001072
:1011D000FFF76DFF00214FF400104AE0DFF8B01B6D
:1011E000884206D101214020FFF76BFF00214020FB
:1011F00016E0DFF8A01B884206D101218020FFF70E
:1012000060FF002180200BE0DFF88C1B88420AD1B0
:1012100001214FF48070FFF754FF00214FF48070DC
:10122000BDE804404DE7DFF8741B884208D1012176
:101230004FF48030FFF73BFF00214FF4803018E07F
:10124000DFF85C1B884208D101214FF40030FFF722
:101250002EFF00214FF400300BE0DFF8B01C884275
:101260000AD101214FF48020FFF721FF00214FF424
:101270008020BDE804401AE701BD30B50488DFF8DE
:10128000A42ADFF8A034984218BF90420ED0B0F1E3
:10129000804F1CBFDFF82C5AA84207D0DFF8285A2D
:1012A000A8421CBFDFF88454A84204D14FF68F75C2
:1012B0002C404D882C43DFF8145AA8421CBFDFF89D
:1012C000605AA84204D04FF6FF452C40CD882C43ED
:1012D00004808C8884850C880485984218BF9042CD
:1012E0000AD0DFF8B82A90421FBFDFF8B42A904234
:1012F000DFF8182C904201D1097A01860121818200
:1013000030BD0000841700204FF6FF71818000215E
:101310000180C1804180017270470029018812BF9D
:1013200041F001014FF6FE721140018070470289C1
:101330004FF68F731A4011430181018941F0070173
:101340000181704782884FF68F731A4082808288AD
:1013500011438180704702894FF6F87302E00289D9
:101360004FF67F731A400281028911430181704751
:1013700010B5490001F1804101F5C041521C5210E5
:1013800009E010F8013B10F8014B43EA042321F86F
:10139000023B891C521EF4D110BD490001F180416D
:1013A00001F5C041521C521004E051F8043B20F8F2
:1013B000023B521EF9D1704710B5DFF8342C52F8B9
:1013C000203048F68F142340194327E010B5DFF88A
:1013D000202C52F8203048F6BF742340CC0648BF7A
:1013E00083F01003890648BF83F0200312E0000059
:1013F0000000002010B5DFF8F82B52F820304BF633
:101400008F742340CC0448BF83F48053890448BFC1
:1014100083F4005343F4004141F0800142F820106E
:1014200010BDDFF8CC1B51F8202048F68F731A400E
:1014300042F4014242F080020AE0DFF8B41B51F8A6
:10144000202048F68F731A4042F4004242F0C00256
:1014500041F820207047DFF8981B51F820205204F3
:101460000AD551F8202048F68F731A4042F44042C2
:1014700042F0800241F82020704700000CED00E0AF
:10148000DFF86C1B51F8202052060AD551F82020B5
:1014900048F68F731A4042F4004242F0C00241F80D
:1014A000202070475806002030B5DFF8943B1C68B8
:1014B000A4B214EBC004DFF88C5B4908490045F87E
:1014C0001410196889B211EBC000DFF8141D52081E
:1014D000520041F8102030BD00127A00001BB70006
:1014E00000A24A04001002400000FFF8FFFFF6FED1
:1014F00000200240F0B5C300DFF8EC4BDFF8EC0B46
:10150000DFF83C5B012932D1296889B2591800EB18
:101510004107510856093F2A1FD3B4464FF01F0E0A
:1015200012EA0E0F08BFACF1010C4FEA0C4C4FEA67
:101530009C1040F400403860286880B2181804EB12
:1015400040003F2A20D331461F231A4208BF491EBC
:101550000904890941F400411BE08C46D00748BFCB
:101560000CF1010C4FEA0C4C4FEA9C10E3E7022906
:1015700010D1296889B2591840F81120286880B222
:10158000181844F81020F0BDD20748BF491C0904C0
:1015900089090160F0BD00000400FA0548F68F7269
:1015A000DFF84C3A012907D153F82010114041F4DB
:1015B000004141F0C00108E0022908D153F8201091
:1015C000114041F4404141F0800143F82010704740
:1015D00000093D000400014010E000E030B5044681
:1015E000DFF8005C05F114000021002206C006C0EF
:1015F00005F10800016005F10C0001600221284698
:1016000002F0DAFEA81C002101804FF0FF32022117
:10161000281D02F0D5FE2C61DFF8CC0BDFF8CC1BC7
:10162000496ADFF8442C914220D0DFF8402C9142E7
:1016300020D1016821F480010160816941F4000139
:101640008161DFF82C0C012101600021016000BFE5
:1016500000BF00BF00BF00BF00BF00BF41604FF42C
:101660003C41016000210161002030BD016841F46E
:101670008001E1E76FF0060030BDDFF8F40B0121D7
:1016800001600021416003210160002070470020BB
:10169000704780B500F03CFC002002BD0020704780
:1016A0000020704740F08000DFF8E41C38E4DFF8E9
:1016B000E00C006800F07F007047002070470020B9
:1016C000704700207047DFF8CC0C00684005400DE3
:1016D000704710B50446002000F0FAFA082800D040
:1016E0008CE0082221460020BDE8104022E3DFF80C
:1016F000F40A4FF40071C18000207047240C0040B0
:101700000021DFF8E03ACB1893F90430984201D178
:1017100048B27047491CC9B20229F2D3FFF718BB7F
:1017200008ED00E0002C014018100240000C0040C1
:10173000002070472DE9F84304460E46FFF7E0FF0E
:1017400048F28005DFF8A888002818D4C4B2A14662
:1017500048F68F672EB1022E35D02ED3032E34D00B
:1017600036E04FF400712046FFF726FE58F82900B6
:101770003840284348F829000020BDE8F2830020C3
:10178000DFF8601A91F904204FF0FF339A420CD130
:1017900041180C71014658F8212048F68F731A4001
:1017A00022432A4348F82120D0E7012091F905205F
:1017B0009A42EDD06FF00500DFE74FF4C06120469C
:1017C000FFF7FAFDD8E70021CDE74FF48061F6E797
:1017D0006FF00600D1E7000040420F0010B500F0A6
:1017E00019F9002800D509E0C0B2DFF8F81901EBBB
:1017F00080004461002010BD240000406FF005000F
:1018000010BD70B5044600F085F806462046FFF787
:1018100077FF040000D5FFE0DFF8C859E888811B96
:10182000102900DA78E1801BE880E0B2FFF7F9FDCB
:10183000DFF80C080068E4B2EA8880B200EBC4006C
:10184000DFF8001800F063F9002202212046FFF7BC
:1018500051FE2046FFF7FFFD2046FFF711FE002155
:101860002046FFF7C7FD20212046FFF7AFFD0120EE
:101870006055002070BD80B5FFF742FF002801D5FC
:10188000002002BDC0B2DFF85C19405C02BD000060
:101890000420024023016745E0F7FF1F80B5FFF7F2
:1018A0002FFF002800D54DE0022150E1F8B500F0EF
:1018B000B1F8002801D501F065BEDFF82819CA8803
:1018C0002346D51A102D02DA6FF00400F2BDC0B223
:1018D00001EB40052C81DFF868673768BFB217EB72
:1018E000C007DFF808C84CF81740E40748BF5B1C86
:1018F000D21ACA80316889B211EBC001DFF84437CF
:101900001204520C520043F811202021FFF75EFD13
:101910000020F2BD80B5FFF7F3FE002801D50020BE
:1019200002BDC0B2DFF8BC1801EB4000008902BD67
:101930001020024080B5FFF7E3FE002800D501E04B
:10194000102109E06FF0050002BD80B5FFF7D8FE59
:10195000002800D5F6E72021C0B2FFF737FD0020B0
:1019600002BD80B5FFF7CCFE00280AD4C0B2DFF874
:10197000801651F8200000F03000102801D101201D
:1019800002BD002002BD0000AB89EFCD80B5FFF79E
:10199000B7FE002800D5D5E7C0B2FFF771FD0020E3
:1019A00002BD80B5FFF7ACFE002800D5CAE7C0B283
:1019B000FFF743FD002002BD70B500F02BF80028B2
:1019C00000D529E0C0B20246D300DFF82017DFF8C7
:1019D0007056DFF81068965D6EB1DFF8146656F841
:1019E0002220520407D5296889B25918DFF8F82651
:1019F00042F8114004E02A6892B29A1841F8124065
:101A00003021FFF7E3FC002070BD00000C200240F5
:101A1000082002400C4673E66FF0050070BD70B5FB
:101A20000C461546FFF76CFE002800D5F4E7C0B25F
:101A3000C200DFF81016DFF80836DFF8A867865D09
:101A40005EB1DFF8AC6556F820004004186880B23B
:101A500005D51018DFF8881702E0186880B2101852
:101A600031F810102A462046FFF782FC002070BD96
:101A700010B5FFF7CFFF002800D5BFE6C0B2DFF8F2
:101A8000641701EB8000C461002010BD0C100240FF
:101A900070B5044600F0B6F805462046FFF730FE64
:101AA000040000D5B8E7DFF83C67F088411B102937
:101AB00000DA31E0401BF080E0B2FFF7B2FCDFF863
:101AC00080050068E4B2F28880B200EBC400DFF861
:101AD000101700F01CF82A4601212046FFF70AFDE6
:101AE0002046FFF7B8FC2046FFF7CAFC2046FFF768
:101AF000A4FC4FF440512046FFF77CFC0021204617
:101B0000FFF764FCA01901218170002070BD51F81D
:101B1000101089B22046C7E46FF0040070BD80B594
:101B2000FFF7EEFD002801D5002002BDC0B2DFF8AE
:101B3000B4164018807802BD00F8FF1F1C20024038
:101B400080B5FFF7DDFD002800D5FBE60121C0B21E
:101B5000FFF724FD002002BDFEB504460D46FFF749
:101B6000CFFD002801D502F0F6B8611E8941C90FEA
:101B70000446DFF87026D3882E46981B102802DA18
:101B80006FF00400FEBDE4B202EB44008581DFF893
:101B9000B0C4DCF8000080B200EBC400DFF8487588
:101BA00007EB400E3F2D09D36F091F20054208BFE8
:101BB0007F1E3F04B80940F4004005E06F08E807C5
:101BC00048BF7F1C3F04B809CEF80000E80748BFB3
:101BD000761C981BD080DCF8002092B202EBC40285
:101BE000DFF8FC350004400C400043F812000029E7
:101BF00014BF4FF440514FF400512046FFF7FAFB59
:101C00000020FEBD80B5FFF77BFD002801D5002038
:101C100002BDC0B2DFF8CC1501EB4000808902BDE7
:101C200080B5FFF76DFD002800D58BE64FF480519D
:101C3000C0E010B50446FFF763FD611E8941C90F7E
:101C4000002800D5DAE5002914BF4FF440514FF4C5
:101C50000051C0B2FFF7CEFB002010BD80B5FFF7EA
:101C60004FFD00280BD4C0B2DFF8841351F82000D8
:101C700000F44050B0F5805F01D1012002BD00208A
:101C800002BD80B5FFF73CFD002800D55AE6C0B282
:101C9000FFF7E1FB002002BD80B5FFF731FD002812
:101CA00000D54FE6C0B2D24951F8202048F68F73D4
:101CB0001A4042F4404242F0800241F820200020C5
:101CC00002BD000000040040000800400010004079
:101CD00010B5FFF715FD002801D5002010BDC0B2DA
:101CE000C100DFF80424D64BDFF8F8440419A478C7
:101CF00064B1BF4C54F820004006186880B207D485
:101D00000818DFF8E81351F8100004E0186880B2F2
:101D1000081852F810008005800D10BD1C100240FC
:101D20000014004000340140004C014000500140CC
:101D30000054014070B50C461546FFF7E1FC002841
:101D400000D569E6C0B2C100DFF89434BC4ADFF8C0
:101D500094648619B67866B1A54E56F82000400600
:101D600010682A4680B207D40818B64951F81010F6
:101D700005E010682A4680B2081853F8101089B29E
:101D80002046FFF70AFB002070BD00001010024043
:101D900000180040001C00400020004000400140AE
:101DA0000044014080B5FFF7ABFC002800D5C9E531
:101DB0004FF44051C0B2FFF71DFB002002BD2DE9DA
:101DC000F04782B00020ADF8000040F68F7448F66E
:101DD0000F76874DDFF80C842BE055F82920ADF8FD
:101DE0000020BDF8002012040DD555F8292022400E
:101DF00042F0800245F82920FA69130003D0002937
:101E00005CBFC9B29047BDF80000000611D555F877
:101E10002900304040F4004045F829007A6910005C
:101E200007D09AF90410002903D4C9B2D8F81000D9
:101E300090476A6C10042FD502F00F0909EB080ACD
:101E40009AF9041008EB8907D8F810000029C4D1CA
:101E5000D106296805D4314041F4004129607A69EE
:101E600013E0ADF800102968214041F0800129609D
:101E7000BDF80010090544BFBDE8F64701F06FBA90
:101E8000BDF80010090407D5FA69110004D000213B
:101E900002B0BDE8F0471047BDE8F387F8B5544CF1
:101EA000DFF8AC5C11E054F8226040F68F773E40DA
:101EB00046F0800644F82260DA69130005D091F9F3
:101EC000041000295CBFC9B29047286801041BD5E3
:101ED00047F6FF71296000F00F0254F82260B6B295
:101EE000C04901EB8203086951183704DBD4360678
:101EF000EBD554F8226048F60F773E4046F4004692
:101F000044F822605A69D8E7F1BD0000004801405A
:101F1000F8B5DFF83C4C2568ADB2B24E680505D582
:101F20004FF6FF302060306901F09FFB680444BF2A
:101F30004BF6FF702060A80408D54DF6FF702060B6
:101F40003069016B08001CBF00208847E80407D5F2
:101F50004EF6FF7020603069406B010018BF80476B
:101F600028050AD53769B86B010018BF8047386962
:101F7000006A80474FF2FF702060A80507D54FF632
:101F8000FF5020603069006C010018BF8047E805F1
:101F900008D54FF6FF6020603069016B08001CBF58
:101FA00002208847280444BFBDE8F140FFF707BF7F
:101FB000F1BDADE772E770470020704730B500F122
:101FC0002801DFF8504D0D7A022D07D0002280F84D
:101FD00028204A700420207000F01DBF00255560A5
:101FE0001D6080F8285000204870207030BD00002F
:101FF000005C00402DE9F0438146884614461D46AA
:10200000079E27681221384602F0F8F970203870D0
:1020100099F82800B8700A20F87199F829003873E7
:1020200098F80400132828BF12206060286001205F
:102030003060DFF8E00C002101700020BDE8F08383
:10204000505C0040006000407EE02DE9F043044613
:10205000154698462F68DFF8589D079E4878C007B8
:10206000887806D530B90521384602F0C7F9052031
:1020700030E058B1052084F82800242084F8290095
:10208000022089F800006FF005002BE0242138467B
:1020900002F0B4F994F821003870207908B180205A
:1020A00078700220F8701F20387108370822611DEF
:1020B000384602F045F90837102204F10D01384680
:1020C00002F03EF9042204F11D0107F1100002F0B4
:1020D00037F924206860C8F8000001203060002033
:1020E00089F80000BDE8F0830C6000400460004007
:1020F0002DE9F043814617469846079E09F12805C9
:10210000DFF8AC4C287A022809D0022089F8280090
:1021100000206870012020706FF0050011E004219C
:10212000386802F06BF93868032101700420786088
:10213000C8F8000001203060002089F8280068708D
:102140002070BDE8F08300BF00215160196080F865
:10215000281080F82910DFF8BC0B017000207047B0
:10216000F2E7F0B505990468D4F80CC0DCE9024543
:10217000DCE90067DFF8385C90F83070022F00D09F
:1021800078E017684FF0080C87F803C017684FEA2B
:10219000146C87F804C017684FEA144C87F805C020
:1021A00017684FEA142C87F806C01768FC7114688A
:1021B000370E27721468370C67721468370AA772D3
:1021C0001468E6721468022626720C2454601C609F
:1021D00001220A60002180F8281080F8291079E196
:1021E00008600040C405002004100240580600208A
:1021F000F0B505990468D4F80CC0DCE90245DCE9C7
:102200000067DFF8AC5B90F83070022F00D031E04F
:10221000671E4FEA176CD2F800E08EF800C0D2F8C3
:1022200000C04FEA174E8CF801E0D2F800C03F0A18
:102230008CF802701768641EFC701468370E2771E2
:102240001468370C67711468370AA7711468E6714F
:10225000082454601C6001220A60002180F82810C4
:1022600080F8291036E10000006CDC0200A24A046C
:10227000405C0040022180F82810002180F82910DD
:10228000012028706FF00500F0BD2DE9F04585B004
:102290000646174698468878CA78120442EA0060D3
:1022A0000A7940EA0220497941EA0002D6F800C0E2
:1022B000DCF80C30D3E90001034608EB020003FB15
:1022C00000FADFF8EC5A002496F8400018B1022812
:1022D00011D008D343E000F0D2F8FDF781FF68BBCE
:1022E000012086F8400000F0D2F8FDF78AFF28BBF5
:1022F000022086F8400000F0CAF8FDF78FFF0028A2
:102300000CD032D5C6E90E4486F83040042186F858
:10231000281086F829400121297026E0D6E90E23ED
:10232000521E63F100039C4216D301D8904513D38B
:10233000C6E90E443068FDF77EFF80B1C6E90E4461
:1023400086F83040042086F8280086F829400120CD
:1023500028706FF0050008E0012086F8400000209A
:1023600086F8280086F82900287085E0F0B5059EDB
:102370000468E768D7E90045CD79097A41EA052183
:10238000DFF82C5A90F83070022F00D072E795E0F9
:102390004C5C0040485C00402DE9F04585B00646A5
:1023A000174698468878CA78120442EA00600A798B
:1023B00040EA0220497941EA0002D6F800C0DCF880
:1023C0000C30D3E90001034608EB020003FB00FADE
:1023D000DFF84059002496F8400018B1022809D0CF
:1023E0001ED343E000F04BF8FDF7C9FE68BB0220A6
:1023F00086F8400000F04BF8FDF7DCFE00280CD01A
:102400003AD5C6E90E4486F83040042186F82810F3
:1024100086F82940012129702EE0012086F840002D
:1024200000F035F8FDF7B9FE78B9D6E90E23521E53
:1024300063F100039C4216D301D8904513D3C6E93B
:102440000E443068FDF7C3FE80B1C6E90E4486F83D
:102450003040042086F8280086F8294001202870A2
:102460006FF0050008E0022086F84000002086F8A2
:10247000280086F82900287005B0BDE8F085D6E967
:102480000E01CDE900015A430023604670473868C9
:1024900000905246002330687047F0B5059E0468EE
:1024A000E768D7E90045CD79097A41EA0521DFF8E7
:1024B000645890F83070022F00D0DBE60027576098
:1024C0001C603160C0E90E1780F8407080F82870F9
:1024D00080F8297000202870F0BD35E6022180F8D0
:1024E00028103A2180F82910DFF8C408002134E6CA
:1024F000022180F828103A2180F82910DFF8B0086E
:1025000000212AE6F0B5044616461F46059D08211F
:10251000306801F073FF3068062141700820706058
:10252000386001202860002084F8280084F8290001
:10253000DFF87C08002101700020F0BD00E00C30C5
:1025400042681AB102788A42F9D170470020704778
:102550002DE9F04182B00C4615469846089F099E29
:1025600008B90FF2F0502978FFF7E8FF5FEA000C96
:10257000DFF83C0804D1032101706FF0050009E089
:102580000021017000963B46424629462046DCF871
:102590000440A047BDE8F681017F491C017701F0A6
:1025A000010100EBC1000C3070477FB50C46056996
:1025B0000020A07755208DF8000000A8532141701D
:1025C00042218DF802105321C170A16A8DF80410C8
:1025D000A16A090A8DF80510A16A090C8DF8061088
:1025E000A16A090E8DF8071004F128014A688B6A68
:1025F0000E6B06FB13224B6AD21A027200F028F807
:10260000000A8DF8090000F023F8000C8DF80A008C
:1026100000F01EF8000E8DF80B00C87E8DF80C003F
:102620000020486208630D2088620120C86200A86B
:10263000C861032084F860000D2200A960786B6FE8
:1026400098470D2160782A6F9047002004B070BD34
:1026500048688A6A0B6B03FB12004A6A801A70474B
:1026600080B50346084600F12C01CA750A791206A6
:1026700010D5C26A72B1022280F8602000224A623C
:1026800001228A6200220A62002140781A69126FD0
:10269000904703E001461846FFF787FF002002BD80
:1026A0002DE9F8430446884607E000F0BAFAD0E97D
:1026B000002306F14400C0E90023276994F84E0086
:1026C0001821626801FB002008EB000191F911104C
:1026D000002948D40C22C06802FB01004668002E85
:1026E00041D096F86000801E0DD0401E01283AD8D7
:1026F000002086F86000307807F15801496D88475E
:102700000020BDE8F283F06C316D0D1A716C00EBA6
:10271000010915D04046B96D8847854228BF054656
:1027200007F15804AAB249467078E3699847A9B2FC
:102730007078A2699047F06CA9B20844F064DFE7B2
:102740000020F064B06D401CB065716D884204D308
:1027500031462046BDE8F44327E7F16D8842A4D313
:1027600001207077CCE76FF00500CAE72DE9F04350
:1027700093B004460F46266994F84E00182162680B
:1027800001FB0020391891F91110002939D40C22CD
:10279000C06802FB010045689DB33846D6F88C102E
:1027A000884781468C363846B16988478046C1459E
:1027B00027DB424602A93846F3699847482795F82F
:1027C000600010B101287CD0B7E01F2202A905F1FA
:1027D000240001F0C5FD686ADFF8701C884210D142
:1027E00095F83100A97881420BD3B8F11F0F08D1B9
:1027F000696807FB001795F83200401EC0B2102828
:1028000002D36FF005004AE0002068652865286261
:102810002846FFF7C1FE00F0A1F8002085F843002C
:1028200005F15400019005F15000009000F090F87F
:10283000286AFFF78DFED8B1DFF874653078032879
:1028400013D1A868286268B105F15401019105F11E
:102850005001009100F07CF8FFF77AFE28B1307843
:10286000032802D100F081F8CBE700F07EF816E0F3
:10287000E865A865E864E86AF0B195F830000006FC
:1028800010D5022085F86000A86C20B16978204638
:10289000FFF706FF03E00120A8776877002013B058
:1028A000BDE8F083012085F86000A87700206877F4
:1028B0002878316A8847F2E729462046FFF775FEF7
:1028C000EDE7A86D696D884237D295F831006968E7
:1028D00007FB0017E86C296D00EB0802914222D338
:1028E000424602A96B6CC01801F02AFDE86C404416
:1028F000E864296D884203D22878316A8847CDE799
:102900000020E864A86D401CA865E96D401A022803
:1029100007D2002068772846FFF73EFE00F01EF839
:10292000EAE70120B9E7022200F020F8052087F845
:102930002800242087F8290063E7022200F016F817
:102940002820052101700120242180F8281058E753
:1029500005F1440305F1330239467047D0E90023FD
:1029600005F14400C0E900237047012229462046B2
:1029700076E670B50C690C2291F84E30182549683E
:1029800005FB0311C96802FB00104568DDB104F1C5
:102990004406687871698847202814D36878B16C38
:1029A000884720280FD3DFF8A81A6878626C904710
:1029B00048B9DFF8A01A2878726B904718B92878C0
:1029C000B16E884708B1FFF727B80120687700206B
:1029D000A87785F86000002306E048216A6801FBBB
:1029E0000021C1E90E33401CA978C0B28142F4D263
:1029F000002070BD2DE9F84F8946D9F810A00C21B0
:102A000099F84E201823D9F8046003FB0262D268BB
:102A100001FB0020466896F8607016B96FF005005B
:102A20002FE000244FF0480807E02868FDF780FBFE
:102A300010B9012085F83000641CB078E4B2A042DF
:102A400012D3706808FB040595F830000028ECD01C
:102A50000128F1D12868FDF774FB002808BF022087
:102A6000E8D0E9D50020E5E7B07F48B1022F0AD1D0
:102A7000F06D716D88423EBFB16D401A02280BD3D4
:102A80000020BDE8F28F012FFAD1F06D716D884200
:102A90003CBFB16D8842F3D2F46D307F401C00F032
:102AA000010006EBC00000F10C0506F2330B96F8AE
:102AB0003100716808FB0018306A08B90FF2940001
:102AC0009BF80010FFF73AFDB94900281CBFD0F869
:102AD00008C05FEA0C0018D00020087023462A4680
:102AE00059464046E047C0B9F06D401CF065022FE2
:102AF00016D1707F0028C3D000F093F800F08AF858
:102B000071784846FFF7CCFDBAE703200870012230
:102B100031464846BDE8F84FA2E50128F7DBB0E7AB
:102B2000012FADD1716D884204D331464846BDE8CE
:102B3000F44F3AE5707F0028A2D000F072F800F060
:102B400069F83078DAF8AC10BDE8F44F08470000B7
:102B5000445C004000000000BD1F000800000000B1
:102B600003000000F51F0008000000000400000042
:102B70004920000800000000120000004B2000085F
:102B8000000000001A000000F12000080000000012
:102B90001B00000047210008000000001E0000008C
:102BA00061210008000000002300000063210008EC
:102BB0000000000025000000F121000800000000D6
:102BC000280000009B240008992300082A00000028
:102BD0006D2300088B2200082F000000DB24000872
:102BE0000000000043000000DD2400080000000099
:102BF0004A000000F1240008000000005A00000014
:102C00000525000800000000000000000000000092
:102C100000000000D0E9002306F14400C0E90023D1
:102C20007047002070773046B6E470B500F154026A
:102C300013790C2490F84E501826406806FB0500C6
:102C4000C06804FB0300406828B1D388012B04BF8F
:102C50005288002A01D0FEF7DFBE801CD7E270B593
:102C6000046900F154010A790C2390F84E5018269B
:102C7000406806FB0500C06803FB0200456895B18B
:102C8000C888002804BF488800280CD16878A16E45
:102C9000884740B968342878616B884718B9287824
:102CA000616C884708B16FF0050070BD38B5049CB1
:102CB000A4B200E010314D68002D1CBF8D68002DBE
:102CC00001D1CD68ADB10D78954201BF4D789D42DF
:102CD0004D88A542EED1059A8B6853604B6813600E
:102CE000CB68190003D01146BDE8344018470020D6
:102CF00032BD6FF0050032BD024608461821DFF8EC
:102D0000443B01FB003100230B738B601169D1F848
:102D1000AC100847851700202DE9F8430446884683
:102D20001820DFF8241B00FB08173E460020B06087
:102D3000D6F8049040462169896D8847054600EB26
:102D40000901491EB1FBF0F1B981B97B41B171684C
:102D5000B1FBF0F200FB121111B9B989491CB9811C
:102D6000484528BF4D46376800F0BBFB00F0BFFB6D
:102D7000ADB2B56040462169C96C8847B8B14046DC
:102D80002169096D8847B9EB05000DD0E919854225
:102D900028BF0546AAB200F0A6FB00F0A8FBB06869
:102DA000A9B20844B06002E0002100F0A1FB95E365
:102DB0008517002010B500F15002131D5C88002C0F
:102DC00004BF9B88002B01D0FEF718BD90F84F0080
:102DD00050740020907402F21100086002200DE18E
:102DE00030B500F15002131D5C884CB99B8890F8F7
:102DF0004E401825406805FB0400007A834200D34A
:102E000009E000205074907402F211000860022062
:102E10004860002030BD6FF0050030BD70B50C4635
:102E200000F150052A1D938803F07F0103F080060E
:102E3000528822B90269906B0078834201D3FEF771
:102E4000EBBD002E084602F1380102D0C96A88475E
:102E500001E0096E884700B1012068740020A87461
:102E600005F21100206002206060002070BD00F1BA
:102E700054018A88002A04BF4988012900D042E011
:102E800090F84F1001F0DF0136E00020704738B5B0
:102E9000044604F15400818801F07F0501F08001AF
:102EA000408820B92069826B1278954200D320E7D0
:102EB00000F138020029284606D0116B88472846C1
:102EC0002169096E884708E0516E884728462169C4
:102ED000D1F89410884700F0C3FB002032BD00F108
:102EE00054018A88002A04BF4988012900D00AE0D9
:102EF00090F84F1041F0200180F84F1000207047EB
:102F00000020704700BF6FF00500704700F15401CA
:102F10004A88802A06D28988002904BF90F84E008A
:102F2000002801D06FF0050070470146B1F8560047
:102F300081F84C0091F84C000969896908471CB573
:102F400000F154025488019191880091E3B2220A61
:102F50008168FFF7ABFE16BD2DE9FC4104460D4626
:102F600004F1540094F84E101822636802FB0131FA
:102F700047884FEA172880880C22CB6802FB003272
:102F80001668097A81421BDBD6B17168002904BF3B
:102F90003068002814D0019500200090FBB2424612
:102FA0002046FFF783FE70B1D6F800C05FEA0C0040
:102FB00006D000950023FAB241462046E04710B102
:102FC0006FF0050000E00020BDE8F68110B500F1CB
:102FD0005002131D5C88002C04BF9B88002B01D07D
:102FE000FEF70CBC90F84E301824406804FB030038
:102FF000007C507402F2110008600120486000203B
:1030000010BD10B50022446800E0521C0378D2B213
:103010009A4207D2182303FB02431B7C9942F4D146
:10302000104610BDFDF7A2BE80B500F154018A889C
:103030002AB94988C9B2FFF7E4FF002801D5FEF795
:1030400081BC002002BD2DE9F04F85B007460FF28C
:103050003C50D0E90023CDE9022397F84E00182117
:103060007A6801FB00283D1D00F078FB696838464E
:10307000FFF71CFE00286DD10298C679E868406B06
:103080008047002866D13146EA68526D9047002893
:1030900060D13146EA68D2F888209047002859D19B
:1030A00002A801900020009097F84E300222696833
:1030B0003846FFF7FBFD00284CD14FF0FF370924BD
:1030C0000EE0D2F8882090470FF22D414846EA687A
:1030D000926F90478AF811700298205C001984B2B0
:1030E0000398844239D2029820184178042902D0EA
:1030F000052902D0F0E78778EEE790F802B006796C
:103100000BF00F09C07810F0030005D002281DD085
:103110001AD303281CD01DE000214846EA68126C2F
:103120009047EA6809EB080A5FEA0B6031464846B7
:10313000C7D5526D90470FF221314846EA68526C6C
:1031400090478AF81370C7E70321E6E70221E4E716
:103150000121E2E76FF0050000E0002005B0BDE8C6
:10316000F08F70B50446B4F85610C9B2FFF749FFA6
:1031700000282AD404F24D0148704878182162686A
:1031800001FB00252046FFF75EFFF0B92968080023
:1031900002D020468847C0B9002601E0761CF6B26E
:1031A000287A864213DA0C207043E968411800221D
:1031B0000A72E96840580028F0D0C2681000EDD0CB
:1031C0002146304690470028E8D0FEF725BC012074
:1031D00084F84D00002070BD70B500F15002131D41
:1031E0001C7990F84E501826406806FB05000546ED
:1031F0005B8813B9007A844201DBFEF70DBC0C201A
:10320000EB6800FB0430007A507402F21100086091
:1032100001204860002070BD38B5024602F154011B
:103220008888498892F84E301824556804FB035367
:103230001C7AC0B2A04200D35BE50C24DB6804FB1F
:1032400000331972121DD269130003D0C9B2BDE850
:1032500038401047002032BD543000E00C310A786D
:10326000FF2A08D003789A4202BF4A7843789A42EC
:10327000F4D108467047002070472DE9F843814695
:103280000D4609F1540108784FF0FF3660221042D4
:1032900003D12E700FF2FC213AE099F84E2018234A
:1032A000D9F8047003FB02774FF00C0800F01F03FD
:1032B000012B08BF88881CD000F01F01032912D100
:1032C000002400E0641C387AE4B284421CD2F8681E
:1032D00008FB0400006881684846FFF7BDFF00282E
:1032E000F0D02C7018E000F07F0020280CD199F964
:1032F0000C00287095F900003A7A904204DAF968D7
:1033000008FB0010006810B92E70002004E08168EE
:103310004846BDE8F4439FE7BDE8F28300F1500260
:103320001179090654BFDFF81C15DFF8781DD26843
:103330009268130018BF1047704790F854100906A0
:103340000CD4DFF8041500220A604A6001228A7357
:103350004861DFF8542D0A610021DDE470472DE952
:10336000FF41044604F150073D1D002602A82169D3
:10337000096B8847D0B9082202A9284600F0E0FF6F
:103380000120387007F110012046FFF776FFF86042
:103390000196009650B1426810000AD000A920465C
:1033A000904718B9019820B1009810B96FF0050640
:1033B0003EE0E8880146019A904238BF0190DFF86C
:1033C000E87CDFF8842448B91060506001209073D5
:1033D000546117612046FFF79FFC32E0DFF8843D1F
:1033E000DFF8E08928780006DDE9000106D4C8E9A5
:1033F0000001C8F81440C8F8103013E0C2E9000119
:103400000198E98888428041C00F9073546113612C
:1034100000212046FFF780FC060008D1C8F81440C0
:10342000C8F8107000212046FFF766FC064646B13A
:1034300000202169C96D884700202169D1F89010CA
:103440008847304604B0BDE8F08100005553424340
:10345000A12600086D2700082DE9F8430446884698
:103460001820DFF8E41300FB08152E46B068316819
:103470004718A889401EA88180B238B34046216908
:10348000C96C884720B140462169096D88470120F1
:10349000A989884221D27068B168B0EB010922691C
:1034A0000FD04046916D884705464D4528BF4D4693
:1034B00000F017F800F01BF8B068A9B20844B0603B
:1034C0000BE000214046126F904706E005F1100026
:1034D00001680A001CBF4068884700BF0020BDE8A3
:1034E000F283AAB23946404623695B6F1847A9B2F6
:1034F00040462269126F1047F8B504460D46182061
:10350000D04900FB051628462169D1F8801088476C
:1035100020B128462169D1F88410884728462169BE
:10352000D1F8A410884707467068B168814228D254
:103530007A18904225D33A463068091828462369FC
:10354000D3F8A830984700F08BF8B0683844B060E2
:1035500028462169D1F88C108847874202DA012079
:10356000307305E0307B18B9B0687168884206D3C3
:1035700006F1100001680A001CBF4068884700205F
:10358000F2BD00BF6FF00500F2BD000000000000BA
:103590000000000080000000B52D000800000000C1
:1035A00081000000E12D0008000000008200000002
:1035B0001D2E000800000000000100006F2E000812
:1035C00000000000010100008B2E00080000000038
:1035D000020100008F2E0008000000000003000020
:1035E000DF2E00080000000001030000012F00088A
:1035F0000000000002030000052F0008000000008A
:10360000000500000D2F00082B2F00088006000089
:103610003F2F00080000000081060000592F00081D
:103620000000000080080000CD2F0008000000000E
:10363000000900002930000863310008810A0000F9
:10364000D931000800000000010B00001932000809
:1036500000000000FF00000000000000000000006B
:1036600028462169D1F8AC1008477FB504460FF20F
:10367000E400D0E90023CDE902233021724800F0B4
:103680009BFE30216F4800F097FE00F06EF884F842
:103690005000002512E01820616800FB05164FF06D
:1036A000FF32022106F1110000F0ACFE4FF0FF32B4
:1036B000022106F1130000F0A5FE6D1C2078EDB28A
:1036C0008542E8D320698068804700283AD12046A7
:1036D000216909688847002834D12069006980473A
:1036E00000282FD100F03AF8A1682046FFF7DEFA53
:1036F00040BB0298C579A4F852502069406B8047BE
:1037000000BB00212269126C9047D8B92946226972
:10371000526D9047B0B929462269D2F88820904767
:1037200080B9E06A010018BF8047DFF8C81B00209D
:103730002269526C904728B9DFF8BC1B2269926F4E
:10374000904710B16FF0050002E021698969884750
:1037500004B070BD000000000000000002A801904D
:1037600000200090002301227047002084F84D00C3
:1037700084F84E0084F84F00704710B5040002D161
:10378000002010BD641C207818B100F06EFE0028E7
:10379000F8D0207810BD30B504469BB119B9194650
:1037A00000F030FE0EE011F8015B00F8015B3DB95E
:1037B000401E5B1C5B1E18BF00F8012BFAD101E014
:1037C0005B1EF0D1204630BD2DE9F04104460D4688
:1037D00090461F0017D026461DB9394600F012FE4C
:1037E00011E015F8010B00F05EFE06F8010BC0B207
:1037F00038B9761E7F1C7F1E18BF06F8018BFAD1E0
:1038000001E07F1EEDD12046BDE8F08110B5DFF864
:10381000EC1A01F12C024368047AB3FBF4F391F83B
:103820002C10547841EA0421947841EA0441D2787A
:1038300041EA0261C918491C89000088B1FBF0F017
:10384000401C10BD5417002024170020F8B5044672
:103850000D4616462088217A01FB00F26F6B00F0BE
:10386000D5F800F02DFEC019BE4203D3864201D226
:103870002846F2BD296A19B1324600F019FC40B958
:1038800055F83C0F20B13246294600F011FC00B932
:103890000020F2BD2DE9F14F0027B8460024A146D3
:1038A0002546A246006810B100F082FE0546009849
:1038B000406810B100F07CFE8246092D34BFBAF199
:1038C000040F01202CD200260FE00098006816F8A3
:1038D00000B0584600F0D3FD00B10127584600F073
:1038E000D8FD08B14FF00108761CAE42EDD300259B
:1038F0000EE0009840682E5C304600F0C0FD00B13C
:103900000124304600F0C5FD08B14FF001096D1CDF
:103910005545EED308EA070009EA04010843C0B29E
:10392000BDE8F28F38B50446206878B100F040FE5B
:10393000054664681CB1204600F03AFE08B9002034
:1039400003E0204600F034FE401C401932BD2DE952
:10395000F84304460D0016462088217A01FB00F941
:103960004A464DD0287AC00627D54FF000082F6A66
:10397000E7B112E0387A08280CD03846FFF78AFF02
:1039800040B13846FFF7CEFF0C300D21B0FBF1F00F
:1039900008EB401808F120083C3738680028E9D1C6
:1039A00009EB0800401EB0FBF9F000E00020217A8E
:1039B000414322885143E96003E000F027F800F01A
:1039C0007FFD48B1316869630A0CA5F82B20A5F882
:1039D0003110316840183060286A30B18563324652
:1039E000296A2046FFF7B3FF50B9A86B55F83C1F72
:1039F00049B1A863324629462046FFF7A8FF10B117
:103A00006FF0050000E00020BDE8F2830023E868C5
:103A1000002180185941401E61F100017047F8B53E
:103A200004460D46FFF736FF30B9082320222168EF
:103A30002846FFF7C9FE0FE02668304600F0B8FDC3
:103A400007460823202231462846FFF7BDFE7E2088
:103A5000785578193121417003232022616805F1DE
:103A6000080001B0BDE8F040AEE62DE9F04F89B0A6
:103A700006460F4614469846049600200290307A77
:103A8000C00658BF6FF0050040F1DA80366A01E0E9
:103A90003F1A3C36002F38D0002E1CBF306800285B
:103AA00039D03046FFF7F6FE50B13046FFF73AFF07
:103AB0000C300D21B0FBF1F0C0B2401C400100E021
:103AC00020208742E4D2F804000E02901DE0BBA142
:103AD000384600F089FD68B90498806B00281CBF47
:103AE000816B002906D0416B090CA6F82B10406BA6
:103AF000A6F831000F2206F1240104F10D0000F0B8
:103B00001FFC2034A8F120083C36B8F1000F1EBF7E
:103B1000002E3168002900F0928000208DF804000A
:103B2000307A08280CD10B2320222046FFF733FEE1
:103B3000307AE072142104F10C0000F05FFCE0E741
:103B400005A93046FFF76BFF3046FFF7A3FE0028BC
:103B500079D03046FFF7E6FE039001208DF804008F
:103B600003980C300D21B0FBF1F0C0B2402828BF03
:103B70003F20029900290CBF40F04007471AFFB2CE
:103B8000002F60D00025FF222021204600F03AFCC3
:103B90000F20E0720020E076A0762073690841EAE9
:103BA000C51105AA825C5118CDB2401C0B28F5D373
:103BB00065732770012527F04000401E0D2101FB91
:103BC00000F904E01A2D08BF1C2509F1010905EBD5
:103BD000040A0398814538BF202D23D2D6F800B0BF
:103BE000584600F0E5FC814538BF19F80B0010D3AA
:103BF000584600F0DDFC814508BF2E2009D0A9F110
:103C000001000090584600F0D3FC0099081A716832
:103C1000405C285500208AF80100AD1C0B2DD1D145
:103C20000E25D2E7202D03D200208AF80100285566
:103C300007F0BF00471E2034B8F120089FD10020B4
:103C400009B0BDE8F08F0B2205A9204600F078FBF3
:103C5000307AE072002020739DF8040098B9306833
:103C6000FFF78BFD00F00BFC18B1207B40F0080043
:103C700020737068FFF781FD00F001FC18B1207B14
:103C800040F010002073307AC00604D50020207761
:103C90006077A07709E0F0682077F068000A607725
:103CA000F068000CA077F068000EE077376844A158
:103CB000384600F099FC00287FF409AF0498406B67
:103CC000010CA6F82B1013E7FEB514461D46066A34
:103CD0000BE0C90658BFC26043630F2204F10D0117
:103CE000243000F02DFB2034203D95B3207880B3A4
:103CF000E07A0F28F7D0374600E03C37396839B30F
:103D0000387A082804D000A93846FFF788FE04E076
:103D10000B23202200A8FFF73EFD0B2200A920461E
:103D200000F084FC0028E8D1380011D0217F627FA8
:103D300041EA0221A27F41EA0241E27F41EA0262B6
:103D4000A17EE37E41EA0323017AE77AB942C0D03B
:103D500001E00020FEBD6FF00500FEBD38B54368F0
:103D6000C268DFF8984504F11C05287C697C40EAAC
:103D70000120A97C40EA0140E97C40EA0160009012
:103D800018880021C2E900015868217F6C7841EA57
:103D90000421AC7841EA0441EC7841EA0461081856
:103DA0000021C2E9020110201877D964196500AA20
:103DB00003F114011846FFF7CAFD32BD2E2E000094
:103DC0002E0000005417002000207047002070478C
:103DD0002DE9F04F83B0C168D1E900B7B2FBFBF920
:103DE00044682046FFF712FD0746207A21884843A1
:103DF0000190DFF808A50AF20E060AF22E000090E4
:103E0000B07FF17F40EA01209AF82E1040EA01408D
:103E10000099497840EA01680C9D5946284600F00F
:103E2000EDFAB07BF17B40EA0120317C40EA0140B1
:103E3000717C40EA0160FF2100284CD0B9F1000FED
:103E400047D1206985F8B8012069000A85F8B901D1
:103E50002069000C85F8BA012069000E85F8BB01C5
:103E6000802085F8BE01012085F8BF0185F8C001DA
:103E7000002085F8C1010B2085F8C201012085F8DA
:103E8000C30185F8C41185F8C511B07B85F8C6015A
:103E9000F07B85F8C701307C85F8C801707C85F817
:103EA000C901606885F8CA016068000A85F8CB011D
:103EB0006068000C85F8CC016068000E85F8CD01C3
:103EC000552085F8FE01AA2085F8FF010020BDE8F5
:103ED000FE8F8145FAD3484508D0009A1279009B9D
:103EE0005B7942EA032212184A4536D14FF4007238
:103EF0005146284600F024FA2088E8722088000AFB
:103F00002873207A6873606885F820006068000A6A
:103F100085F821006068000C85F822006068000EBA
:103F200085F8230085F82470380A85F82500380CB8
:103F300085F82600380E85F82700E06885F84300EC
:103F4000E068000A85F84400E068000C85F8450048
:103F5000E068000E85F84600B8E7009B9B7803EB0D
:103F6000000CCC451CBF9A184A451AD15220287023
:103F700068706120A8704120E870722085F8E40123
:103F800085F8E501412085F8E601612085F8E70123
:103F900085F8E81185F8E91185F8EA1185F8EB1143
:103FA0008EE70CF1010149451CBF511C494504D164
:103FB000AA2085F8FE01552086E79AF80E1072783F
:103FC00041EA022211188945C6D3A9EB0001891ADA
:103FD000B3787B43D2188018814546D2B1FBF7F005
:103FE00007FB10104FEA9B0101FB00F703E008609C
:103FF000ABF1040B7F1CBBF1000F35D047450FD24E
:1040000029460D1D002F0CBFBD484FF0FF30EEE7D5
:1040100045F8040BABF1040B7F1CBBF1000F23D060
:104020003A4600F043F80028F2D0416BA7EB0108B4
:10403000019A0023C068002110185941401E61F107
:10404000000100F03DFA8045EAD27F1C411E884500
:1040500006BF6FF0704145F8041B45F8047BBBF1C7
:10406000040B08F10108EED130E7CF1A207AB7FB34
:10407000F0F000EB080200F019F800281CBFD0F89F
:1040800010C05FEA0C01EFD05B462A462188247AF3
:10409000456BA8EB050505FB0474614303B0BDE85F
:1040A000F04F6047241700201D33000804F114016D
:1040B0002046FFF7CBBB2DE9F843089E00F022F91C
:1040C00047683846FFF7A2FB8C4A02F20E0E9EF8B4
:1040D0000E109EF80F3041EA03219EF8103041EA9D
:1040E00003419EF8113041EA0361937B9EF801C0C1
:1040F00043EA0C239EF802C000FB0CFC681AC01AAD
:10410000A0EB0C099EF81E009EF81FE040EA0E206E
:1041100092F82EE040EA0E402E32527840EA0268D1
:10412000387AB9FBF0F000EB0802591861448D426F
:1041300014D307F114013846FFF788FB70B14569C5
:1041400029000BD02346324639883C7A466BA8EBCF
:10415000060606FB04946143A84700E00020BDE882
:10416000F28300003B3300080020704700207047B6
:104170002DE9FC47C168D1E90041B2FBF4F846687B
:104180003046FFF743FB5D4B03F20E05A97BEA7B4C
:1041900041EA02212A7C41EA02416A7C41EA026149
:1041A0009A7B6F7842EA0722AF7800FB07FCA8EB06
:1041B0000100801AA0EB0C0EF24603F22E07A87F36
:1041C000ED7F40EA052093F82E5040EA05407D78C7
:1041D00040EA0565DDF8289052186244904511D2F6
:1041E000414506D038797A7940EA022040184045A6
:1041F00005D14FF400724946184600F0A1F800209E
:10420000BDE8F687307ABEFBF0F0421900F080F886
:1042100000281CBFD0F818805FEA0801EFD02346C1
:104220004A463188347A466BAE1B06FB04A46143D0
:10423000C047E5E72DE9F84F00F064F846683046DE
:10424000FFF7E4FA8146DFF8B48008F20E07B87B86
:10425000F97B40EA0120397C40EA0140797C40EA60
:104260000160281A98F80E107A7841EA0221401A63
:10427000B97809FB110AB87FF97F40EA012098F864
:104280002E1040EA014008F12E01497840EA016B06
:10429000307ABAFBF0F000EB0B020020009000F047
:1042A00037F8B97BFA7B41EA02213A7C41EA0241C4
:1042B0007A7C41EA026198F80E207B7842EA032278
:1042C0005118BA7809FB02118D420FD370B1C5693C
:1042D00029000BD023460A9A3188347A466BABEB1F
:1042E000060606FB04A46143A84700E00020BDE8E1
:1042F000F28F000059340008F9340008340200201D
:10430000F8FFFF0FC168D1E90045B2FBF4F5704733
:1043100006F114013046FFF799BA0020704750F8B3
:10432000041B61B150F8042BD30744BFA9F101036A
:104330009A18002342F8043B091FFAD1EFE77047AF
:1043400062B38B0708D0521E11F8013B00F8013B05
:1043500000F024808B07F6D1830740F0208000BF57
:10436000103A07D330B4B1E83810103AA0E838104A
:10437000F9D230BC530724BFB1E80810A0E80810F8
:1043800044BF51F8043B40F8043BD20724BF31F846
:10439000022B20F8022B44BF0B7803707047083AB9
:1043A00007D3B1E80810083A40F8043B40F804CBC2
:1043B000F7D25307E4E70000002200F005B8000040
:1043C00062F30F2262F31F4200B500BF130096464E
:1043D0009446103928BFA0E80C50FAD85FEA417C17
:1043E00028BF0CC048BF40F8042BC90728BF20F8DD
:1043F000022B48BF00F8012B00BD0000002200F096
:1044000005B8000062F30F2262F31F42401810F05B
:10441000030308D0C91A1FD3DB0748BF00F8012DDA
:1044200028BF20F8022D130030B414461546103969
:1044300028BF20E93C00FAD8490728BF20E90C0032
:1044400048BF40F8042D890028BF20F8022D48BF3E
:1044500000F8012D30BC7047C91818BF00F8012DB5
:10446000CB0728BF00F8012D704710B50446012086
:1044700000F00EF92046BDE8104000F015B910B567
:104480000446012000F004F92046BDE8104000F089
:1044900016B910B50446012000F0FAF82046BDE830
:1044A000104000F011B910B50446012000F0F0F8FA
:1044B000A4F161001A2838BF203C204610BD00003E
:1044C0001B4213D1094236D12AB18446B0FBF2F027
:1044D00002FB10C2704700F0FDB8FCD3002200239D
:1044E00070470B000200002100207047904271EBE2
:1044F000030CF6D370B5B1FA81F4B3FA83F52C1B33
:10450000A340C4F1200532FA05F63343A2405FF020
:104510000046E64002E05B085FEA3202841A71EB73
:10452000030524BF204629467641F4D302000B0040
:104530003000002170BD012ACFD970B5140C20D0F5
:10454000B1FA81F4B2FA82F5C4F120046419B4F12D
:104550002006D6D3B2405FF00044F440002502E0CC
:1045600052085FEA3303C61A71EB020E24BF3046CD
:10457000714664416D41F3D302000B002000290015
:1045800070BD0C46B1FBF2F102FB11452D0445EA6A
:104590001045B5FBF2F402FB145580B240EA054524
:1045A000B5FBF2F002FB105240EA044070BD00007F
:1045B00000F10103810704D010F8011B89B18107C4
:1045C000FAD10268B2F10131914311F0803F04BF8A
:1045D00050F8042FF6E710F8011B11B110F8011B79
:1045E000FBE7C01A70470000820707D010F8012BC4
:1045F00011F8013BBAB19A42F6D014E002680B6898
:104600009A42A2F1013301BF934313F0803F50F867
:10461000042F51F8043FF3D010F8012B11F8013B9F
:104620000AB19A42F8D0D01A704700000300002067
:1046300013F0030F09D0521E22BF13F8010B11F81B
:1046400001CBB0EB0C00F3D07047121F22BF53F820
:10465000040B51F804CB6045F7D0121D0AD200BA02
:104660009CFA8CFCB0EB0C0038BF6FF0000088BFE8
:1046700001207047521E22BF13F8010B11F801CB25
:10468000B0EB0C00F6D0521C08BF1046704700007B
:1046900010B50446DFF80C00C046C04650F82400B0
:1046A00010BD0000B8160020A0F161011A2901D246
:1046B0000120704741381A288041C00F7047613887
:1046C0001A288041C00F704741381A288041C00F16
:1046D00070470000704700002E0000002E2E0000E2
:1046E0004D5343426F6F74004C4F53540000000011
:1046F00044495200666C61736800000062696E0094
:10470000726561646D65000074787400524F4F5497
:104710000000000066616B65666174333200000062
:104720001201000200000040830420570001010232
:104730000301000009022000010100806409040057
:10474000000208065000070581024000000705012D
:1047500002400000040309042603530054004D00E6
:104760006900630072006F0065006C006500630003
:10477000740072006F006E00690063007300000037
:1047800010034D005300430042006F006F0074009F
:10479000320330003100320033003400350036007F
:1047A0003700380039004100420043004400450012
:1047B0004600300030003000300030003000300063
:1047C0003000000001000000204700081200000037
:1047D0000000000002000000344700082000000034
:1047E000000000000300000054470008040000001F
:1047F00000000000030109045847000826000000DB
:1048000000000000030209048047000810000000B7
:104810000000000003030904904700083200000074
:104820000000000000000000000000000000000088
:10483000000000000200000029090008F508000837
:10484000F90800088D0C00088F0C0008990C00086E
:10485000CB0C0008210D0008570D0008730D00084F
:10486000750D0008D50D0008D70D0008F70D0008DC
:10487000FF0D00082D0E0008610E0008830E0008D1
:10488000E70E0008970E0008FB0E00080B0F00084B
:10489000270F00087D0F0008431000085310000880
:1048A0005F100008771000088B100008DD15000865
:1048B0007B1600088F160008931600089D16000846
:1048C000A1160008A5160008AF160008BB160008C0
:1048D000BF160008C3160008C7160008D316000844
:1048E000EF16000834480008311700083517000893
:1048F000DD17000803180008771800089D18000845
:10490000AD18000815190008351900084B190008E2
:10491000631900088D190008A3190008B9190008C7
:104920001F1A0008711A0008911A00081F1B0008BE
:10493000411B0008591B0008051C0008211C000829
:10494000331C00085D1C0008831C0008991C00082B
:10495000D11C0008351D0008A51D0008630B0008C8
:104960006B0C00082D0B0008330B0008430B0008EC
:10497000BB0A0008130B0008050B0008B91F00084C
:10498000A1FE00002B2C00080000000021FF000009
:104990005F2C000800000000FF0000000000000085
:1049A0000000000000000000000000008049000836
:1049B0007329000800000000F52900082DE9F045E2
:1049C00000F10801026801EB8202406800F0010377
:1049D0004008400002EB80000025AA460024A046C3
:1049E0000126374602E00027F44511D1824201D169
:1049F000BDE8F08552F804CB03B1CC4452F804EB87
:104A0000E644F1E70D686D18091D51F804ABAA449E
:104A10005545F7D066B115F9014B0026012705E091
:104A20000D686D18091D51F804ABAA445545F7D01F
:104A3000002C12D50FB115F8018BF445D3D00CF82A
:104A4000018B641CF9D40AE0F44518BF5545CBD05E
:104A500015F8018B0CF8018B641E002CF4D501268F
:104A6000C2E7000010B5074979441831064C7C4470
:104A7000163404E0081D0A68511888470146A1420F
:104A8000F8D110BD080000003000000093F8FFFFCF
:104A9000D8100000B00600200000000021FFFFFF3A
:104AA0000200000002000000740100003403000056
:104AB00000000020B00600000120C046002801D000
:104AC000FFF7D0FF0020FBF735FE00F000F800F004
:104AD00001B800000746384600F002F8FBE7000086
:104AE000C046C046024A11001820ABBEFBE700BF1B
:104AF00026000200C046C046C046C046FFF7DCFFA5
:104B000000480047F54A0008FFF7FEBFFFF7FEBF69
:104B1000FFF7FEBFFFF7FEBFFFF7FEBFFFF7FEBFC9
:104B2000FFF7FEBFFFF7FEBFFFF7FEBFFFF7FEBFB9
:104B3000FFF7FEBFFFF7FEBFFFF7FEBFFFF7FEBFA9
:104B4000FFF7FEBFFFF7FEBFFFF7FEBFFFF7FEBF99
:104B5000FFF7FEBFFFF7FEBFFFF7FEBFFFF7FEBF89
:104B6000FFF7FEBFFFF7FEBFFFF7FEBFFFF7FEBF79
:104B7000FFF7FEBFFFF7FEBFFDF71CBAFDF719BA3E
:104B8000FFF7FEBFFFF7FEBFFFF7FEBFFFF7FEBF59
:104B9000FFF7FEBFFFF7FEBFFFF7FEBFFFF7FEBF49
:104BA000FFF7FEBFFFF7FEBFFFF7FEBFFFF7FEBF39
:104BB000FFF7FEBFFFF7FEBFFFF7FEBFFFF7FEBF29
:104BC000FFF7FEBFFFF7FEBFFFF7FEBFFFF7FEBF19
:104BD000FFF7FEBFFDF7EFB9FFF7FEBFFFF7FEBF20
:104BE000FFF7FEBFFFF7FEBFFFF7FEBFFFF7FEBFF9
:104BF000FFF7FEBFFFF7FEBFFFF7FEBFFFF7FEBFE9
:104C0000FFF7FEBFFFF7FEBFFFF7FEBFFFF7FEBFD8
:104C1000FFF7FEBFFFF7FEBFFFF7FEBF0001FD007D
:104C20000798060020C4470008FC0003AC480008B1
:104C3000B00003E0460008FC000008CD0008E8468C
:104C40000008F046000810F900036B3A0008FC0069
:104C500003C93C0008FC000334040020E80008F409
:104C6000460008FC46000820FC0012020000DB069B
:104C70000008FB060008390600088F060008E3005C
:104C8000074700080847000821FD0007BB03000094
:104C90005F0200089B000002FC0002760008FD0095
:104CA0000B473EA90C785634120C470008F4000359
:104CB0006B3A0008FC0003C93C0008FC00036400D8
:104CC0000020A0000390010020FC000E3006002010
:104CD000EB58904D53444F53352E30FD00021000D9
:104CE00002FC0007F800003F00FF0040F100000256
:104CF000FD0002010006F1000029FC00064E4F20D5
:104D00004E414D45FC20044641543332FD207E3354
:104D1000C98ED1BCF47B8EC18ED9BD007C884E0279
:104D20008A5640B408CD137305B9FFFF8AF1660FA8
:104D3000B6C640660FB6D180E23FF7E286CDC0ED41
:104D40000641660FB7C966F7E1668946F8837E16A5
:104D5000007538837E2A007732668B461C6683C0D6
:104D60000CBB0080B90100E82B00E94803A0FA7DE4
:104D7000B47D8BF0AC84C074173CFF7409B40EBBD7
:104D80000700CD10EBEEA0FB7DEBE5A0F97D7EEBFF
:104D9000E098CD16CD196660663B46F80F824A0052
:104DA000666A0066500653666810000100807E0245
:104DB000000F852000B441BBAA558A5640CD130F81
:104DC000821C0081FB55AA0F851400F6C1010F84D7
:104DD0000D00FE4602B4428A56408BF4CD13B0F962
:104DE0006658665866586658EB2A6633D2660FB71F
:104DF0004E1866F7F1FEC28ACA668BD066C1EA1009
:104E0000F7761A86D68A56408AE8C0E4060A1CCC91
:104E1000B80102CD1366610F8254FF81C3000266A0
:104E200040490F8571FFC34E544C4452FA20CF00C5
:104E3000470D0A52656D6F7665206469736B732048
:104E40006F72206F74686572206D656469612EFFF2
:104E50000D0A4469736B206572726F72FF0D0A5000
:104E60007265737320616E79206B657920746F2091
:104E7000726573746172740D0AFB000AACCBD800C2
:104E80000055AAD8460008FC000010CD0003DC46FF
:104E90000008FC000010910004144700080CFD00FD
:104EA000035D3D0008FC0003C93D0008C4000BCDB4
:104EB0003D0008D13D0008B7400008FC000F6941E3
:104EC00000086D4100087141000835420008FC00EF
:104ED0000B1B43000801010000E8050020FC000D49
:104EE000B006002000080000B00E00200008AF004F
:104EF0000002E40009240200200153696D6F6EFD79
:104F000020064D5343426F6F74F72003312E30302B
:104F1000B90003E8040020FC001802000201001B95
:104F2000B70000A24A0400A24A040051250200A2D0
:104F30004A0402FA00010804F90007A449000860C5
:104F4000050020E8000002FD000380060020F800B4
:0400000508004AF5B0
:00000001FF
