:020000040800F2
:10000000000400206D180008AD130008AF130008AD
:10001000B1130008B3130008B51300080000000076
:10002000000000000000000000000000B9130008FC
:10003000B713000800000000BB130008BD13000840
:10004000BF130008C1130008C3130008C51300083C
:10005000C7130008C9130008CB130008CD1300080C
:10006000CF130008D1130008D3130008D5130008DC
:10007000D7130008D9130008DB130008DD130008AC
:10008000DF130008E1130008E3130008E51300087C
:10009000E7130008EB130008ED130008EF13000846
:1000A000F1130008F3130008F5130008F713000814
:1000B000F9130008FB130008FD130008FF130008E4
:1000C00001140008031400080514000807140008B0
:1000D000091400080B1400080D1400080F14000880
:1000E0001114000813140008151400081714000850
:1000F000191400081B1400081D1400081F14000820
:1001000021140008231400082514000827140008EF
:10011000291400082B1400082D1400082F140008BF
:10012000311400083314000835140008371400088F
:10013000DFF8E00B1F2102E0DFF8D80B7921017016
:10014000012111E2F8B5044608461546022D2CBFE0
:100150000026FF26DFF8BC7B691C091AC01900F0D5
:1001600032FA0CB100202060002009E02CB1216897
:1001700009022160C25D51182160C15D4E40401CE2
:10018000A842F3D3E85D80EA0601C8B200B10120BD
:10019000F2BD10B500F021F80B21417020218170D3
:1001A0000021DFF8742B0B1812F83140DC70491C69
:1001B0000B29F8D30A187923D370091D00F0D4F95C
:1001C000002010BD80B500F008F82021417000210A
:1001D000418079210171052114E0DFF8380B792184
:1001E0000170704780B5FFF7F8FF032141700621C9
:1001F00081704121C170002101714121417179213A
:100200008171072100F0B0F9002002BD10B5FFF7A1
:1002100093FF00F03EF8A8B9FFF78EFF01220021FE
:10022000201DFFF78FFF68B9FFF786FF0021626886
:10023000DFF8E00A2368CB5C0B54491C8A42F9D2F0
:10024000511CBBE721E010B5FFF776FF00F021F865
:10025000D8B92068A0F10061B1F5803F04D3A0F1C6
:100260000051B1F5A04F03D2DFF8C01B88420CD17A
:10027000FFF762FF00F0B1F82068006801F010FAA3
:10028000206840688047002010BDFFF751FF012023
:1002900010BDDFF89C4B04220021204652E770B5C8
:1002A000FFF74AFFFFF7F5FF002845D1FFF744FFAE
:1002B000DFF8605A0121284600F085F92878401CB3
:1002C000606000F073F8B8BB2068DFF8681B09189D
:1002D000B1F5604F26D210F0030123D16068FF22F0
:1002E00002E041194A70401C10F00301F9D160602E
:1002F00000266068B6EB900F1DD2B00041194A7815
:100300008B7802EB0322CB7802EB0342097902EBF4
:1003100001612268801800F0D9FA042808BF761C11
:10032000E7D009E0A0F10051B1F5A04F04D3DFF808
:10033000941C884200D03DE040E070B5FFF7FCFE21
:10034000DFF8D0490121204600F03DF92078DFF8A0
:10035000E05A6860FF2812D10121204600F033F9ED
:10036000207808BB0026DFF8C40A00EB862000F0E6
:100370008EFA042819D1761C392EF4D314E0401CCF
:10038000686000F013F880B901260AE0305D0828A3
:1003900006D3800200F1006000F079FA042804D14D
:1003A000761C6868B042F1D204E007E0421C0121EB
:1003B0000020C7E6FFF7C0FE002070BDFFF7B8FEC3
:1003C000012070BD80B500E080B5FFF7B1FE0120CF
:1003D00002BD80B5F9E780B5F7E738B5DFF8640C02
:1003E00000210180DFF8600C0160DFF8604CDFF86D
:1003F000900C007970B100F073F941600321016045
:100400004FF4805565610C2200F021F80A2000F0BD
:10041000F2F82561DFF86C5C092200F01AF80F226F
:1004200000F014F8052200F014F80E2200F00EF887
:10043000DFF8540C016821F01D01016000214FF02C
:10044000C45000F0ABFABDE831408CE204212046F4
:1004500066E00421284663E038B500F084FADFF84E
:100460002C4C206820F480302060206820F480200C
:100470002060206840F4803020600020009031200F
:1004800000F096FA0099491C009118B90098B0F54F
:10049000A06FF4D1DFF8F85B312000F089FAB8B32F
:1004A000DFF8F00B016821F010010160016841F0F4
:1004B00010010160016801F038010160016841F03C
:1004C00002010160606820F0F0006060606820F464
:1004D00060506060606820F4E06040F480606060BC
:1004E000606820F47C1040F488106060012028606F
:1004F000392000F05DFA0028FAD06068800880009A
:1005000040F0020060606068C0F381000228FAD108
:100510000020A86701214FF40000BDE834403DE20F
:1005200070B501F00F030F24082A05D29500066864
:1005300000F014F8036006E0A2F10805AD0046687B
:1005400000F00CF843608B0607D5012303FA02F292
:10055000C90601D5026170BD426170BDAC4026EA9A
:100560000404AB4023437047F8B505460C4600260B
:10057000DFF8BC7CA6421AD2A01B412828BF40202D
:1005800038603A6892B2C021701900F053FE3868A2
:100590008619396889B2012000F0CDFE012000F0F3
:1005A0009FFE38680028E5D000F054F8F9E73F20B6
:1005B000044206D10021012000F0BDFE012000F020
:1005C0008FFE0020F2BD70B504460D00DFF8A86C68
:1005D0000EE000F03FF8306C0028FAD0706C411C3F
:1005E0007164805D04F8010B306C401E30646D1E38
:1005F000F1D1002070BD81B04FF47A714843009072
:100600000098C00000900098411E00910028FAD187
:1006100001B0704780B5DFF8600C016CA1B941648E
:10062000DFF8941C096889B2DFF8C82C52F8111061
:100630008905890D0164026C92B24FF4887100F053
:100640000DFE032000F05AFE01BDDFF8E40B00218F
:100650000160704738B5DFF8284ADFF89C5C2868ED
:100660002082208A618A0840400506D54FF6FF3077
:100670002860DFF8D00C40688047608A218A0140FA
:10068000890505D54FF6FF5129606179491C6171D3
:10069000218A0840000448BF00F0FFFC31BD10B5BE
:1006A00000F08DFC0021817200F01AF801604160B9
:1006B0004FF4E0510160002141604FF40641618236
:1006C0000160A069C021417201E0FFF7C3FFA0698A
:1006D000807A0028F9D00020E0710520207210BD3A
:1006E000DFF89C0C012101600021704710B5DFF894
:1006F0009009816900228A728069C272DFF8844C95
:10070000002020654FF4007100F0B8FD102100209A
:1007100000F0BEFD4021002000F002FE80210020FC
:1007200000F0F7FD206848F68F6108402060DFF890
:10073000140C90F82C10002000F006FE002000F0B1
:10074000DDFD0021012000F099FDC021012000F015
:10075000E0FD2021012000F09BFD0021012000F0A0
:10076000ADFD4FF4C061022000F088FD4FF48071B0
:10077000022000F0CEFD0021022000F09FFD20218C
:10078000022000F085FD0021032000F077FD4FF4EA
:100790008871032000F0C4FD4021032000F0D4FD47
:1007A0004FF44051032000F089FD0021032000F0A8
:1007B0006FFD0020BDE8104000F04ABCDFF8C00823
:1007C0008179202904BF002181717047704780B56D
:1007D0000021DFF8AC289369212807D1187800F0B0
:1007E0007F0021280FD1DFF8A01B0AE020280AD1C2
:1007F000187800F07F00212808BFDFF8901B202028
:100800009071080001D1022002BD99610020588238
:100810008847002002BDDFF868188A69137803F062
:100820007F03212B08D1022801D100207047222804
:1008300004BFD078C871F8D002207047DFF8501B91
:10084000CCE1DFF8501BC9E1DFF834188A69D278AF
:1008500001EBC2016431C1E1002901D002207047DF
:100860000228FBD200207047DFF81418002800D1BE
:1008700008E004E0DFF80818002800D102E001F1E8
:100880005C0070478869082101820020704770B5BC
:10089000054640F6FF76304600F04CF8042814D1A7
:1008A000DFF8F44A206840F00200206065602068AC
:1008B00040F040002060304600F03CF8012804D0B1
:1008C000216841F6FD721140216070BDF8B5054602
:1008D0000E460F2000F02EF8042817D1DFF8B84A92
:1008E000206840F0010020602E800F2000F022F8E8
:1008F00041F6FE77042804D1300C68800F2000F008
:1009000019F8012802D0216839402160F2BDDFF8D2
:100910008C0A0168C90701D50120704701684907A1
:1009200001D5022070470068C00601D5032070473A
:100930000420704710B582B00446FFF7E8FF08E0D6
:100940000098401E009000980028F9D1FFF7DFFFC3
:10095000641E012804D124B100200090FF20F1E79B
:1009600004B9052016BDDFF82407016841F0010134
:1009700001604168DFF8282A114041600168DFF812
:10098000242A11400160016821F48021016041683E
:1009900021F4FE014160002181607047DFF8082AE0
:1009A0000029116814BF084321EA00001060704755
:1009B0004109DFF8D826012908BF116803D00229B0
:1009C0000CBF116A516A012200F01F0002FA00F008
:1009D000084018BF0120C0B2704710B5DFF8A0462C
:1009E000002800D111E0206A00688047A0690A3021
:1009F00010BD10B5DFF88846002800D105E0206A58
:100A000080688047A0690C3010BDA0690121018277
:100A1000002010BD10B5DFF86846A169002802D19A
:100A20000220088236E00020A081087800227F237F
:100A3000184214D1487A810644BF42F00201217362
:100A40004006207B08D500F0FE002073206A006974
:100A5000804704F10C0010BD40F00100F5E700F004
:100A60007F03012BF5D000F07F00022812D14879D6
:100A700000F00F0142F0010200F09BFA05D500F0F2
:100A800030001028E2D12273E0E700F44050B0F5C6
:100A9000805FF7E7002010BD70B5DFF8E445A1697D
:100AA000087810F07F0002BF487A00F0DF0048723B
:100AB0005ED0022805D14888002802D10879002894
:100AC00001D0022070BD4A7922F08000DFF8B458CE
:100AD000130655F820304CBF03F0300303F44053A5
:100AE0002678B042EDD2002BEBD0897A0029E8D0ED
:100AF00048F68F71120655F8202013D502F0300207
:100B0000102A32D1024655F822305B0606D555F838
:100B10002230194041F0400145F82210302100F008
:100B2000B7FB22E002F44052B2F5805F1DD14BF6D4
:100B30008F7638B900F080FA2868304080F4405051
:100B4000286012E0024655F822305B0406D555F8BD
:100B50002230194041F4804145F8221055F8201008
:100B6000314081F4405145F82010206A40698047A7
:100B7000002070BD70B5DFF8080583695C7924F04A
:100B80008001DFF80028250652F821504CBF05F0FF
:100B9000300505F440550678B14207D25E88002E34
:100BA00004D1002D02D09B7A002B01D1022070BD10
:100BB000230652F8213042BF48F6BF74234083F029
:100BC000100304D44BF68F74234083F4805342F80F
:100BD0002130006A80698047002070BDDFF8A024C2
:100BE0009269538A20B98888C01A10820020704701
:100BF000086818187047F8B500F086F82F88A968BB
:100C0000DFF8B466080016D0AFB1A888874288BF65
:100C10000746384688472988C91B2980698879187A
:100C2000698031683A4689B2DFF8C83953F8111043
:100C300089B200F013FB288840B14FF44050A082E5
:100C40000021002000F077FB3020E082A069298895
:100C5000AA88914202D303210172F1BD002901D07B
:100C60000521F9E706210172306800F045F8E082BD
:100C7000F1BD2DE9F04100F047F82988DFF838860A
:100C800079B9007A04280CD1607A012806D1D8F805
:100C9000000000F031F80427627228E007271020D6
:100CA00025E0AE888E4205D30427B14288BF314685
:100CB0000E4600E00227B0B2A9688847D8F80010B5
:100CC000B2B289B2DFF8303953F8111089B200F0AE
:100CD000B1FAB1B2002000F02EFB2888801B2880DA
:100CE00068883018688030204FF44051A182E0823B
:100CF000A0690772BDE8F08180B2DFF80019002218
:100D000041F8102030207047DFF87443A06900F1EB
:100D10001005704704050020D816000838B500F00B
:100D20004EF9457801787F2211423DD1092D0ED12F
:100D3000C17862788A425FD38278002A5CD1828847
:100D4000002A59D18172206A406880475EE0052DF3
:100D50000BD1C178802906D2817821B9818811B957
:100D6000807A002852D008205CE0032D0FD1C17892
:100D7000012941D1818800293ED1417A8A063BD59B
:100D800041F020014172206AC06980473EE0012D98
:100D900032D1C17801292FD1818869BB407A800680
:100DA0002AD5FFF779FE26E001F07F02012A18D14B
:100DB0000B2D21D1C1784079E26992699047A169F0
:100DC0008A7ACAB1C0B90879B0B98878A0B9206A5E
:100DD000C0688047A0694179C172A069C178017378
:100DE00014E001F07F00022806D1012DD9D0032D97
:100DF00002D1FFF7BFFE48B12846E169496988473B
:100E0000032808BF09200DD00028ACD10620DFF848
:100E1000A814096889B2DFF8E427002342F81130EA
:100E20003021E182A169087231BD00000020000874
:100E30005006002000E0FFF738B500F0C0F8417818
:100E4000E269062910D101787F2319422BD18078DD
:100E5000012808BFD1696DD0022808BF116A69D086
:100E6000032820D1516A65E000293FD14188D1B9DA
:100E7000C188022917D10179A9B901787F231942C4
:100E800004D1838813B9DFF8781753E001F07F03AA
:100E9000012B13D1002140799269904718B9A069BC
:100EA000807A0028EFD1A0694078E1690969884714
:100EB000032848D1A0690921017231BD01F07F01E9
:100EC0000229F0D1407900F00F0100F0700200F02B
:100ED00070F84CBF00F0300000F440502378994285
:100EE000E1D2002ADFD10028CDD1DCE7082906D1E4
:100EF00000787F210842D6D1DFF808171AE00A29C6
:100F0000D1D1017801F07F010129CCD1817A00296A
:100F1000C9D041880029C6D101790029C3D1C1882F
:100F20000129C0D100214079926990470028BAD1A7
:100F3000DFF8D4160800B6D0A06900224282816191
:100F4000002088470020A1690A8A4FF6FF739A4261
:100F500002D10920087231BD022801D0002A01D136
:100F60000820F7E7087800061DD5C8880090E369D7
:100F7000009D95423CBF009808820ED382420CD25D
:100F800093F82C00824238BF002005D392FBF0F585
:100F900000FB152008B90120607293F82C008882AC
:100FA000BDE8314065E6032008724FF44050A0824E
:100FB00031BDDFF8D033000653F821007047304CC4
:100FC000A069704700F8FF1F10B5FFF7F8FF017A1E
:100FD000022901D0042904D1FFF74BFEA069007A51
:100FE00012E006290FD14178052909D101787F2225
:100FF000114205D1C07800F02BF8206A006A8047C2
:10100000E069806880470820A1690872BDE8104047
:1010100080B500F011F81A4881690A7A082A04D1CB
:101020004FF4805282821022C282087A092801D1AC
:10103000012002BD002002BDC24890F82C10002003
:1010400082E10000046C004020000E4200080140D4
:1010500070B50B4909780022CA4B48F68F7607E035
:10106000D4B253F824503540254343F82450521C41
:101070008A42F5D340F08000DFF89015086070BD1B
:1010800000040020000C0140181002400010024033
:10109000600042420020024070472DE9F04748F6C8
:1010A000BF744BF68F7548F60F7840F68F79B54EC2
:1010B000DFF85C751EE056F820101FFA81FA5FEA2F
:1010C0000A4109D556F8201009EA010146F8201016
:1010D00007EB8000C06B80475FEA0A600AD5B87AE8
:1010E00056F8201008EA010146F8201007EB8000AE
:1010F000006A8047706C3882000440F1968047F6A1
:10110000FF707064388A10F00F00B872D3D1306865
:1011100000F44050B882306800F03000F882306847
:10112000284080F4005030603068204080F020007B
:101130003060388AC006306805D408EA00003060A4
:10114000FFF742FF57E081B2080601D53068F4E7A7
:10115000080535D5306809EA00003060DFF89804EA
:10116000316D89B2DFF88C2432F8111000EB4100A8
:10117000B9690A7A092A17D010F8012B0A70B969DF
:1011800010F8012B4A70811C31F8042BB869130642
:101190001B0C43EA122242800A8813061B0C43EA06
:1011A000122282808988C180B86901210172B869E0
:1011B000C08810B9FFF7B2FD1BE0FFF73DFE18E055
:1011C000080497D5306809EA00003060B869007AF1
:1011D000032801D0052804D1FFF70DFDB869007A76
:1011E00005E0072802D1F869C06880470820B9697E
:1011F0000872FFF70DFF30682840B98ACA0448BF5B
:1012000080F48050890444BF80F4005080B2306084
:1012100030682040F98ACA0648BF80F0100089066D
:1012200044BF80F0200080B23060BDE8F08700004D
:101230005806002010B5DFF8C03303EB4101521C03
:10124000521009E010F8013B10F8014B43EA042367
:1012500021F8023B891C521EF4D110BDDFF89833EF
:1012600003EB4101521C521004E051F8043B20F8FA
:10127000023B521EF9D170470806002010B500F05D
:1012800017F848F68F142340194342F8201010BD78
:1012900010B500F00DF848F6BF742340CC0648BFE7
:1012A00083F01003890644BF83F020039BB214E04F
:1012B000344A52F820307047505C004010B5FFF7B8
:1012C000F7FF4BF68F742340CC0448BF83F4805360
:1012D000890444BF83F400539BB242F8203010BD10
:1012E000DFF8301351F8202048F6BF731A4082F01F
:1012F00030020BE03C600040445C0040214951F862
:1013000020204BF68F731A4082F4405241F820207F
:101310007047C14A126892B202EBC000B64A05E0BB
:10132000BD4A126892B202EBC000B24A49084900B5
:1013300042F810107047B84A126892B202EBC0002F
:10134000AE4AF5E7C4040020B34A126892B202EB39
:10135000C000B24A02EB40003F2909D34A091F23CB
:10136000194204BF521E92B2910241F4004105E0BD
:101370004A08C90744BF521C92B2910201607047EB
:10138000405C0040005C00406908000875080008E7
:10139000F4040020FC040020102002400C20024035
:1013A0000000FFF8FFFFF6FE1C1002407047FEE74A
:1013B000FEE7FEE7FEE770477047704770477047EB
:1013C0007047704770477047704770477047704765
:1013D0007047704770477047704770477047704755
:1013E000704770477047FFF735B9704770477047CF
:1013F0007047704770477047704770477047704735
:101400007047704770477047704770477047704724
:101410007047704770477047704770477047704714
:101420007047704770477047704770477047704704
:1014300070477047704770472DE9F04782B0784891
:10144000016841F01D01016001214FF0C050FFF71C
:10145000A5FA744801210160734D09223821FEF775
:10146000F9FF724CA86880050CD57148008845F2D8
:10147000AA51884206D0FEF7B0FF606800F010F96C
:10148000A0688047624F01203871FEF7E5FF694888
:101490000168026822F07062026021F0706141F020
:1014A00080610160DFF890814FF4004AC8F810A015
:1014B000202028614FF48040C8F810000F2203213B
:1014C0004046FFF72DF805220321FEF7C3FF0E2249
:1014D00003214046FFF724F85848B8610221017201
:1014E0005749F96100F21C003862086880470A20F9
:1014F000FFF781F8534F544D3D60DFF85091C7F826
:1015000000903520B860524E206810F1010F0FD1C5
:10151000306871680818B16809184FF0006050F819
:10152000042B51184B4A9042F9D32046FFF7CEF9CD
:10153000B86980072FD440F6FF742046FFF7FAF908
:10154000042828D17D60C7F80490F86840F0200096
:10155000F860F86840F04000F8602046FFF7EAF9CC
:1015600041F6DF71042811D1F8680840F860F86886
:1015700040F01000F860002030832046FFF7DAF9D1
:10158000012808D0F86841F6EF7102E0012802D086
:10159000F8680840F860C8F814A02F4C01E0FEF786
:1015A000CBFD012100A8FFF70EF89DF800007F2871
:1015B000F5D001210DF10100FFF705F89DF80000BD
:1015C0009DF801104840FF28EBD19DF80000002154
:1015D00014F83120824206D104EBC1025268130094
:1015E00001D09047DDE7491C0B29F1D3FEF7A0FDA0
:1015F000D7E7000008600040006000400460004041
:10160000150A0008DB090008F30900084C5C0040DB
:1016100000040020005C0040505C00400C60004072
:101620001810024020000E42000C0140FC1F000870
:10163000046C0040040001400008014084040020C4
:10164000C40400200420024023016745AB89EFCD8C
:10165000E8F7FF1F00040008D816000830BF7047E5
:1016600020BF704740BF7047BFF36F8F7047BFF315
:101670004F8F7047BFF35F8F704701DF7047EFF305
:101680001480704780F31488BFF36F8F7047EFF3B7
:101690000980704780F309887047EFF3088070472E
:1016A00080F30888704762B6704772B67047EFF3F0
:1016B0001080704761B6704771B67047EFF31380C2
:1016C000704780F311887047EFF31280704740BA7B
:1016D000704700BA70470000000000009301000846
:1016E00001000000C501000802000000E50100083B
:1016F000110000000D020008210000004702000850
:10170000310000009F020008430000003B03000876
:1017100063000000C503000873000000C90300084F
:1017200082000000D303000892000000D7030008E5
:1017300009024300020100C0000904000001020286
:101740000100052400100105240100010424020207
:101750000524060001070582030800FF09040100B3
:10176000020A00000007050302400000070581028D
:10177000400000003203530054004D00330032009B
:1017800020005600690072007400750061006C0052
:10179000200043004F004D00200050006F007200F9
:1017A00074002000200000002603530054004D0068
:1017B0006900630072006F0065006C0065006300E3
:1017C000740072006F006E00690063007300000017
:1017D00010B409E050F8041B50F8042B51F8044BE6
:1017E00042F8044B1B1FF9D150F8043B002BF1D1F8
:1017F00010BC70473918000858010000040500208B
:1018000000000000D117000804010000BC18000807
:10181000000400200000000010B50548054CA0425F
:1018200004D050F8041B8847A042FAD110BD00BF75
:10183000F417000818180008002305E050F8041BEE
:1018400041F8043B121FFBD150F8042B002AF5D1BC
:10185000704700001603440065006D006F00200013
:1018600031002E00300030003000000000F024F87D
:10187000002801D0FFF7D0FF0020FFF7DDFD00F0CA
:1018800016F80000120100020200004083044057D5
:10189000000101020301000001491820ABBEFBE773
:1018A0002600020007463846FFF7F6FFFBE780B543
:1018B000FFF7F8BF0403090401207047040100008A
:1018C0000000000000000000000000000000000018
:1018D0000000000000000000000000000000000008
:1018E0004B0600089910000899100008991000088C
:1018F0009910000899100008991000089910000824
:1019000099100008150600089910000899100008A1
:10191000991000089910000800C20100000008009A
:10192000B418000804000000A817000826000000F2
:101930007417000832000000541800081600000058
:101940000000000000000000000000000000000097
:1019500000000000000000000000000099100008D6
:1019600099100008991000089910000899100008B3
:1019700099100008991000089910000899100008A3
:101980009F060008ED060008BD070008CD07000807
:10199000CF07000817080008590800083D0800088C
:1019A000430800084908000800000000400000004B
:1019B00084180008120000003017000843000000DF
:040000050800186D6A
:00000001FF
