:020000040800F2
:10800000803B0020512C0108592C01085D2C0108EF
:10801000612C0108652C0108692C01080000000092
:108020000000000000000000000000006D2C0108AE
:10803000712C010800000000752C0108792C010842
:108040007D2C0108812C0108852C0108892C010850
:108050008D2C0108912C01088DBF000891BF0008EC
:1080600095BF000899BF00089DBF0008952C010826
:10807000992C01089D2C0108A12C0108A52C0108B0
:10808000A92C0108AD2C0108B12C010899D60008D3
:1080900097D60008B52C0108B92C0108A1BF00082B
:1080A000BD2C0108C12C0108C52C0108C92C0108F0
:1080B000CD2C0108D12C0108D52C0108D92C0108A0
:1080C000DD2C0108E12C0108E52C0108E92C010850
:1080D000ED2C010843CD0008F12C0108F52C010816
:1080E000C7BF0008F92C01081DD7000800E000BF39
:1080F00008B14FF0FF307047FAE7F9E740F6E44087
:108100007047F5E7F4E7F3E700B10020704710B9D6
:108110001AB1106070474FF0FF30704770B50F24F0
:1081200002F00F03082908DA8D000668AC4026EA41
:108130000404AB402343036009E0A1F10805AD004E
:108140004668AC4026EA0404AB40234343609306F0
:1081500007D5012303FA01F1D20601D5016170BDF3
:10816000416170BD00F09FBD4004400C00F0C8BDEF
:108170004004400C00F0BDBD00F0F6BD00F085BE2F
:1081800000F0CBBD00F0CCBD00F0E4BD0020704796
:10819000002070470020704780B502F02FFFFFF7E6
:1081A000BDFFDFF8A00B002105F044FBDFF8980BC2
:1081B00005F0BEFB0021022005F07AFBDFF88C0BF6
:1081C00005F0ADFA00F017F8DFF8840B05F0B0FB0E
:1081D0000021042005F06CFBDFF88C0C05F09FFA01
:1081E000DFF8880C05F09BFA00F005F8DFF8801C3A
:1081F0000020087001BD0021012005F045BBF0B54D
:10820000A1B0FFF7C9FFDFF8680C0178002940F042
:10821000E58001210170FFF7EFFF0121042005F047
:1082200047FBDFF8447C384605F079FA06A805F0EC
:10823000EBFADFF8400C06904FF4807400200890B1
:1082400009900A904FF4806580200B904FF40056FF
:1082500000200E9010900C940D950F9606A93846AC
:1082600005F0B7FA0121384605F0DBFADFF8FC7BB0
:10827000384605F054FA06A805F0C6FADFF8F80B00
:1082800006900C940020089009900A900D9580208B
:108290000B900F9600200E90109006A9384605F01E
:1082A00098FA0121384605F0BCFA03A805F0E8FC6D
:1082B0000420ADF80C000020ADF80E000220ADF84F
:1082C00010000020ADF81200ADF8140003A9DFF88B
:1082D000806A304605F08EFC5021304605F0FFFCE8
:1082E0000421304605F018FD8021304605F018FDC8
:1082F00001222946304605F0E1FC01224FF40071CD
:10830000304605F0DBFC01220021304601858282E7
:108310000121304605F0BDFC0121084605F0B4FA04
:108320000121022005F0C4FADFF8206A304605F08A
:10833000F6F915A805F068FADFF8540C15901B94AF
:10834000102017901C9500201890199015A98020D6
:108350001A9000201D904FF480501E9000201F9016
:10836000304605F036FA0121304605F05AFA00A8E9
:1083700005F073FC05F06BFF05F0B0FB11A805F0EC
:1083800075FC6020ADF8440011A90120ADF846004D
:108390000020ADF84A000220ADF84C00204605F060
:1083A000E3FB0821204605F0A9FC0121204605F049
:1083B0009BFC02F0EDFD05F081FC0121204605F05B
:1083C00068FC0121204605F06EFC0121DFF87409EC
:1083D00005F030FA05F064FFFFF7A0FE21B0F0BD14
:1083E00070B504464FF48035DFF8A80B006800052F
:1083F00005D40120FFF7BCFE6D1EF5D13DE00A203B
:10840000FFF7B2FEDFF8902BDFF8903B506C40088E
:10841000400050644FF6FF710220906413654FF4E2
:108420007F45506C40F001005064DFF8740B01830D
:1084300001210180DFF86C1B0D8000254D80012596
:108440000580D56E6D086D00D566022515679167AC
:10845000D56E45F00105D5661568AD02FCD54FF423
:1084600000155560DFF8405B1668B60401D46D1E38
:10847000FAD14FF4005656600DB9012070BD5A88EC
:10848000DFF8DC3C93FBF2F3238093009C0903EBC1
:108490005464E4092546A3EBC414402CA8BF6D1C0A
:1084A0000D2353439C114D8403EB5464E411254682
:1084B000A3EBC414402CA8BF6D1C02EBC2039C119B
:1084C00003EB5463DB110D848B84122151438A1119
:1084D00001EB5261C911018301210180002070BDAF
:1084E0002DE9F04F044685B0904614F00F0000F0DF
:1084F000E580C200230448BF521CDFF89C6ADFF805
:108500009C9A736CDFF89C5ADFF894AA5B085B00B6
:10851000736492B2B264CDF80890C6F850904FF4EC
:108520000017726C42F001027264ADF80C00002278
:1085300000951FE023F8020BAEF101004FFA80FE18
:10854000BEF1000F20D5002023F8020B0120AAF86D
:108550000000F06E40084000F06609203067009887
:10856000B067F06E40F00100F06630688002FCD524
:108570007760521CBDF80C0092B282420DD212F804
:1085800001C02B464FF0070E012000FA0EF01CEA46
:10859000000F14BF688C288CCCE7C4F3811B16E055
:1085A0002021284609F0DEFD0120AAF80000F06E27
:1085B00040084000F066102030670098B067F06E09
:1085C00040F00100F06630688002FCD577605846C4
:1085D000A0F1010B80B20028E2D1DFF8CC090246FD
:1085E0003168890401D4521EFAD14FF400517160F0
:1085F000002A63D0C4F303220192002A5BD0002238
:10860000D6F844C04FEA5C0C4FEA4C0CC6F844C0A4
:1086100002EB08034FF0080CC6F848C02C46DDF802
:1086200008C0C6F850C0D6F844C04CF0010CC6F8DB
:1086300044C04FF0080CB5F822E024F802EBBCF17E
:10864000010CF8D1A4F800C00124AAF80040F46E8F
:1086500064086400F46609243467009CB467F46E0F
:1086600044F00104F4663468A402FCD57760044643
:10867000D6F800C05FEA8C4C01D4641EF8D171605A
:10868000E4B1002493F800C04FEA4C0C83F800C01A
:1086900039F814E0B5F824B0DE453CBF4CF0010CCD
:1086A00083F800C0641C082CECDB019B521C92B2C6
:1086B0009BB29A42A4D3002006F005BE0120FBE73E
:1086C00080B518B9FFF79BFD002002BD05E080B51D
:1086D00018B9FFF761FD002002BD4FF0FF3002BD69
:1086E00080B520B90846FFF77BFE10B1BFE14FF01F
:1086F000FF3002BD10B514461A4688B90498002808
:1087000014BF4FF400430023029844EA0024039866
:1087100044EA80101843FFF7E3FE18B101F08ABD68
:108720004FF0FF3010BDC16882688A4201D3501AF1
:1087300070474068401A1018704710B54468FFF73A
:10874000F2FF201A18BF401E10BD2DE9F04104466B
:108750000D469046FFF7F1FFA84238BF002020D316
:10876000A06861680F1A21684018AF420CD23A46DF
:10877000414609F0FAFCEE1B2068324607EB08017F
:1087800009F0F3FCA6600BE02A46414609F0EDFC37
:10879000A0682818A0606168884204BF0020A0601B
:1087A0002846BDE8F081F8B504460E461746FFF7A7
:1087B000BAFF0546B54288BF3546E06861680E1AC3
:1087C00021684118AE4207D23246384609F0CDFC46
:1087D0002168AA1BF01901E02A46384609F0C5FCB9
:1087E0000DB90020F2BDE06861680A1AAA4238BFDC
:1087F000A81A03D32818884208BF0020E060284642
:10880000F2BD2DE9F041DFF8585C804600F0DFF85A
:108810002E6100F0DFF84FF40060686100F0D2F8DC
:1088200000F0D7F82E6100F0D5F800F0D2F82E61F4
:1088300000F0D0F800F0CDF82E6100F0CBF800F099
:10884000C8F82E6100F0C6F8382200F0BCF800F03D
:10885000C0F82E6100F0BEF800F0BCF8A868000572
:10886000F5D5002708247F0800F0B3F82E6100F04A
:10887000B1F8A868000548BF47F08007641EF2D130
:1088800088F800703AE02DE9F041DFF8D45B044647
:1088900000F09DF82E6100F09DF800F090F800F0D7
:1088A00098F82E6100F096F86F6100F092F82E6152
:1088B00000F090F800F08DF82E6100F08BF800F0D9
:1088C00088F82E6100F086F84FF00808E0074CBFEA
:1088D0002F616F6100F07DF82E6100F07BF8640875
:1088E000B8F10108F2D1382200F06DF800F071F80B
:1088F0002E6100F06FF8A8680005F7D500F069F860
:108900002E6100F067F80020BDE8F08138B570B93D
:1089100000F01BF84FF40055656103220D2100F0B3
:1089200018F80120FFF720FC2561002032BD00F07F
:108930009ABE10B538B900F008F804220D2100F0F5
:1089400008F8002010BD00F03DBCDFF8144B3822C1
:108950000B212046FFF7E2BB2DE9F0410C46002831
:1089600029D100F073F82E6100F034F800F027F8F8
:1089700000F02FF82E6100F02DF800F02AF82E619B
:1089800000F028F84FF00808E0074CBF2F616F6136
:1089900000F01FF82E6100F01DF86408B8F101081E
:1089A000F2D1382200F00FF800F013F82E6100F039
:1089B00011F8002001E04FF0FF30BDE8F0814FF4E6
:1089C00000672F6103220B212846FFF7A7BB4FF456
:1089D00000566E610020FFF7CBBB2DE9F0418846C1
:1089E00000282FD100F032F82E61FFF7F3FF4FF48B
:1089F00000676F61FFF7E6FFFFF7EBFF2E61FFF700
:108A0000E9FF2F61FFF7E5FF2E61FFF7E3FF382253
:108A1000FFF7D9FF002708247F08FFF7DAFF2E6150
:108A2000FFF7D8FFA868000548BF47F08007641E1D
:108A3000F2D188F80070FFF7CCFF2E61FFF7CAFF74
:108A4000002001E04FF0FF30BDE8F081DFF8105A60
:108A50004FF400566E61FFF78BBB80B520B9084616
:108A6000FFF7CFFE10B102E04FF0FF3002BD6FF014
:108A7000050002BD80B520B90878FFF704FF10B1EA
:108A8000F5E74FF0FF3002BD002808BF02F015BE29
:108A900003E0002808BF02F01EBE4FF0FF30704711
:108AA000002808BF02F028BEF7E7002808BF02F040
:108AB00053BEF2E7002808BF02F059BEEDE70020E0
:108AC0007047DFF8E00BDFF8E02C016801F4E061AB
:108AD00011430160BFF34F8FFEE780F30888002049
:108AE000704701220021824201D10846704752009E
:108AF000491C1F29F7D30020704738B50100DFF863
:108B0000A84B03D02046282209F056FB207818B144
:108B1000022807D003D308E0DFF8901B04E0DFF859
:108B2000901B01E0DFF88C1B6162DFF84C5CDFF822
:108B30004C2C296841F00101296069681140696085
:108B4000DFF83C2C2968114029600128296821F4AC
:108B500080212960696821F4FE0169604FF41F01DA
:108B6000A9601CBF6078002804D001281CBFA07831
:108B7000002810D1286840F480302860E078002870
:108B800028680CBF40F4802020F4802028602868EA
:108B90008003FCD503E0286820F480302860122090
:108BA000DFF8081C086068686FF30D106860E16802
:108BB000606A00F068F830B16968401E40F0080053
:108BC00041EA00106860606A216900F05CF830B129
:108BD0006968401E40F0040041EA00206860606A55
:108BE000616900F050F830B16968421E42F0040239
:108BF00041EAC2216960A16831B3696821F47C113E
:108C00006960617819B102290DD005D30DE0606863
:108C1000696841F4803104E060686968400841F4A3
:108C20004031696001E0DFF8440C6968A268B2FB7A
:108C3000F0F0801E41EA80406860286840F0807053
:108C4000286028688001FCD568688008800068601A
:108C5000686840F0020068606868C0F3810002281C
:108C6000FAD1A86940F00100A861DFF8040C01689E
:108C700094F8202041EA02610160E069DFF8CC1C31
:108C80000860002032BDB0FBF1F02AE710B50C46B9
:108C900040B10D2C28BF0C242246DFF8F81C09F047
:108CA00064FA204610BDDFF8F00C042101600021B9
:108CB00002F0DABCDFF8E01C04220A6000228A60BD
:108CC00000280CE04A600B6843F001030B600B685E
:108CD000DB03FCD504230B6000238B60801A06D0D5
:108CE000B0F1807F2CBF6FF07F420246EAE70020A0
:108CF000704780B5DFF8B019DFF8A02C496A05E0AD
:108D000080B5DFF8A419496A4FF47A72B1FBF2F129
:108D10004843FFF7CFFF002002BD80B5012101E0ED
:108D200080B50021DFF8E80C04F0B3FF002002BD9D
:108D3000DFF86C0CDFF8DC1C0088098840EA014091
:108D40007047000000081A00000400406C00024058
:108D50000008004010B5FFF7EBFF0446FFF7E8FFFF
:108D60008442F8D1204610BD3EB501214FF4006089
:108D700004F094FD0121012004F09AFD0121082056
:108D800004F096FDDFF8885C284604F0D1FD4FF032
:108D9000804004F0CDFDDFF8804C204604F0C8FD93
:108DA00000A804F05AFF0120ADF800004FF47A71DA
:108DB0000020ADF80200DFF8F00840694008B0FB81
:108DC000F1F0ADF8040000A90020ADF806008DF820
:108DD0000800284604F082FE2021284604F093FF74
:108DE0008021284604F09CFF00A804F036FF00F024
:108DF00045F84FF6FF75ADF8045000A94FF08040DC
:108E000004F06CFE07214FF0804004F085FF002144
:108E10004FF0804004F05AFF20214FF0804004F0D2
:108E200072FF80214FF0804004F07AFF01214FF063
:108E3000804004F02EFF00A804F00FFF00F01EF8A1
:108E4000ADF8045000A9204604F048FE0721204652
:108E500004F062FF0021204604F038FF0121204683
:108E600004F017FF00203EBD44000240080002400D
:108E70007E37002038080040340800400020009071
:108E8000ADF806008DF80800704780B500214FF45A
:108E9000006004F003FD0021012004F009FD002121
:108EA000082004F005FD002002BD80B538B901207E
:108EB00003F0E6FB102003F0E3FB002002BDFFF708
:108EC0000CBC80B538B9012003F012FC102003F06F
:108ED0000FFC002002BDFFF700BC30B585B00C468A
:108EE000154610BB02A9012003F081FC60B900A95E
:108EF000102003F07CFC38B900980399884222BF07
:108F000002980199884202D26FF006000FE045F006
:108F100004022146012003F083FC01F058F92A469F
:108F2000102003F07DFC002001E04FF0FF3005B081
:108F300030BDF0B550BB069C0598DFF8206CDFF81B
:108F4000907C002511E0A6F804C0B6F800C05FEAE6
:108F50000C6CFAD418B1B7F800C000F801CB1AB104
:108F6000B6F804C002F801CB6D1CB5EBD40F0BD2E0
:108F70001BB113F801CBA7F800C0002914BF11F8EA
:108F800001CB4FF0000CDEE70020F0BD03F0D5B8B8
:108F900034040040080C014000000240103500205D
:108FA0001404004018370020FFFF0F00FFF7A0B89F
:108FB000FFF79EB82DE9F0470C4615461E460028DF
:108FC00040F0C98005EA0400DFF8081C084203BF2E
:108FD00024EA0500DFF8001C08426FF0060040F0AC
:108FE000BC80089FDFF87884E00721D5E80715D515
:108FF0004FF40069F00709D5072200F0B3F8F8072D
:1090000054BFC8F81490C8F8109011E0F8074CBF8E
:10901000C8F81090C8F81490032207E0F00704D5B0
:10902000F80754BF2822382200E0042200F09AF802
:109030004FF48069A00714D5A80707D5B8074CBF1F
:10904000C8F81090C8F81490032207E0B00704D5C0
:10905000B80754BF2822382200E004220A2100F079
:1090600082F8A00516D5A80509D5B80547BF402048
:10907000C8F810004020C8F81400032207E0B0052B
:1090800004D5B80554BF2822382200E00422062166
:1090900000F069F8E0050FD5E80509D5F80547BFE8
:1090A0001020C8F810001020C8F81400032200E0B7
:1090B0000422042100F057F8DFF834AC600717D51C
:1090C000680709D54FF4007079074CBFCAF8100043
:1090D000CAF81400032207E0700704D5780754BFCC
:1090E0002822382200E0042209215046FFF716F812
:1090F000200715D5280707D538074CBFCAF81090A8
:10910000CAF81490032207E0300704D5380754BF8B
:109110002822382200E004220A215046FEF7FEFFF2
:10912000E00603D503220D2100F01DF8600603D5EB
:1091300003220F2100F017F8A00603D504220E2108
:1091400000F011F8200604D5042208215046FEF74D
:10915000E5FF002001E04FF0FF30BDE8F0870000A0
:1091600000A08C000B214046FEF7D8BF10B548BBCD
:10917000DFF8800BCA0744BF4FF4006202604FF46F
:1091800080628B0748BF02608B0544BF40230360A9
:10919000CB0544BF10230360DFF85C3B4C0744BFA2
:1091A0004FF400741C600C0748BF1A60CA0644BF25
:1091B0004FF400520260490644BF4FF40041016081
:1091C000002010BD4FF0FF3010BD10B548BBDFF8D8
:1091D0002C0BCA0744BF4FF4006202604FF4806258
:1091E0008B0748BF02608B0544BF40230360CB055B
:1091F00044BF10230360DFF8083B4C0744BF4FF423
:1092000000741C600C0748BF1A60CA0644BF4FF4C4
:1092100000520260490644BF4FF400410160002043
:1092200010BDCFE770B5002848D1880A800201D070
:1092300001F0B4BFDFF8C40ACB0705D54FF40063D3
:10924000D4074CBF036043604FF480638C0703D5A1
:1092500094074CBF036043608C0505D5940547BF58
:109260004024046040244460CC0505D5D40547BFA4
:109270001024046010244460DFF8844A4D0705D5AB
:109280004FF4007556074CBF256065600D0703D588
:1092900015074CBF23606360CB0605D54FF4005320
:1092A000D4064CBF03604360490605D54FF4004126
:1092B00052064CBF01604160002070BD01F0E0B873
:1092C00030B5002845D1DFF81009014201D002F085
:1092D000B3BC0023DFF82C0ACC0703D504682405AF
:1092E00048BF01238C0704D50468640548BF43F0D8
:1092F00002038C0504D50468640648BF43F4007378
:10930000CC0504D50468640648BF43F48073DFF8D5
:10931000244D4D0704D52568AD0548BF43F004032F
:109320000D0704D525686D0548BF43F008038D0679
:1093300004D50068400448BF43F02003080604D564
:109340002068C00548BF43F0800302B113600020CD
:1093500030BD02F074BC38B50024DFF8DC5CDFF807
:10936000A4090068C0060CD4A888FEF701FFA888ED
:1093700004196888A4B20028F1D08442EFD30220F7
:1093800032BD002032BD38B50024DFF8AC5CDFF818
:109390007409006840040CD4A888FEF7E9FEA88888
:1093A00004196888A4B20028F1D08442EFD30220C7
:1093B00032BD002032BDF8B5DFF84859DFF8787CBF
:1093C0004FF48046AE6000243888FEF7D1FE1020AE
:1093D000A860FFF7C0FFB8B9FFF7D5FFB0B12868A4
:1093E000400413D4388800F082F81020E8603888F0
:1093F00000F07DF81020A860FFF7ADFF20B92046EF
:10940000441CC0B20A28EADB0220F2BD388800F012
:109410006EF8EE60388800F06AF81020E8600020EE
:10942000F2BD70B5DFF8D448DFF80C5C1020606046
:109430002888FEF79DFE4FF4804666602888FEF778
:1094400097FE10202060FFF786FF30B9288800F0D3
:109450004EF82660FFF797FF00B1022070BD0000B4
:10946000000C01402DE9F041804608244FF480456E
:10947000DFF8C46BDFF88C7800F0BAF85FEA0860B8
:1094800004D5BD60FFF77FFF08B11AE0FD603088AA
:109490004FEA4808FEF76CFE1020B860FFF75BFF4C
:1094A00078B900F023F81020F860641EE4D100F0D1
:1094B0009FF8BD6000F09CF81020B860FFF74BFFEC
:1094C00008B1022010E000F011F8F0883968490472
:1094D00005D51021F960FEF74BFE012004E01021B4
:1094E000F960FEF745FE0020BDE8F08130884004B9
:1094F000000CFEF73DBE2DE9F74F0D9D0446002000
:1095000098462880FFF757FF48B944F00100FFF75D
:10951000A9FF00284FF48049DFF81C6B0DD0FFF73E
:1095200080FF032062E0FFF7E1FF1020E060F08899
:10953000FEF71EFE2888401C28802888BDF80810E9
:10954000884246D29DF8301039B1BDF80810491E46
:10955000884208BF4FF0010B01D04FF0000B01997A
:10956000DFF8A047471800203870C4F808904FF083
:10957000080AFFF7BBFF1020A060FFF7ECFE20BB3E
:10958000FFF7B4FF3878400038702168490444BFC1
:1095900040F0010038701020E060BAF1010AE8D113
:1095A00000F026F8BBF1000F05D0C4F80890FFF7D3
:1095B000EAFE50B901E0C4F80C9000F019F8102050
:1095C000A060FFF7C8FE0028ADD0FFF72AFF0220F9
:1095D0000CE0B8F1010F08D1FFF723FF2888BDF890
:1095E0000810884238BF012000D30020BDE8FE8F5C
:1095F0003088FEF7BDBD80B5DFF80007102101609F
:109600004FF480410160FFF7A6FE10B9FFF7BBFEE3
:1096100000B1012002BD10B568B9DFF8A44C0722E3
:1096200004212046FEF77AFD07220E212046FEF790
:1096300075FD002010BDC5E538B5A0B9FFF7DBFF0B
:1096400000280CBF00246FF00504DFF8745C0422CE
:1096500004212846FEF762FD04220E212846FEF76B
:109660005DFD204632BD4FF0FF3032BD80B5B0B950
:109670004FF47A7090FBF1F080B2810801D100B113
:109680000121DFF8B409018003B9012301214380DE
:109690008180C280FFF7AFFF18B1FFF7E8B94FF044
:1096A000FF3002BD0CED00E09413002000127A00A0
:1096B000001BB70000A24A0410B50400084611467A
:1096C00084B01A460DD1069B03B1012302AC01946C
:1096D000C0B2079C0094FFF70EFF20B16FF00500A9
:1096E00001E04FF0FF3004B010BD2DE9F0410C4611
:1096F0001546984620BB069F07B101270026FFF7B5
:109700005AFE20B904F0FE00FFF7ACFE20B1FFF7CF
:1097100088FE6FF0050015E0B6B2464507D2705DD1
:10972000FFF7A0FE0228F2D0761C0128F4D1012F09
:1097300008BFFFF776FEB0B24045EAD3002001E053
:109740004FF0FF30BDE8F0810020704738B5DFF8FA
:10975000AC454FF40061002814BF216061604FF4F4
:10976000005525600020FEF703FD65600020BDE880
:109770003240FEF7FDBC0000001002400000FFF880
:10978000FFFFF6FE70B5DFF87C454FF40055A5608D
:1097900000202668FEF7ECFCE5600020FEF7E8FC00
:1097A000F00A00F0010070BD0400FA05002002403C
:1097B0002DE9F04104460F461646DFF8048B1D469E
:1097C00000F03DF80120FFF7C1FF2046FFF7BEFF84
:1097D0002846FFF7BBFF082407F08000FFF7B6FF1D
:1097E0007F00641EF8D175B100F024F800260A2429
:1097F000FFF7C8FF40EA4606641EF9D100F01FF8E3
:109800000127069C0CE0082406F08000FFF79EFF6D
:109810007600641EF8D10327F3E72046FFF796FF92
:109820003846471EC0B20028F7D100F003F8F0B266
:10983000BDE8F08128220B214046FEF76FBC0322D1
:109840000B214046FEF76ABC38B5DFF8744A00F0D9
:10985000E5F816250020FFF779FF6D1EFAD12046A6
:10986000BDE8384028220B21FEF758BC00093D0016
:109870000400014030B583B00C46002862D101A934
:1098800001F0DDFA28B93CB9BDF80400B0F5E16F8C
:1098900002DD6FF005003EBDDFF8245A00F058F8F5
:1098A000012C0ED101F063FA00F07CF84FF48064D3
:1098B0002C6103220A2100F04DF800F073F86C616E
:1098C00022E00CBB282200F044F800F06EF800F013
:1098D00069F800224FF48071012002F091FD01220D
:1098E0000821012002F0E6FC0520FEF73DFC4FF4C4
:1098F0007A7402E00A20FEF73BFCA868000501D557
:10990000641EF7D100F024F84FF400506861032280
:109910000D2100F01FF80020009002460023502186
:109920000120FFF745FFFFF78FFFFFF78DFFFFF7E0
:109930008BFFFFF789FFFFF787FF282200F009F868
:1099400000203EBD4FF0FF303EBD000008ED00E0BE
:1099500003220B212846FEF7E1BB10B5C0B9DFF8A2
:10996000604901290DD14FF48060206100F01AF8A0
:1099700038220A2100F054F800F06CF801F016FAD1
:1099800004E019B900F011F800F064F8002010BDEF
:1099900018E40000E8F7FF1F10E000E040420F006D
:1099A000240000400120FEF7DFBB04220821012033
:1099B00002F080BC38B548BBDFF80449282200F02B
:1099C0002EF8FFF7DFFE6425A068000505D40A2005
:1099D000FEF7CEFB6D1EF7D109E042F21075A068CC
:1099E000000506D50A20FEF7C3FB6D1EF7D107F070
:1099F00058B94FF40060606100F010F8282400208E
:109A0000FFF7A4FE641EFAD1002032BD2BE6000051
:109A1000002C0140240C0040000C004003220B21CC
:109A20002046FEF77BBB002808BF00F002B8FFF716
:109A300034B810B560B900F007FE38220A21FFF7EC
:109A4000EFFF2822FFF7EBFF00F004F8002010BD25
:109A5000FFF7B8BB04220D212046FEF75FBB10B50F
:109A60000C46114682B01A46B8B9200702D5FFF756
:109A7000EBFE10E004F0010004F00403A4070093DF
:109A800006D50123FFF794FE049921B1087002E086
:109A90000023FFF78DFE002016BD02F0C5BA70B599
:109AA00004464FF47A75DFF88C6504E0C0050AD4EB
:109AB0000120FEF75DFB2846451E20B13068002CD2
:109AC000F4D1C005F4D470BDDFF81C0CDFF8002D14
:109AD000806913684FF400519B0402D5916010B95E
:109AE00009E0516030B14FF4FA7191FBF0F080B2AF
:109AF000FEF73EBB0120D2E72DE9F84FDFF8EC6B13
:109B0000804FB6F80090044600200D4630804FF09C
:109B100008084FF4004A30884FEA500BA6F800B00E
:109B2000E0074CBFC7F808A0C7F80CA0E80747BF7C
:109B30001020B8601020F860FFF7C6FFFFF7C4FFE1
:109B40003868400444BF4BF08000308064086D08E2
:109B5000B8F10108DFD14846BDE8F28F083800406F
:109B60002DE9F14F8B4690469A460024654E4FF4FE
:109B700000470CE0FFF7A8FFFFF7A6FF306840049E
:109B800004D519F80A00284309F80A00641C009853
:109B900084421AD2012004F007018840C5B24FEA7E
:109BA000D409012D04BF002009F80A0019F80B00A0
:109BB000284214BFB760F76019F80800284219BF9F
:109BC0001020B0601020F060D4E7BDE8F18F0000F5
:109BD0000C300140A0FCFFFF50FCFFFF2DE9F84FC7
:109BE00080464FEA48300D4616461F46040C4FF497
:109BF00000592CD0DFF8100CDFF8102C84640765B6
:109C0000416C41F0010141644463C663016B41F062
:109C100001010163002113889B07FCD54B5D9380F4
:109C2000491C89B2A142F6DB01688904FCD5C0F861
:109C3000049001688905FCD54FF400714160416CC6
:109C4000490849004164016B49084900016318F063
:109C5000070F39D00021DFF8B8AB504603F056FEAD
:109C6000DFF85CB60322CBF8109000F02FF8042246
:109C70000E2100F02CF803220F2100F028F8032217
:109C8000042100F024F8E319A219611908F0070073
:109C9000FFF766FF0121504603F038FE0B2200F06B
:109CA00015F80B220E2100F012F80B220F2100F004
:109CB0000EF80B22032100F00AF85846BDE8F84FD1
:109CC0000B220421FEF72ABABDE8F18F0D21584678
:109CD000FEF724BA10B5DFF8343B1A88D207FCD55A
:109CE000DFF8984C9A8821809880104610BD0000BB
:109CF00000080140140C014014080140100C014000
:109D000010080140080C01402DE9F34F87B09B4635
:109D1000139DDDF848900BEB050080B200F00701C1
:109D2000C008401C80B205904FF0000AC846164695
:109D3000ADF808A0009118F0070005D0012008F048
:109D400007018840401E03E0B8F1000F18BFFF2054
:109D5000C0B20390DFF89049607BC0B1217B00EB7B
:109D60000B02092A0DDB06FA00F001432173C9B288
:109D7000626900209047607BC0F10801CE4008383E
:109D800002E001FA0BF10E43834484F80DA0F1B216
:109D90000098149E5FFA8BFBC0F1080000275A461A
:109DA0008DF80A000DE0DDF80CC00CEA0000DDF8CB
:109DB0001CC0884603F80C00BDF80800401CADF834
:109DC0000800BDF80800059BC01A09EB050E80B21B
:109DD000B6440490BEF1010FC0F2D980EDB16AB172
:109DE000C2F1080E7545A3BFC2F1000EA6449EF84D
:109DF0000800285D00FA0BF0C7B203E0082DACBFE5
:109E0000FF272F5D5019092843DAAA18D2B200257E
:109E10009346BBF1080F08BFAB46B9F1000F2BD03A
:109E2000082A29DADDF820C0BCF1000F17D0BAF1FA
:109E3000000F09D0D444CBF1080E1CF8010C20FA15
:109E40000EF0C7B2CB4506DA08981AF8000000FAFF
:109E50000BF03843C7B20AF101001FFA80FA02EB97
:109E60000903092B19DA4A44D2B293464FF000098C
:109E7000BBF1080F08BFCB4646B3082A26DAB2B1B9
:109E8000C2F108039E42A3BF53421B191B7A335DE4
:109E900007E0A2F10800451917E0A2F1080081448B
:109EA00013E003FA0BF343EA0700C7B203E0082EFE
:109EB000ACBFFF27375D9019092803DAB218D2B278
:109EC000002603E0A2F1080086190822EDB21FFA6D
:109ED00089F909EB0500F6B2301804D10120521EB1
:109EE00090400143C9B2626938469047079B0022FF
:109EF0000021C0B2002B3FF464AFB8F1000F45D091
:109F0000DDF814C0BDF808301FFA8CFC63453DD362
:109F1000049B3BB3DDF81CC003EB0C0ECDF804E052
:109F20001EF801CC9DF90AE000FA0EFE4EEA0C0C78
:109F3000DDF804E00EF801CCDDF800E0C64504DAF7
:109F4000A8EB0E081FFA88F808E0DDF80CE00EEA2E
:109F50000C0CDDF804E088460EF801CCDDF800C0FA
:109F6000C44513DADDF800C020FA0CF0DDF81CC09F
:109F700003F80C00DDF800C0CCF1080CC445BFF6B6
:109F800012AF0098404408381FFA80F814E7C02048
:109F9000159F07F0070120FA07F5062905DA62691F
:109FA000A9B200209047C6B20CE0C7F1080100FA40
:109FB00001F1626989B200209047C6B26269A9B214
:109FC000002090470798002818BFB8F1000F21D053
:109FD000049BA3B1181801909DF90A1010F8010C08
:109FE00006FA01F10843019901F8010C0099414575
:109FF00005DB03990840019901F8010C0AE000987B
:10A00000079946FA00F0585407980399185C0840DD
:10A01000079958544FEAD70903E0626900210020EC
:10A0200090474846411E5FFA81F90028F5D105F0B6
:10A03000E2BF0000080801406437002080B5DFF867
:10A04000C80B03F06CFBDFF8C40B03F068FBDFF810
:10A05000C00B03F064FB0021012003F015FCDFF8C6
:10A0600088164FF0FF308861012002F041FB10207C
:10A0700002F03EFB002002BD2DE9F0438FB0074601
:10A080000E4602A9012002F0B2FB60B900A910201F
:10A0900002F0ADFB38B903980099814222BF0199C3
:10A0A000029A8A4202D26FF006008DE0814228BFF8
:10A0B00008464FF47A71B0FBF1F9FFF7BFFF4F4547
:10A0C00006D3012002F0DCFA102002F0D9FA16E0E3
:10A0D0007B4C00F0B3FA00F080F804220E2100F06F
:10A0E0007CF803220F2100F078F80322042100F00D
:10A0F00074F804220821DFF8000CFEF70FF8DFF8EF
:10A10000E845A7614F450BD387223946012002F06D
:10A1100087FB00F05CF88322102002F081FB03E053
:10A1200017B90120FFF7BBFCDFF8E456DFF8708CAD
:10A13000DFF8700C4EB97F21A9810021A8F80C101E
:10A140004F453FD3DFF8600C3CE0DFF87C1C012E6C
:10A1500037D14F4533D30121012003F095FBDFF8C0
:10A160006C0C049004A900200590069007900890BC
:10A170008020099000200A900B900C904FF44050E2
:10A180000D9000200E90DFF8800A03F022FBDFF82C
:10A19000EC07049004A910200690DFF8740A03F07D
:10A1A00018FB01221146404603F0BAFB01220221AE
:10A1B000284603F0B5FBDFF89C0C206103E0216129
:10A1C00001E02161606100200FB0BDE8F0830098DC
:10A1D0004FF47A71B0FBF1F170472046FDF79EBF56
:10A1E000FDF786BF002808BFFFF728BFFEF755BC64
:10A1F0000A4600B930E1FEF750BC58B9DFF8580CF8
:10A200000A7802604A7842604A8882608988C16020
:10A2100000207047FEF741BC10B5144638B9FFF76F
:10A22000E7FF18B92146FFF7E8FF10B102E04FF051
:10A23000FF3010BD6FF0050010BD38B50C46154657
:10A2400088B905E014F8011B526900209047083DC9
:10A25000EDB2DFF89424082DF4DA15B155732078A7
:10A260001073002032BDFFF7FEB930B589B00C463F
:10A27000C8B92022002100A807F0C9FF00E0641B34
:10A280007CB1B4F5807F8CBF4FF48075E5B22A466F
:10A2900000A90020FFF7D1FF0028F0D06FF00500E3
:10A2A00003E0002001E04FF0FF3009B030BD20B9DD
:10A2B000DFF8A40B026102F0A0B8FEF7EEBB0000CD
:10A2C000000C01402DE9F0450C461746F91D4D03E1
:10A2D00087B09A4600284FD1DFF87C6BB0612D0C17
:10A2E000052DACBF04222A46214606F1180007F0CE
:10A2F0003CFFD6F814C000F09CF80DD004A80290E2
:10A300000195009406F11C03B26900210020E0478A
:10A3100028BBBDF8100008B9A04601E006F11C08F2
:10A32000F068CDF80CA0C0B2029000970423B0688A
:10A33000C0B20190032241464046FFF7E5FC0E986B
:10A34000C0B100F074F810D004A802900195CDF8C7
:10A3500000802346B26900210020E04710B16FF071
:10A3600005000BE0BDF8100020B92A464146204602
:10A3700007F0FBFE002001E04FF0FF3007B0BDE822
:10A38000F0852DE9F04388461446E11DCD1085B0D7
:10A390009946002840D1DFF8C06A7769ADF810000F
:10A3A00038000CD000F03DF8CDF8008006F11C0319
:10A3B00001210020B84710BBBDF8100008B947467E
:10A3C00001E006F11C077068CDF80C90C0B2029055
:10A3D00003233068C0B20190009401223946384608
:10A3E000FFF792FC0C98A8B100F021F80DD000F016
:10A3F00018F80097434601210020E04710B16FF0A4
:10A4000005000BE0BDF8100020B9AAB2394640465D
:10A4100007F0ABFE002001E04FF0FF3005B0BDE8D3
:10A42000F08304A80290ADB2B26901957047D6F8E6
:10A4300010C00020ADF81000BCF1000F7047FDF710
:10A4400057BE002808BFFFF7F9BDFEF726BB0A4636
:10A4500000B901E0FEF721BB002110460CE670B503
:10A460000C46154660B9002605E09F4A315D5269E9
:10A4700000209047761CB6B2AE42F6D3002070BDE5
:10A480004FF0FF3070BD38B50C46154630B1FFF7C0
:10A49000EAB8954A52692946002090472046441E52
:10A4A0000028F6D132BD2DE9F8460C46D11DCF105B
:10A4B000002839D114B96FF0080037E00BB147F428
:10A4C000004700260025DFF82092380409D50899B6
:10A4D0002078D9F8142090477804400C01250126F3
:10A4E000471EA7F1010A06E0002190476D1C0EB13E
:10A4F00007F8010C761C5146ADB2A1F1010AB6B2C3
:10A50000285DD9F81420371989B20029ECD10999AE
:10A5100090470EB107F8010C0A99D9F814200020D1
:10A5200090473055002001E04FF0FF30BDE8F28643
:10A53000FDF7DEBD002808BFFFF780BDFEF7ADBA0E
:10A540000A4608B9012188E7FEF7A7BA10B568B92D
:10A55000002918BF002A00D013B96FF0080010BD01
:10A56000614C02982469A047002010BDFEF72ABE66
:10A570002DE9F041044688460026DFF8D87C4FF4E8
:10A58000005503E0015500F043F8761CB6EBC80F08
:10A590000FD2FD6000F03CF8F008BD600122015DC3
:10A5A00006F007039A403B681B054CBF11439143DB
:10A5B000E8E7BDE8F0812DE9F84380468946DFF8F9
:10A5C000986C03220B213046FDF7A8FD00254FF4BF
:10A5D00000674FF4005405E000F01AF8346100F011
:10A5E00017F86D1CB5EBC90F0BD2E808746105F0C4
:10A5F000070110F80800C840C0074CBF37617761F9
:10A60000EAE73046BDE8F84338220B21FDF786BD66
:10A610000020FDF7ADBD10B570B900F015F80322AC
:10A6200000F02AF800F00AF800F027F84FF4006074
:10A63000206103220B2123E0FEF7C4BD4FF400503C
:10A64000206103220D217047DFF80C4C4FF480602D
:10A650006061704710B568B900F0A8FBDFF8F84BEF
:10A66000382200F009F838220B2100F006F8042205
:10A670000D2105E0FEF7A6BD0A212046FDF74EBDDF
:10A68000FFF7FBFF002010BD70B582B048BB00A9EA
:10A6900000F0D5FB20B9BDF80000B0F5E16F01DD99
:10A6A00000F076BE00F063FB0A20FDF75DFD072495
:10A6B0004FF48065DFF8A06B35610120FDF758FD90
:10A6C00075610120FDF754FD641EF5D135616420EC
:10A6D000FDF74AFD38220B213046FDF71FFD002013
:10A6E00076BD00F058BE0000E01400207C3700204A
:10A6F00080B50B46114620B91846FFF739FF0020F8
:10A7000002BDFDF7EABF80B50B46114620B91846D9
:10A71000FFF751FF002002BDFDF7DFBFF0B583B0AA
:10A7200016461F4628BB099C089D8DF8011020463F
:10A73000441E80B2C0B101210DF10100FFF73BFFC3
:10A74000012100A8FFF714FF37B19DF80000384041
:10A75000B84201D1002008E0002DE8D09DF80000AB
:10A760002842E4D1012000E0022006B13070002030
:10A77000FEBD4FF0FF30FEBD10B50020FEF7BDF965
:10A78000DFF8004C606AD0F834028047606AD0F885
:10A790003C02804704F052FA04F011FBFCE7DFF8BA
:10A7A000E82BDFF8E80B12784FF480610AB1016002
:10A7B000704741607047DFF8D02BDFF8D00B12787C
:10A7C0004FF480610AB1416070470160704700003A
:10A7D0000C0C014070B5DFF8B44B4FF40041002879
:10A7E00014BF21606160DFF8A05B6888FDF7C0FCE2
:10A7F0004FF40056266000F079F866606888BDE87E
:10A800007040FDF7B5BC0000000002400838004071
:10A81000003001402DE9F04782B0074688461446D3
:10A820001E46FFF7BCFF0120FFF7D4FF00254FF0C5
:10A83000010908E0A8F10100401B09FA00F03840C6
:10A84000FFF7C8FF6D1CADB24545F3D3002707E005
:10A85000701EC01B09FA00F02040FFF7BBFF7F1CF1
:10A86000BFB2B742F4D30A9E0B9C002707E0601EDC
:10A87000C01B09FA00F03040FFF7ACFF7F1CBFB2ED
:10A88000A742F4D300200D9CDFF8C879DFF8F85A0E
:10A89000009000264FF4005818E06888FDF768FC27
:10A8A000C7F8088000F022F8C7F80C80D7F800A09D
:10A8B0006888FDF75DFC5FEA4A4006D50098611E96
:10A8C000891B09FA01F108430090761CB6B2A64232
:10A8D000E3D3E01D811000EB5170C2100C9800A969
:10A8E00007F043FCFFF767FFBDE8F3876888400483
:10A8F000000CFDF73DBCFDF7FBBB10B598B9DFF8C8
:10A90000584904220A2100F010F804220D2100F019
:10A910000CF804220F2100F008F804220E2100F0A8
:10A9200004F8002010BDFEF74DBC2046FDF7F6BB35
:10A9300070B50C4608BBDFF8505A2A70FFF73BFF92
:10A940000322DFF814690A2100F01AF84FF40050CE
:10A95000706103220D2100F013F803220F2100F093
:10A960000FF804220E2100F00BF804B90124FA209C
:10A9700090FBF4F06880002070BD81E50C30014050
:10A980003046FDF7CBBB1FB50400084611461A46FA
:10A990000CD10A9B0393099B0293089B0193079B8D
:10A9A0000093069BFFF736FF002001E04FF0FF30D9
:10A9B00004B010BD38B50C461546A8B9FFF7EFFE38
:10A9C00002E02046FDF7D4FBDFF8240B00684004CA
:10A9D00003D46D1EADB2002DF3D1FFF7ECFE0DB127
:10A9E000002032BD06F05DB9FEF73DBEDFF89C19D0
:10A9F0004FF4004208B10A6070474A6070472DE981
:10AA0000F84FDFF8EC6A82460D46D6F804B0012014
:10AA1000691E4FF0000800FA01F94FF400544FF49A
:10AA2000004713E0012D04BF1020B060F4604FEA2E
:10AA30004A0A4FEA480800F0EEF8B46000F0EBF87C
:10AA40003068400448BF48F001086D1EEDB22DB1DA
:10AA50001AEA090F14BFB760F760E3E75FEA0B403B
:10AA60004CBFB760F760F46000F0D5F8B46000F058
:10AA7000D2F81020F060F46000F0CDF8B46000F07F
:10AA8000CAF84046BDE8F28FF8B50446DFF8FC6826
:10AA9000102030604FF400570D46776000F0BBF88F
:10AAA000376000F0B8F810207060776000F0B3F8FD
:10AAB000376000F0B0F8776000F0ADF8376000F074
:10AAC000AAF829462046BDE8F44098E7FDF710BBF8
:10AAD00010B588B9DFF8A84C4FF4806020603220B0
:10AAE000FDF746FB102020604FF4004020604FF43B
:10AAF00000502060002010BDFEF764BBF8B50C4686
:10AB0000002846D1DFF85057102068610322042145
:10AB100000F043F84FF400466E6103220F2100F06D
:10AB20003CF804220E2100F038F84FF400576F6112
:10AB300003220D2100F031F83220FDF715FB102023
:10AB400028612E612F614FF40066ECB14FF48064F0
:10AB50006C6103220A2100F020F82E61032200F02C
:10AB60001BF800F0CDF82C6100F0CAF86E6100F01F
:10AB7000C7F86C6100F0C4F82C6100F0C1F800F077
:10AB80000AF800F0BDF802E02E6100F004F80020A1
:10AB9000F2BD00F044BC38220B212846FDF7BEBAB6
:10ABA0002DE9F0410C46154648BB14B96FF008007A
:10ABB00027E094F80080DFF8D477102038604FF455
:10ABC000005600F027F83E6000F025F800F022F86B
:10ABD0003E6000F020F81020786000F01BF83E6026
:10ABE00000F019F800F016F83E6000F014F80821A3
:10ABF0004046FFF704FF05B12070002001E04FF050
:10AC0000FF30BDE8F08100004400024058000240DF
:10AC1000300002407E600020FDF7AABA38B50C462D
:10AC200011461D4648B90CB903F0B8BA2068FFF7C1
:10AC30002BFF05B12060002032BDFEF714BD80B5AA
:10AC400020B90846FFF7D2FE002002BDFDF745BD42
:10AC500010B50C4670B907E00120FFF7C7FEFFF7FB
:10AC6000DAFF0020FFF7C2FE2046441E80B2002813
:10AC7000F2D110BDFEF7A6BA70B5002839D1DFF8C1
:10AC80000C474FF4004020600726102020604FF44E
:10AC900000552560FFF7BFFF6560FFF7BCFF761E1C
:10ACA000F7D110206060FFF7B6FF2560FFF7B3FF14
:10ACB00010202060FFF7AFFF00F020F81020206088
:10ACC0000520FDF755FA00F019F81020206007263E
:10ACD0002560FFF7A0FF6560FFF79DFF761EF7D1A7
:10ACE00010206060FFF797FF2560FFF794FF0020BA
:10ACF00070BDFFF7C5BB0000000801401020606078
:10AD00000120FDF731BA2DE9F84F894616469B46DA
:10AD100048BB0C984FF40048002814BF414600215E
:10AD20000B98084300F400410129ACBF0125002520
:10AD300047040A9CDFF854A67F0C04E01DB1CAF852
:10AD40000480CAF800803846471E80B240B12146D0
:10AD50004846FFF799FE30405845EFD1002004E007
:10AD60006FF0050001E04FF0FF30BDE8F28F10B545
:10AD7000DFF8784B6088B0F5E16F0CDA207850B9D5
:10AD800000224FF48071012001F03AFB01220821DA
:10AD9000012001F08FFA2078401C207010BD0000C7
:10ADA00000380040F99A0008D59C0008DFF83C0BF9
:10ADB000017841B1491E0170C9B221B904220821AC
:10ADC000012001F077BA7047619B00080C38004001
:10ADD00038B590BBDFF8144B207800B9607060780C
:10ADE00040F6E442914208D118B901206070FFF7A3
:10ADF000BEFF0A20FDF7B8F90FE049B90028F8D0E6
:10AE00000020607020780028F3D0FFF7CFFFF9E72B
:10AE100005F047BF002000F021F8A0880228F9DBE8
:10AE20000A250020A080002000F018F8A088022841
:10AE3000F9DB6D1EF5D1002032BDFEF714BC30B930
:10AE400019B1DFF8A80A4088088000207047FDF794
:10AE500024BE0000DD9B00080436002010B5002849
:10AE60003CD1DFF8884AA08810B1012804D02BE03B
:10AE7000082100F0ECFB24E00821002000F0F7FBA3
:10AE800050BB082100F0FFFB41F6C8114843000BFE
:10AE900060806088B0F5E16F03DD00224FF400416F
:10AEA00002E04FF400421146002001F0A9FA608848
:10AEB000B0F5E16F05DA01E0FFF778FF20780028B0
:10AEC000FAD1A088401C06E0401CA08080B2B0F5FA
:10AED000804F01DB0020A080002010BDFEF772B97A
:10AEE00000B97047F0B58FB001284DD1012102F0B3
:10AEF000CBFC0121042002F0DBFCDFF8BC7B3846F0
:10AF000002F00DFC03A802F07FFC03F045FA02F00A
:10AF100060FC0121384602F084FCDFF8147D3846DD
:10AF200002F0FDFB03A802F06FFC03F01DFA02F033
:10AF300050FC0121384602F074FC00A802F0A0FE8B
:10AF400003F04CFA02F056FE5021204602F0C7FEF4
:10AF50000421204602F0E0FE8021204602F0E0FEBF
:10AF600001222946204602F0A9FE00F011F802F065
:10AF7000A5FE012200212046018582820121204672
:10AF800002F087FE002001E04FF0FF300FB0F0BD6F
:10AF900001224FF400712046704780B510B101289E
:10AFA00014D029E000F02AF8FDF7B8F8DFF8280BF4
:10AFB000002102F03FFCDFF8240B02F0B9FC002175
:10AFC000022002F075FCDFF8180B0DE0DFF8140B1F
:10AFD00002F0AEFC0021042002F06AFCDFF8D80A7F
:10AFE00002F09DFBDFF8480C02F099FB00210120E4
:10AFF00002F04AFC002002BDFDF76FBB04220421D1
:10B00000DFF8300C704710B101281CD01DE0DFF8CC
:10B01000D80A90FBF1F080B24FF6FF71884208BF6A
:10B020004FF6FE70DFF8C41ADFF8CC2C088001233D
:10B03000088810831380498829B148434FF6FF716F
:10B0400090FBF1F0108400207047FDF726BD30B56D
:10B0500093B00C4610B1012865D066E001210120B3
:10B0600002F012FC0121022002F022FCDFF8705AEB
:10B07000284602F054FB07A802F0C6FB03F0F0F8E4
:10B08000284602F0A6FB0121284602F0CAFB00A8D0
:10B0900002F0E3FD0020009001908DF8080000A967
:10B0A000DFF8385A284602F019FD03A802F0DEFD49
:10B0B0006020ADF80C0003F0ECF8A0074CBF0020B6
:10B0C0000220ADF8140003A9284602F04DFD082126
:10B0D000284602F013FE0121284602F005FE012257
:10B0E0004FF40071284602F0E9FD0121284602F0E4
:10B0F000D0FD0121284602F0D6FD574DDFF8D809D2
:10B10000E10706D5012102F095FB102028610B22F2
:10B1100005E0012102F08EFB102028610F2204219E
:10B120002846FCF7FBFF002001E04FF0FF3013B092
:10B1300030BD70B580BB02B930E002EB4104DFF8EE
:10B14000AC3934F8024C5C8000240BE01E8832F8E5
:10B150001450761C75434FF6FF7695FBF6F522F8F2
:10B160001450641C8C42F1DBDFF88C3B012018800A
:10B17000DFF8880BC36E5B085B00C36601678267FC
:10B18000C16E41F00101C16601688902FCD54FF42E
:10B1900000114160002070BDFFF772B96FF006002A
:10B1A00070BD012828D102B9D3E2DFF8500B436CFF
:10B1B0005B085B00436481640265436C43F00103F8
:10B1C000436483685B085B008360C16002EB4101FC
:10B1D0004161816841F0010181604FF0FF310268F7
:10B1E000920401D4491EFAD14FF40052426009B1D1
:10B1F0000020704700F027BDFDF74FBCDFF8C02CE2
:10B2000001789278002A19BF01F08002490001F00C
:10B210000102490801704FF400415C480AB1016025
:10B22000704741607047DFF8983C02789B7823B103
:10B23000520031B142F0010203E0520809B142F07C
:10B24000800202707047AA49096849044CBF012175
:10B250000021E8E7080C0140000C0140F1B582B084
:10B2600000208DF800000824484DDFF8547C4FF48E
:10B2700000567878C0075CBF02A8FFF7BFFF00F058
:10B2800025F8787881074CBF6E602E60C0075CBFE0
:10B2900000A8FFF7D8FF00F019F87878C00744BF7E
:10B2A00002A8FFF7ABFF00F011F8787881074CBFD8
:10B2B0002E606E60C00744BF00A8FFF7C4FF00F017
:10B2C00005F8641ED5D19DF80000FEBD7868C0B2B7
:10B2D000FCF74EBFFCF70CBF002804BF012001F0B3
:10B2E00007BAFDF7DABB7CB506460C46154600A941
:10B2F000012001F07CFA00B14AE0002E40D1019813
:10B30000DFF8BC6B4FF47A71B0FBF1F084422BD2C2
:10B310000120307001F0ECF94FF47A71DFF8A40BE2
:10B320006143B0FBF1F07060E80980F00100B0709B
:10B3300005F0030070704FF40051DFF8F848800703
:10B340004CBF2161616103220D212046FCF7E6FE1E
:10B3500003220F212046FCF7E1FE04220E212046A5
:10B36000FCF7DCFE002076BD00203070012001F0EB
:10B3700087F945F004022146012001F051FA76BD1B
:10B3800009E000000000002074370020100C01408C
:10B390006FF0050076BD4FF0FF3076BD002804BF8A
:10B3A000012001F0D4BAFDF778BB002804BF0120CA
:10B3B00001F0CFBAFDF771BBF8B50C4615461E4635
:10B3C00068BBDFF8FC0A007820B38CB93DB90027D0
:10B3D000B74222D2FF20FFF741FF7F1CF8E700278A
:10B3E000B7421AD2FF20FFF739FF78557F1CF7E7E5
:10B3F0003DB90027B74210D2385DFFF72FFF7F1C01
:10B40000F8E70027B74208D2385DFFF727FF7855E5
:10B410007F1CF7E7012001F0CBFA0020F2BD4FF0CE
:10B42000FF30F2BDDFF8C41BDFF8842C01EB800194
:10B43000896A18B1022820D013D32AE0106840F49A
:10B4400000701060106820F400701060D06840F444
:10B450000070D0604FF40060486000208860C862CF
:10B460007047106840F480601060106820F48060BD
:10B470001060D06840F48060EBE7106840F4004052
:10B480001060106820F400401060D06840F4004064
:10B49000DFE7FDF702BBDFF81C1C10B1012805D067
:10B4A00008E0086820F4007000F05EBD086820F431
:10B4B0008060F9E7FDF7F1BA70B5DFF8B43B1C68BE
:10B4C00024F440441C601D68DFF8204B6669B6FB1D
:10B4D000F1F1891E4903890B45EA813104EB8000B3
:10B4E00019601102806A41F4C0218160002070BDA2
:10B4F000080C0140FCB5DFF8F43ADFF8B8EB03EBD9
:10B50000800352099B6A00260727A1F10A044FF025
:10B510000F0C042903DB0829B8BF02280ADADEF879
:10B52000000040F00400CEF800004FEA810EDFF882
:10B53000880B26E0A1F10A05042D05D3A1F10E0523
:10B54000022D0CD202280ADADEF8000040F01000CA
:10B55000CEF800004FEA840EDFF8600B11E0A1F195
:10B560000805022D17D2022815DADEF8000040F097
:10B570000800CEF80000A1F108004FEA800EDFF8C5
:10B58000B40605680CFA0EFC25EA0C0506FA0EF660
:10B590002E43066031E00D1F052D2ED202282CD13E
:10B5A000DEF8000040F08000CEF800000629DFF849
:10B5B000A80C16DA05688C1CA4000CFA04FC25EA19
:10B5C0000C0506FA04F42C43046001EB41001969F0
:10B5D00007FA00F4A14302FA00F0084318610020C2
:10B5E000F6BD8D1F4FEA850E45680CFA0EFC25EA64
:10B5F0000C0506FA0EF62E4346600A29E5DB04EB3D
:10B600004400D96807FA00F4A14302FA00F00843A5
:10B61000D860E4E7DFF8D42902EB8000806A416358
:10B62000816841F001018160816841F00801816019
:10B6300081680907FCD4816841F004018160816858
:10B640004907FCD4002070474FF480507047DFF862
:10B650009C2902EB8000806A4163016821F00201AD
:10B660000160816841F00101816000207047DFF8CE
:10B670007C1901EB8000806A0068400800F001003E
:10B6800080F001007047DFF8641901EB8000806AE8
:10B69000C06C704770B504460D461646FFF7D7FFDD
:10B6A00029462046FFF7E3FF0028F9D12946204626
:10B6B000FFF7E9FF3060002070BD50B9DFF8B00936
:10B6C000016821F0E0610160416941F005014161DB
:10B6D00043E0FDF7E2B968B9DFF89409016821F0A9
:10B6E000E0610160DFF8AC0B01680909090141F074
:10B6F000040139E0FDF7D1B939B90020DFF870193C
:10B700000A6822F0E06200F02EBCDFF8E0088268F0
:10B710004FF4FA63B2FBF3F28A4208BF4FF0E060E5
:10B72000ECD042684FF47A73B2FBF3F28A4208BF5E
:10B730004FF0C060E2D0406AB0FBF3F0884208BF2F
:10B740004FF08060DAD0B1F5FA5F08BF4FF0A0602B
:10B75000D4D06FF00600704700BFDFF8380B0168E7
:10B760000909090141F00B01016000207047DFF871
:10B77000240B01680909090141F00401F4E7000004
:10B78000140C014010B50F21084255D1DFF8080B09
:10B79000DFF8083B416841F4F0714160016841F411
:10B7A00080710160DFF8F80A016821F47F0141F43B
:10B7B0003B0101600168090A090241F0BB01016017
:10B7C000DFF8E01A0A681201120942F030420A60FA
:10B7D00042681A40DFF8D03A1A4342604FF0BB3259
:10B7E0004A60DFF8C83ADFF8702A146804F07F4432
:10B7F0001C4314605468CBF6BB345460DFF8B02AA5
:10B80000146804F07F442343136043686FF31733D5
:10B8100043F4300343F43B2343600868DFF8803C83
:10B820006FF31B2018430860506820F07F6040F0E1
:10B830003B605060002010BDFDF7C4BC10B50F2167
:10B84000084251D1DFF8580ADFF8503A016821F474
:10B850007F0141F4880101600168090A090241F091
:10B8600044010160DFF83C1A0A681201120942F033
:10B8700080420A6042681A40DFF8E03B1A434260A7
:10B880004FF044324A60DFF81C3CDFF8CC291468E2
:10B8900004F07F441C4314605468C4F24444546070
:10B8A000DFF80C2A146804F07F44234313604368D4
:10B8B0006FF3173343F4800343F48823436008682D
:10B8C000DFF8E43B6FF31B2018430860506820F05A
:10B8D0007F6040F088605060DFF8BC09016821F4A7
:10B8E00080710160002010BDFDF76CBC3E37002068
:10B8F0002DE9F043840941F480510F2541F0010105
:10B90000284209D1DFF89809DFF8FC5B2CB1022C42
:10B9100010D009D3032C13D0B8E005682D012D09F0
:10B9200045F03045056011E02E6826F0F00646F03F
:10B93000B0060AE02E6826F4706646F4306604E02D
:10B940002E6826F4702646F430262E605D6935B1E7
:10B95000B84D2E683601360946F030462E601D7A05
:10B960003DB141F00201056825F4704545F43045CC
:10B9700005605D78E5B1056825F0706545F0006506
:10B980000560402505615878012806D025D3032895
:10B9900009D005D3042809D01FE041F4285107E05D
:10B9A00041F4085104E041F4205101E041F4005118
:10B9B0001878082803D010280FD141F010015869D9
:10B9C000DFF8285670B1EE68B6FBF0F6F6B2B71E97
:10B9D0000F2F05D36FF007005AE06FF0060057E015
:10B9E000761E00E00026B3F80EC0B3F80CE0AEF10E
:10B9F0000108ACF101091F8A08F00F0809F00F09CE
:10BA000048EA0918A7F101095FFA89F948EA092803
:10BA100006F00F0648EA065646EA02081E6A864203
:10BA200004BF188B704505D1588B604504BF988BB7
:10BA3000B8421AD041F4804116B1E868B0FBF6F67E
:10BA4000188B5D8B9B8B401E6D1E00F00F0005F068
:10BA50000F055B1E40EA0510DBB240EA032006F04A
:10BA60000F0340EA0350104301E06FF07040E20022
:10BA7000A2F1C042C2F80480DFF8702C42F8340012
:10BA8000E000A0F1C0400160002001E04FF0FF3075
:10BA9000BDE8F0830B464FF08052482128E7DFF8DD
:10BAA000042813681B0A1B0243F0BB0313604FF00A
:10BAB00080520B4600211BE744000240DFF8E427D8
:10BAC00013681B0A1B0243F0BB0313604FF0805244
:10BAD0000B4604210CE7000000081A000004004097
:10BAE0006C00024000080040401901007837002037
:10BAF00030B50F23C0F3011218420DD1DFF8A007B3
:10BB0000436823F47F2343F43B234360012ADFF897
:10BB1000A03702D0022A0ED089E00468240124094B
:10BB200044F0304404601C6824F0706444F0006405
:10BB30001C6040240CE05C6824F0F00444F0B00485
:10BB40005C601C682401240944F000441C608024CB
:10BB50001C614C7C0B7C641E5B1E04F00F0403F024
:10BB60000F03640244EA43330C7B43F00C03002CC4
:10BB70001EBF43F04003CC89B4F5807F1DD0B4F5DF
:10BB8000007F0CD0B4F5806F0CD0B4F5006F0CD0F2
:10BB9000B4F5805F0CD0B4F5005F0CD041E043F405
:10BBA00000330AE043F4802307E043F4C02304E0B9
:10BBB00043F4002301E043F420234C783CB10468B3
:10BBC00024F0706444F03064046043F002030878A9
:10BBD000082803D0102824D143F01003488A8C8A07
:10BBE000401E641E40EA04208C7D4D8B40EA0440D8
:10BBF000CC7D40EA04600C8B641E6D1E44EA052473
:10BC00000D7F497F44EA054444EA0161DFF80C4CAA
:10BC1000012A02D0022A05D009E0A060E160236079
:10BC200003E009E0A062E1622362002030BD06E08B
:10BC300008000240000C01406FF0060030BD4FF0DC
:10BC4000FF3030BD00BF6FF005007047FBE70F21EC
:10BC5000084201D100207047FCF71FBF0B46114678
:10BC6000A8B9980113F0F00206D0102A06D0202AB5
:10BC700006D0302A06D00AE0C0B20BE7C0B20EE709
:10BC8000C0B21BE7581C00F00300000130E7FCF7CE
:10BC900004BF01F0F00201F00F0178B912B1302AAF
:10BCA00006D0704704290ADA880600F1C0407047C0
:10BCB000022904DA080700F1E040704700207047CD
:10BCC00001F0F00201F00F0190B912B1302A03D057
:10BCD0000EE004290EDB0BE0DFF8900C11B1012916
:10BCE00003D005E00068800901E00068C009C5E4F0
:10BCF0004FF0FF3070470000140400400000024085
:10BD0000C0F30112130703F1C043591812B9800997
:10BD100001EB80610878704710B5C0F301131C0770
:10BD200004F1C044611813B9800901EB80610A7005
:10BD300010BDC0F30112130703F1C043591812B923
:10BD4000800901EB80610888704710B5C0F30113CA
:10BD50001C0704F1C044611813B9800901EB80612C
:10BD60000A8010BD00207047704710B5D0BB02F1AB
:10BD7000C04211F0F00002D0302805D032E001F0CE
:10BD8000030002EB806204E001F00100401C02EBC2
:10BD9000007202980399012B04D0022B0BD0042BC4
:10BDA00013D01DE000238B423EBF12F8014B1C5400
:10BDB0005B1CF8D312E000238B423EBF32F8024BEB
:10BDC00020F813405B1CF7D308E0002304E052F88E
:10BDD000044B40F823405B1C8B42F8D3002010BD7D
:10BDE00001F01AB8FDF7EEB910B5D0BB02F1C042B0
:10BDF00011F0F00002D0302805D032E001F003004D
:10BE000002EB806204E001F00100401C02EB0072D2
:10BE100002980399012B04D0022B0BD0042B13D0D2
:10BE20001DE000238B423EBF1C5C02F8014B5B1CF3
:10BE3000F8D312E000238B423EBF30F8134022F8C3
:10BE4000024B5B1CF7D308E0002304E050F82340CA
:10BE500042F8044B5B1C8B42F8D3002010BD00F06D
:10BE6000DBBFFDF7AFB930B500F00F0101F0030201
:10BE7000DFF81C3C8908920053F821400F259540BB
:10BE80002C4043F82140000953F8214090402043C2
:10BE900043F82100002030BD012100F00F0001FA1D
:10BEA00000F0DFF87C1C0A68C04302400A604A6860
:10BEB00002404A604A691043486100207047000010
:10BEC0006C37002090D00300F0B500F00F00012384
:10BED00003FA00F6F54301F00207DFF8B83BDFF89C
:10BEE000404C5FEAC17C0BD40FBB21682940216024
:10BEF000616829406160002143F820100020F0BDF6
:10BF0000D4F80CC046EA0C0CC4F80CC097B9A7686A
:10BF10003D40A56043F82020480702D560683043C3
:10BF200060600807EAD5206830432060E6E7E768EC
:10BF30003D40E560A5683543EBE7DFF8E41B0CE026
:10BF4000DFF8DC1B01230A6800F00F0003FA00F0A1
:10BF500022EA000008E0DFF8E01B01230A6800F095
:10BF60000F0003FA00F0104308600020704710B57E
:10BF70000446DFF8200B50F82400010018BF80476A
:10BF80000120DFF8601CA040086010BD0020EEE733
:10BF90000120ECE70220EAE70320E8E70420E6E7D7
:10BFA00038B50524DFF8785B2868E040C00706D57F
:10BFB0006869E040C00744BF2046FFF7D8FF641C13
:10BFC0000A2CF1DB31BD38B50A24DFF8545B286850
:10BFD000E040C00706D56869E040C00744BF20467E
:10BFE000FFF7C5FF641C102CF1DB31BD941300205A
:10BFF000FCF77EB8FCF77CB81CB500F03BF800B14C
:10C000003CE001980099484374B9DFF8DC1B0A68EA
:10C0100042F080020A60B0F5002F03D9086C40F0AE
:10C0200080000864002016BD4FF0FF3016BD1CB51F
:10C0300000F020F800B121E0019800994843B4B91C
:10C04000DFF8A81BDFF8A82BDFF8643C0A600B6060
:10C05000B0F5002F8C6844F035048C6005D90A6473
:10C060000B64886C40F035008864002016BDDBE767
:10C0700004100240044600AA01A902E06FF0050086
:10C0800016BD98B9DFF8900C0088FF2806DD11B1C5
:10C090004FF400630B603AB1400804E011B14FF473
:10C0A00080630B6002B1106000207047FCF7F5BCA4
:10C0B0000C1002401810024000080140001001401E
:10C0C00010B514461A4630B901F10061204606F059
:10C0D0004CF8002010BDFDF775B8FCF709B8F0B5B5
:10C0E00058BBDFF8D04BB1F5002F32BF201D04F153
:10C0F00044004034056845F001050560002502E074
:10C10000891C921C6D1CB5EB530F10D2168801F1DF
:10C1100000673E802668F607FCD42668F606EFD551
:10C1200001684908490001606FF00500F0BD016831
:10C130004908490001600020F0BD4FF0FF30F0BD1C
:10C14000FBF7D6BF38B50C46154640B900F04EF89F
:10C15000009B2A4621460020FFF7B2FF32BDFDF7C3
:10C1600082BA80B500B949E0FCF7B7BAA0B9DFF8E8
:10C17000780AB1F5002F39BF0246001D00F14002D8
:10C180004430136843F00203136001F10061016061
:10C19000106840F0400044E1FCF77FBCA0B9DFF834
:10C1A000142BB1F5002F32BF111D02F144014032B2
:10C1B000106810F0010003D10B6823F002030B603C
:10C1C0001168C90602D53EE54FF0FF30704738B51B
:10C1D0000C46154640B900F009F8009B2A46214656
:10C1E0000020FFF77CFF32BDFDF73DBA002200A919
:10C1F00047E780B500B901E0FCF76FBAFFF7F6FF3B
:10C20000002002BD30BBDFF86C0BDFF8E4190160E1
:10C21000DFF89C1A0160816841F02001816081682B
:10C2200041F0400181604168C907FCD48168DFF8B2
:10C23000942C21F020018160816841F0100181601F
:10C24000002111804168C907FCD4816821F01001E8
:10C25000FFF70ABAFCF721BC001C014030B9DFF837
:10C26000680C0068400800F001007047002070472B
:10C27000DFF8581C0A68042373E6042101FA00F071
:10C28000DFF84C1CCA68C0430240CA600A6810400C
:10C290006AE60000040801401410024000F0FF00AC
:10C2A0000014014000180140BB0B00BBBBBBBB002E
:10C2B0000020014070B5800200F180400F2402F0A0
:10C2C0000F0300F58430082909DA8D000668AC40B8
:10C2D00026EA040403FA05F52C4304600AE0A1F100
:10C2E0000805AD004668AC4026EA040403FA05F5EB
:10C2F0002C434460082B06D1012303FA01F11206F6
:10C300004CBF01614161002070BD2DE9F24F8002F8
:10C3100000F1804000F584300024D0F800C041686E
:10C32000DDF828804FF0010AA70003260F2506FA42
:10C3300007F9BD40009E0AFA04FEED4316EA0E0F0F
:10C3400021D0A600B61C05EA0C0C12EA0E0F12D082
:10C3500008EA030B49EA0C0C1BEA0E0F03D00AFA99
:10C3600006F646EA0C0C18EA0E0F14BFC0F810E0EF
:10C37000C0F814E007E013EA0E0FF0D04FF0100BF6
:10C380000BFA06F6EDE704F108060AFA06FE009E2F
:10C3900016EA0E0F1BD0294012EA0E0F12D008EA3F
:10C3A000030549EA010115EA0E0F03D0042505FA39
:10C3B00007F7394318EA0E0F14BFC0F810E0C0F8B1
:10C3C00014E004E013EA0E0FF0D00825EFE7641C38
:10C3D000082CA9DBC0F800C041600020BDE8F28F46
:10C3E000800200F1804000F5843001610020704738
:10C3F000800200F1804000F58430416100207047E8
:10C40000800200F1804000F5843002EA01030361FC
:10C410009143F2E7800200F1804000F584308068AB
:10C420000840106000207047800200F1804000F555
:10C430008430806808407047DFF8BC0B0021016041
:10C4400041608160C16041628162C162DFF85C1C51
:10C4500081630021C1630020704700004404004450
:10C4600010B5DFF8981BDFF8984B4A6842F03002AD
:10C470004A60DFF8902B13681B0D44EA03531360E6
:10C48000DFF8802C136823F4706343F43063136087
:10C4900040F202430A681A430A60BDE81040CBE745
:10C4A00000BBBB0B4444440000444404DFF8DC0BF5
:10C4B000C0684FF47A73B0FBF3F0012A08BF002282
:10C4C00005D0042A0CBF4FF400624FF48052B0FB39
:10C4D000F1F010B942F4806008E0022838BF022071
:10C4E00002D3FF2888BFFF20801E1043DFF8181CEE
:10C4F00040F4807038E5DFF8001B032034E5DFF8F6
:10C50000F81A00200860704704200140DFF8A00BF3
:10C51000026001F03F01194341F480614160002055
:10C520007047DFF8700C0268530703D5042141609F
:10C53000FFF789BB21B112F0410F09D0412106E07C
:10C54000D10744BF01214160110601D58021E5E7F3
:10C550000120704719B1DFF8B40B0068087052B1C0
:10C56000002006E0DFF8941C51F8201042F820105B
:10C57000401C9842F6D30020704730B5B2F1007FDE
:10C580000AD2002001248440A34203D0401CC0B240
:10C590000F28F7DB0F2801DB02F022BADFF8EC3AB4
:10C5A000DC68DFF8643B1D686D0504D41D68EDB2DE
:10C5B000AD1CB4FBF5F44FF47A75B4FBF5F46143AC
:10C5C000196200015A6240F001009862002030BDFB
:10C5D000DFF82C0C0068704770B5B2F1007F0AD20A
:10C5E000002001248440A34203D0401CC0B20F2885
:10C5F000F7DB0F2800DB40E0DFF8903ADFF8084B6C
:10C60000DD682668760504D42668F6B2B61CB5FB4C
:10C61000F6F54FF47A76B5FBF6F569432162000131
:10C62000626240F00300A0620020586370BD70B5E4
:10C6300040F22A20DFF85C3BDFF8504A06E01E6833
:10C64000B60206D5DE6CAE502D1D6563656B8D425E
:10C6500002D21E680642F2D01A6840F22A710A42DB
:10C66000FAD04FF4A0625A60002262631A68024254
:10C6700001D0596001E0002070BD6FF0050070BD71
:10C680000209DFF84C1810F00F0002D001281CD06E
:10C6900019E0C86840F48050C860012A086840F476
:10C6A00080500860086820F4805008601BD1DFF8D3
:10C6B000D40C026842F0E06242F001020260C868F5
:10C6C00040F00800C86000207047002A086940F464
:10C6D00080400861486840F480404860486820F421
:10C6E00080404860EBD0FCF7D8B90000040100A0FE
:10C6F00010B500F00F010209DFF8AC0BDFF8CC3702
:10C7000011B1012926D011E01C6824F480541C606A
:10C71000012A37D1026822F4704242F4804202605A
:10C72000026822F4702242F480220260DFF85C0981
:10C7300000EB8100DFF8741B806B884224D101215B
:10C740004FF4805001F0C0F800214FF4805001F008
:10C75000BBF834E05C6824F480445C6092B94268C1
:10C7600022F4700242F480024260426822F0706259
:10C7700042F08062426042681201120942F0804237
:10C780004260D3E7FCF71EBDDFF8181C884208D1D1
:10C7900001214FF4804001F0A1F800214FF48040C6
:10C7A0000BE0DFF8B01C884209D101214FF40040B2
:10C7B00001F094F800214FF4004001F08FF80020C0
:10C7C00010BD00F00F00DFF8C41801EB8000806B93
:10C7D000018841F04001B9E100F00F00DFF8AC182A
:10C7E00001EB80004FF6BF72806B0188ADE1DFF88E
:10C7F0009C2810F00F0003D0022803D002D304E0DD
:10C80000506900E0106948600860086840080860E6
:10C810004868000A4860002070470000600000A0DF
:10C82000F0B500F00F05DFF86478DFF87C4A07EB1D
:10C83000850306099B6B02F0040015B1012D28D079
:10C8400051E07D694FF47A77B5FBF7F5012E4AD1B7
:10C850002668002826F4704612D046F4304626603A
:10C86000266826F4702646F4802626601C884FF63B
:10C87000BF7634401C80B1EB550F35D3002151E019
:10C8800046F480462660266826F4702646F4302654
:10C89000EBE73D694FF47A77B5FBF7F51EBB6668A9
:10C8A000002826F470060FD046F4300666606668ED
:10C8B00026F0706646F08066666066683601360966
:10C8C00046F030466660D1E746F4800666606668EA
:10C8D00026F0706646F03066666066683601360996
:10C8E00046F08046EEE728E4B1EB950F28BF012122
:10C8F00018D2B1EBD50F28BF022113D2B1EB151F0F
:10C9000028BF03210ED2B1EB551F28BF042109D245
:10C91000AC098C4238BF052104D3EC098C4234BFEA
:10C920000621072142EAC10141F40071198018B1C2
:10C93000188840F4807018804FF2FF71988B08407F
:10C940009883188840F0400018800020F0BDFCF764
:10C95000A4B8FCF7A2B800F00F00DFF8302702EB14
:10C960008000806B8181002070470000082001401A
:10C9700000F00F00DFF8141701EB8000806B0089D6
:10C980000006400EFEF77ABE00F00F00DFF8FC163E
:10C9900001EB8000806B0089FEF770BE00F00F0095
:10C9A000DFF8E81601EB8000806B8089C0B2704729
:10C9B00030B500F00F00DFF8D44604EB8000806B48
:10C9C000B1B9FF214AB900249C4229D28181028950
:10C9D000D207FCD58289641CF6E700249C421FD252
:10C9E00081810589ED07FCD58589A554641CF5E78F
:10C9F00052B900249C4213D2625C82810289D20720
:10CA0000FCD5641C8289F5E7002407E0655C85811C
:10CA10000589ED07FCD58589A554641C9C42F5D396
:10CA2000002030BD30B510F00F00DFF86046DFF8B1
:10CA3000CC5504EB8004A46B03D0022822D01DD374
:10CA400024E0286840F001002860DFF8C80C4AB1F3
:10CA5000802505604360A5898560C260026842F058
:10CA60000102026091B1902242618361A289C26198
:10CA70000162416941F00101416107E0286840F02D
:10CA8000010002E0286840F002002860002030BD6C
:10CA900008000140A03600200020704700207047A9
:10CAA000DFF80C1802000ED0421E052A0FD9921F83
:10CAB00011D0521E022A12D9D21E022A14D9D21E15
:10CAC000022A19D920E0086840F400601BE04A6897
:10CAD0000123401E0BE0086840F4005013E00A6890
:10CAE0004FF4002308380BE04A6840230B3803FA60
:10CAF00000F01043486007E04FF480330A680E38B6
:10CB000003FA00F0104308600020704780B5DFF89A
:10CB1000081C51F8200000F00BFF002002BD0000AF
:10CB20000004014000207047DFF8EC1B51F82000A2
:10CB3000018841F0010109E010040140DFF8D81B31
:10CB400051F8200001884FF6FE721140018000204C
:10CB50007047DFF8C42B52F82000808CFFF704BA2E
:10CB6000DFF8B42B52F820008184002070470020A9
:10CB70007047DFF8A43B53F8200000EBC100808E23
:10CB80004FE4DFF8943B53F8200000EBC1008286AD
:10CB9000002070470F21084220D1CC490A6842F496
:10CBA00080420A6000091BD1DFF8D807026822F032
:10CBB000040242F0E0620260086840F0040008608D
:10CBC000DFF8000D016821F0F00141F0B0010160D3
:10CBD000016821F4706141F48061016000207047B8
:10CBE000FBF75BBF14040140102002400420024008
:10CBF0002301674500F00F01DFF8903403EB810358
:10CC000000225B6E9A81E1B90009B0490A6822F4FA
:10CC100080420A6017D1DFF86C07016821F0040137
:10CC200041F0E0610160DFF89C0C016821F0F00147
:10CC300041F480610160016821F4706141F4804138
:10CC4000016000207047FBF728BF70B510F00F049B
:10CC5000DFF8385405EB8400406E86890AD16C6990
:10CC600006F0A00545F00C05082A07D0092A03D0D4
:10CC7000FEF794BAFDF704BC45F48055B4FBF1F11E
:10CC80000A09A1EB021141EA02110181590201F4E2
:10CC9000C06129438181D90101F4585101820021E9
:10CCA0000182818941F400518181002070BD000022
:10CCB000AB89EFCD0C20024030B500F00F00DFF85B
:10CCC000CC5305EB80000024456E0264C36481658B
:10CCD00002B180240BB144F020044FF65F71A889A3
:10CCE0000840A881A8892043A881002030BD00F019
:10CCF0000F00DFF8982302EB8000406E8180002057
:10CD0000704700F00F00E14901EB8000406E0088A1
:10CD10000006800FFEF7B2BCE0F7FF1F00F00F0027
:10CD2000DA4901EB8000406E8088704700F00F0008
:10CD3000D64901EB8000406E00880006400FFEF7E8
:10CD40009DBC38B5D14CDFF8A85BE26C100005D073
:10CD50002888800602D5A988A06D9047216C08001C
:10CD600006D02888000603D5A06DBDE834400847EA
:10CD700031BD00000820024010B5DFF8784B1022CA
:10CD80000021204605F043FA1022002104F1100092
:10CD900005F03DFADFF8604B08220021204605F03F
:10CDA00036FA0822002104F1080005F030FA0822C2
:10CDB0004FF0FF3104F1100005F029FAB349DFF814
:10CDC0003C2B496ADFF8380B914220D0DFF8342B36
:10CDD000914220D1016821F480010160816941F410
:10CDE000000181610121DFF8200B01600021016059
:10CDF00000BF00BF00BF00BF00BF00BF00BF416059
:10CE00004FF43C41016000210161002010BD016828
:10CE100041F48001E1E700BF6FF0060010BDDFF8CC
:10CE2000E80A01210160002141600321FEF79CBC5A
:10CE30000020704780B500F0DEFB002002BD00201E
:10CE4000704700207047DFF88C1C40F08000FFF72F
:10CE50008BB8DFF8800C006800F07F00704700207E
:10CE600070470020704700207047DFF8F80C00681A
:10CE70004005400D704710B50446002000F0ECFA64
:10CE8000082801D0FDF7D6B92146BDE81040082298
:10CE9000002007E3DFF8601A4FF4007008830020D9
:10CEA00070470021DFF8503ACB1893F910309842C0
:10CEB00001D148B27047491CC9B20829F2D3FBF727
:10CEC000ECBD000000F8FF1F1C20024018100240BB
:10CED0000C100240002070472DE9F84307460C462D
:10CEE000FFF7DFFF48F28005DFF8EC9B002818D53C
:10CEF0000020DFF8041A411891F9102012F1010FF7
:10CF000004D0401C40B20828F3D30CE00F74C1B227
:10CF100059F8212048F68F731A403A432A4349F8BA
:10CF20002120002802D56FF0050016E0C7B2B846F0
:10CF300048F68F662CB1022C17D010D3032C16D0D4
:10CF400018E04FF40071384601F04EFF59F8280000
:10CF50003040284349F828000020BDE8F2834FF410
:10CF6000C061384601F040FFF6E70021EBE74FF4DF
:10CF70008061F6E76FF00600EFE770B5044600F059
:10CF800087F805462046FFF78CFF040001D5FFF720
:10CF900074BBDFF86469308B411B402900DA72E111
:10CFA00000F06CF9E0B201F092FF00F062F90022AB
:10CFB0000221E0B201F0D4FFE0B201F064FFE0B280
:10CFC00001F073FF0021E0B201F02CFF2021E0B25C
:10CFD00001F014FFE4B20120A055002070BD80B51F
:10CFE000FFF75FFF002801D5002002BDC0B2DFF8C7
:10CFF0000819405C02BD000000800140141002408E
:10D00000BBBB0B000410014080B5FFF74AFF0028AE
:10D0100001D5FBF72CBD022154E12DE9F0410F466B
:10D02000FFF73FFF040048BF6FF005002BD4DFF887
:10D03000C858288B3E46801B4028B8BF6FF00400BC
:10D0400021DBE4B2DFF8AC08A04620F818703946BE
:10D05000204601F046FFF80748BF761C288BDFF812
:10D06000881BDFF8882B801B28830004096889B29D
:10D07000400C01EBC801400042F81100202120467D
:10D0800001F0BCFE0020BDE8F081000094130020F8
:10D0900080B5FFF706FF002801D5002002BDDFF8AC
:10D0A0005418C0B231F8100002BD0000FF07C000E4
:10D0B0000880014080B5FFF7F4FE002801D5FBF79A
:10D0C000D6BC102107E080B5FFF7EBFE002801D5A4
:10D0D000FBF7CDBC2021C0B201F090FE002002BDC4
:10D0E00080B5FFF7DEFE00280AD4DFF8EC19C0B2E5
:10D0F00051F8200000F03000102801D1012002BDBD
:10D10000002002BD00140140048001401080014055
:10D1100080B5FFF7C6FE002801D5FBF7A8BCC0B25A
:10D1200001F0C3FE002002BD80B5FFF7BAFE002863
:10D1300001D5FBF79CBCC0B201F097FE002002BDF8
:10D14000F8B50D46FFF7ADFE040001D504F0EEBAC8
:10D15000C4B22046DFF8A017415C89B1DFF8887AB5
:10D16000C60001F03BFE4004386880B247BF30186B
:10D17000DFF87C1A3018DFF8B81C41F8105002E0D4
:10D18000294601F0AEFE3021204601F037FE002096
:10D19000F2BD00003480014070B50C461646FFF722
:10D1A00080FE050001D5FFF768BAC5B2DFF8480771
:10D1B000285C002828460AD001F010FE40042846CA
:10D1C00002D501F0C0FE04E001F0B0FE01E001F084
:10D1D0007EFE400000F18040711C00F5C040491007
:10D1E00009E014F8012B14F8013B42EA032220F86D
:10D1F000022B801C491EF4D1002070BD1480014018
:10D200003480014070B5044600F0BEF80546204663
:10D21000FFF747FE040001D5FFF72FBADFF8D86605
:10D22000308B411B402900DA2DE000F027F8E0B2F6
:10D2300001F04EFE00F01DF82A460121E0B201F097
:10D240008FFEE0B201F01FFEE0B201F02EFEE0B270
:10D2500001F00BFE4FF44051E0B201F0E3FD00217C
:10D26000E0B201F0CBFDE4B2A11901200872002068
:10D2700070BD328B0146E0B201F03EBE401B3083F0
:10D28000E0B201F0E6BD6FF0040070BD80B5FFF7BD
:10D2900008FE002801D5002002BDC0B2DFF85816F4
:10D2A0004018007A02BD0000000C0140003001402F
:10D2B0000C10024080B5FFF7F4FD002801D5FBF704
:10D2C000D6BB0121C0B201F09AFE002002BD2DE9BB
:10D2D000FC4104460D46FFF7E4FD002848BF6FF00F
:10D2E00005004DD4DFF81026138B611E89410446DA
:10D2F0002E46C90F981B4028B8BF6FF004003FDBD3
:10D30000E4B2DFF8F005DFF8E088DFF8E47800EB5E
:10D3100044003F2E0582D8F8000080B200EBC40024
:10D3200007EB400E09DB6F091F20054208BF7F1E77
:10D330003F04B80940F4004005E06F08E80748BF23
:10D340007F1C3F04B809CEF80000E80748BF761CF0
:10D35000981B10830004D8F80020DFF8403D400CF3
:10D3600092B2400002EBC40243F81200002914BF3D
:10D370004FF440514FF40051204601F053FD00207E
:10D38000BDE8F6810400014080B5FFF78AFD002862
:10D3900001D5002002BDC0B2DFF8581501EB4000F6
:10D3A000008A02BD0038004080B5FFF77AFD0028F2
:10D3B00001D5FBF75CBB4FF48051A3E010B50446E8
:10D3C000FFF76FFD611E8941C90F002801D5FCF7E9
:10D3D00031BF002914BF4FF440514FF40051C0B287
:10D3E00001F020FD002010BD80B5FFF75AFD002898
:10D3F0000BD4DFF8E416C0B251F8200000F440501E
:10D40000B0F5805F01D1012002BD002002BD80B5D2
:10D41000FFF747FD002801D5FBF729BBC0B201F09B
:10D4200032FD002002BD80B5FFF73BFD002801D58D
:10D43000FBF71DBBDFF8A016C0B251F8202048F65C
:10D440008F731A4042F4404242F0800241F820209B
:10D45000002002BD003C004070B5FFF722FD00280F
:10D4600001D5002070BDC0B2DFF88C14DFF8805702
:10D47000DFF874674118C400097A59B101F0AEFCB5
:10D480004006306880B207D4DFF8A419201851F89C
:10D49000100004E0306880B2201855F810008005B4
:10D4A000800D70BD70B50D461646FFF7FAFC0400FE
:10D4B00001D5FFF7E2B8C4B2DFF83C042018007AC7
:10D4C000002820460CD001F089FC4006204602D5F9
:10D4D00001F039FD06E001F029FD0146324603E086
:10D4E00001F0F6FC32460146284601F066FB0020BA
:10D4F00070BD80B5FFF7D5FC002801D5FBF7B7BAA2
:10D500004FF44051C0B201F08DFC002002BD2DE966
:10D51000F8430020ADF8000048F60F7840F68F740D
:10D52000DFF8B455DFF8D0632AE055F82900ADF8EC
:10D530000000BDF8000000040ED555F82900204079
:10D5400040F0800045F82900F26C100004D0002F54
:10D5500002D4F069F9B29047BDF8000000060FD57B
:10D5600055F8290008EA000040F4004045F8290079
:10D57000B26C100004D0002F02D4F069F9B29047C9
:10D58000686C010435D500F00F0909EB060191F92B
:10D590001070002FC9D1C00628680CD408EA00001A
:10D5A00040F400402860B26C100022D0F069BDE861
:10D5B000F84300211047ADF800002868204040F0F3
:10D5C00080002860BDF80000000506D5F16A08005B
:10D5D0000FD0F069BDE8F4430847BDF8000000042F
:10D5E00007D5F26C100004D0F069BDE8F8430021C3
:10D5F0001047BDE8F18370B5DFF85C6BBE4D346851
:10D60000A4B2600507D54FF6FF303060A96A080064
:10D610001CBFE8698847600444BF4BF6FF70306068
:10D62000A00408D54DF6FF7030602A6B100002D0C0
:10D63000E86900219047E00407D54EF6FF7030609E
:10D64000696B08001CBFE8698847200507D5A96BEE
:10D6500008001CBFE86988474FF2FF703060A005E2
:10D6600007D54FF6FF503060E96B08001CBFE86932
:10D670008847E00508D54FF6FF6030602A6B100040
:10D6800002D0E86902219047200444BFBDE8704001
:10D69000FFF73DBF70BDAEE770B5DFF83C44DFF883
:10D6A000B85A10E054F8223040F68F76334043F0F9
:10D6B000800344F82230C26C130004D0002902D445
:10D6C000C069C9B290472868010421D547F6FF71A7
:10D6D000296000F00F028848111891F9101054F8D1
:10D6E00022309BB21E04DDD41B06ECD554F8223048
:10D6F00048F60F76334043F4004344F82230826CFE
:10D700001300E0D00029DED4C069C9B29047DAE73F
:10D7100070BD00001C0002405414002070470168D6
:10D72000DFF88C2B4908490001600021016041604D
:10D730008160C1609042DFF8241C25D0DFF8202CE6
:10D74000904229D0DFF81C2C90422DD0DFF83C2CE1
:10D75000904231D0DFF8382C904235D0DFF8342CAD
:10D76000904203D1086840F4700030E0DFF8582C94
:10D77000904203D1086840F0706028E0DFF84C2C3C
:10D78000DFF84C1C904203D1086840F00F001EE007
:10D79000DFF86C2C904203D1086840F0F00016E0EE
:10D7A000DFF8602C904203D1086840F470600EE00E
:10D7B000DFF8542C904203D1086840F4704006E032
:10D7C000DFF8682D904203D1086840F470200860AB
:10D7D000704702688B686FF30E121A430B6A1A4384
:10D7E0000B691A434B691A438B691A43CB691A4375
:10D7F0004B6A1A438B6A1A430260CA6842600A681D
:10D8000082604968C16070470021016041608160A9
:10D81000C160016141618161C161016241628162F6
:10D8200070470029016812BF41F001014908490011
:10D830000160704770B5DFF8F82C00284CBF946980
:10D840001468460D83B23601B34000F44016C0F3AD
:10D850000345B6F5401F06D1156825F0706524F024
:10D860007064156008E0C60243BF032606FA05F59A
:10D87000AC439C4344F0706401B11C43002801D5C3
:10D88000946170BD146070BDDFF8A82C0029116888
:10D8900014BF084321EA000010607047DFF8982C9D
:10D8A0000029116814BF084321EA00001060704786
:10D8B000DFF8882C0029116814BF084321EA000012
:10D8C0001060704704080140DFF8782D00291168C6
:10D8D00014BF084321EA000010607047DFF8682D8C
:10D8E0000029116814BF084321EA00001060704746
:10D8F000003801404437002004140020006CDC0292
:10D900000410024000A24A04405C00400029018843
:10D9100012BF41F040014FF6BF72114001807047C5
:10D92000002A828814BF114322EA010181807047D6
:10D9300080B5DFF80C1C884208D101214FF400604B
:10D94000FFF7C2FF00214FF40060BFE0B0F1804F4D
:10D9500006D101210120FFF7C1FF002101208CE049
:10D96000DFF8E01B884206D101210220FFF7B6FF55
:10D970000021022081E0DFF8D01B884206D101217E
:10D980000420FFF7ABFF0021042076E0DFF8BC1B8A
:10D99000884206D101210820FFF7A0FF00210820BE
:10D9A0006BE0DFF8AC1B884206D101211020FFF7A5
:10D9B00095FF0021102060E0DFF8901C884206D11E
:10D9C00001212020FFF78AFF0021202055E0DFF809
:10D9D000801C884208D101214FF40050FFF774FFEA
:10D9E00000214FF4005071E0DFF8681C884208D134
:10D9F00001214FF40020FFF767FF00214FF40020C2
:10DA000064E0DFF8541C884208D101214FF48010F3
:10DA1000FFF75AFF00214FF4801057E0DFF83C1C5D
:10DA2000884208D101214FF40010FFF74DFF00217B
:10DA30004FF400104AE0DFF8281C884206D101218B
:10DA40004020FFF74BFF0021402016E0DFF8141CB8
:10DA5000884206D101218020FFF740FF002180206D
:10DA60000BE0DFF8041C88420AD101214FF48070DA
:10DA7000FFF734FF00214FF48070BDE804402DE72C
:10DA8000DFF8E81B884208D101214FF48030FFF70E
:10DA90001BFF00214FF4803018E0DFF8D41B8842D0
:10DAA00008D101214FF40030FFF70EFF00214FF4A1
:10DAB00000300BE0DFF8701D88420AD101214FF4DD
:10DAC0008020FFF701FF00214FF48020BDE80440D3
:10DAD000FAE601BD4C5C0040005C004030B50488B3
