:020000040800F2
:1000000000500020CD7D00080D7E00080D7E000808
:100010000D7E00080D7E00080D7E00080000000027
:100020000000000000000000000000000D7E00083D
:100030000D7E0008000000000D7E00080D7E000807
:100040000D7E00080D7E00080D7E00080D7E000864
:100050000D7E00080D7E0008554500085945000832
:100060005D45000861450008654500080D7E0008F3
:100070000D7E00080D7E00080D7E00080D7E000834
:100080000D7E00080D7E00080D7E00083D3600083C
:10009000013800080D7E00080D7E00086945000843
:1000A0000D7E00080D7E00080D7E00080D7E000804
:1000B0000D7E00080D7E00080D7E00080D7E0008F4
:1000C0000D7E00080D7E00080D7E00080D7E0008E4
:1000D0000D7E0008154A00080D7E00080D7E000800
:1000E0009D4500080D7E00083F3600080000000016
:1000F0000000000000000000000000000000000000
:0C01000000000000000000005FF808F1A3
:1001100040F0BE60024B40F42020D860704700BF22
:1001200000ED00E0C2780378F2B1154A90F801C002
:10013000D2688078D24302F4E062120AC2F104016C
:100140000CFA01FC0F21D140014041EA0C010D4A9B
:1001500009019A18C9B282F800135909012203F063
:100160001F0312FA03F306E05909012203F01F03EB
:1001700012FA03F32031034A42F82130704700BFDE
:1001800000ED00E000E100E021F0604121F07F019E
:10019000014B01439960704700ED00E019B1054B38
:1001A0001A69104303E0034B1A6922EA0000186140
:1001B000704700BF00ED00E0044B04281A680CBF34
:1001C00042F0040222F004021A60704710E000E0DE
:1001D0000D4B1A6842F001021A6059680B4A01EA95
:1001E00002025A601A6822F0847222F480321A6085
:1001F0001A6822F480221A605A6822F4FE025A60B9
:100200004FF41F029A607047001002400000FFF890
:100210000C4BB0F5803F1A6822F480321A601A68DD
:1002200022F480221A6003D0B0F5802F09D104E0B7
:100230001A6842F480321A6070471A6842F4A022A9
:100240001A60704700100240034B1A6822F0F8024F
:1002500042EAC0021A60704700100240014B186069
:10026000704700BF00004242044B5A6822F47C12DF
:1002700040EA02020A435A60704700BF0010024081
:10028000014B1860704700BF60004242034B5A6840
:1002900022F0030240EA02025A6070470010024056
:1002A000024B586800F00C00704700BF001002407D
:1002B000034B5A6822F0F00240EA02025A6070478B
:1002C00000100240034B5A6822F4E06240EA020246
:1002D0005A60704700100240034B5A6822F4605283
:1002E00042EAC0025A6070470010024019B1054B43
:1002F0001A78104303E0034B1A7822EA00001870C2
:10030000704700BF09100240014B1860704700BFE2
:10031000D8004242034B5A6822F4404240EA0202AB
:100320005A60704700100240064B002201281A70E4
:100330001A7002D0042804D101E018707047052219
:100340001A70704720100240014B1860704700BFC0
:1003500080044242024B1A6A40EA02021A62704763
:1003600000100240014B1860704700BF3C0442423D
:10037000234B10B55A6802F00C02042A14D0082A44
:1003800012D15A68596802F47012920C023211F4B8
:10039000803F03D05B6813F4003F01D0194B00E0AD
:1003A000194B5A43026001E0174B0360144A174B84
:1003B0005168046801F0F0010909595C34FA01F14F
:1003C0004160546804F4E06C4FEA1C2C13F80C40B4
:1003D00031FA04F48460546804F4605C4FEADC2C65
:1003E00013F80CC021FA0CF1C160526802F44042CB
:1003F00003EB92331B7CB1FBF3F1016110BD00BF35
:100400000010024000093D0000127A0000000020A8
:1004100019B1054B5A69104303E0034B5A6922EAAC
:1004200000005861704700BF0010024019B1054B31
:100430009A69104303E0034B9A6922EA000098612D
:10044000704700BF0010024019B1054BDA69104334
:1004500003E0034BDA6922EA0000D861704700BF6D
:100460000010024019B1054BDA68104303E0034B5A
:10047000DA6822EA0000D860704700BF001002402E
:1004800019B1054B1A69104303E0034B1A6922EABC
:1004900000001861704700BF00100240014B186057
:1004A000704700BF40044242014B1860704700BFD4
:1004B0004C004242014B1870704700BF07100240C9
:1004C0004309012B02D1074B1B6804E0022B054BAB
:1004D0000CBF1B6A5B6A00F01F0033FA00F000F0EB
:1004E000010070470010024007B50023019331203E
:1004F000FFF7E6FF019B01330193019BB3F5A06F6A
:1005000001D00028F3D03120FFF7DAFF003818BF00
:1005100001200EBD024B5A6A42F080725A62704747
:1005200000100240034B9B6818420CBF00200120C2
:10053000704700BF00100240014B1870704700BFA9
:100540000A100240B1F802C00B8802884CEA03038B
:10055000B1F804C002F4415243EA0C03B1F806C0FA
:1005600043EA0C03B1F808C043EA0C03B1F80AC02F
:1005700043EA0C03B1F80CC043EA0C03B1F80EC017
:1005800043EA0C0342EA03039BB20380838B23F408
:1005900000631B041B0C83830B8A038270470023B8
:1005A000038043808380C380038143818381C3812F
:1005B0004FF0070303827047002302220380438029
:1005C0008380C38082608381704721B103889BB29E
:1005D00043F0400304E0038823F040031B041B0C9A
:1005E0000380704721B1838B9BB243F4806304E0A6
:1005F000838B23F480631B041B0C838370470909DE
:1006000001238B409BB21AB1828892B2134303E05C
:10061000828892B222EA0303838070471AB18388EA
:100620009BB2194303E083889BB223EA01018180D6
:10063000704781817047808980B270474FF6FF63B1
:100640009942038804D09BB243F4807303807047BF
:1006500019400180704721B183889BB243F00403A5
:1006600004E0838823F004031B041B0C8380704781
:10067000038823F400631B041B0C038003889BB2D4
:1006800041EA03030380704703889BB243F480531D
:100690000380704721B103889BB243F4005304E008
:1006A000038823F400531B041B0C038070470129AB
:1006B00002D0008B80B27047808A80B27047008A77
:1006C00080B27047B1F5804F038803D19BB243F4E9
:1006D000804303E023F480431B041B0C038070471A
:1006E000038919420CBF002001207047C94389B219
:1006F00001817047012301F00F0213FA02F2B0F8F2
:1007000004C000891FFA8CFC80B2104006D0090991
:100710008B401CEA030F0CBF00200120704701F042
:100720000F0101238B40DB439BB203817047838B16
:10073000F0B523F47A6323F01F031B041B0C83839F
:100740004FF0020303848B68868B022B87B004462C
:100750000D46B6B201D1002223E001A88F88FFF731
:1007600007FEEA88002F0CBF01270227B2F5007FA1
:10077000019BAA6803D11B0A0A214B4304E07F01B5
:10078000B3FBF7F30A277B43B3FBF2F305330A22EB
:100790009BB2B3FBF2F303F0010212025B089BB2BF
:1007A00092B2991E89B2FE2928BF002228BF0223D7
:1007B000E98813430B439BB223842B886A8846EA5B
:1007C000030343F400631343AA881343AA89134322
:1007D0009BB2A38307B0F0BD154B10B598420BD167
:1007E00001214FF48050FFF73DFE4FF4805000216F
:1007F000BDE81040FFF736BE0E4B984207D14FF4CC
:1008000080400121FFF73CFE4FF4804009E00A4B95
:1008100098420BD14FF400400121FFF731FE4FF415
:1008200000400021BDE81040FFF72ABE10BD00BF08
:100830000030014000380040003C0040204A03885E
:1008400090429BB20ED01F4A90420BD0B0F1804F25
:1008500008D01D4A904205D01C4A904202D01C4A42
:10086000904206D14FF68F7203EA02024B8842EAA9
:100870000303184A904209D0174A904206D04FF617
:10088000FF4203EA0202CB8842EA030303808B881B
:1008900083850B8803850A4B98420BD0094B9842FD
:1008A00008D00E4B984205D00D4B984202D00D4B0C
:1008B000984201D10B7A03864FF00103838270477F
:1008C000002C0140003401400004004000080040BA
:1008D000000C0040001000400014004000400140A7
:1008E0000044014000480140038C70B523F001032F
:1008F0001B041B0C0384038C4C880A8923F002031D
:100900001B0444EA02021B0C92B242EA03031D4A92
:10091000B0F804C0068B90421FFA8CFCB6B20D886A
:100920000BD0194A904208D0184A904205D0184A74
:10093000904202D0174A904218D14FF6F77403EA5A
:1009400004044B898A881C434FF6FB7304EA0303B3
:100950004FF6FF440CEA04041343B1F80EC08A8931
:100960004CEA020C1FFA8CFC4CEA040C4FF68C7219
:1009700006EA02022A43A0F804C00283CA888286DB
:10098000038470BD002C0140003401400040014050
:100990000044014000480140038C70B523F010036F
:1009A0001B041B0C0384038CB1F808C023F0200344
:1009B0001B041B0C43EA0C131B4EB1F802C08288C7
:1009C000058B43EA0C13B04292B2ADB20C889BB2D5
:1009D00002D0164EB0421AD14FF67F7C03EA0C0CBF
:1009E0004B894CEA031C4FF6BF730CEA0303B1F8C2
:1009F00004C043EA0C134FF2FF3C02EA0C0C8A8954
:100A00009BB24CEA820CCA894CEA820292B2828082
:100A100048F6FF4205EA020242EA042292B2028349
:100A2000CA880287038470BD002C01400034014055
:100A3000038C70B523F480731B041B0C0384038C9C
:100A4000B1F808C023F400731B041B0C43EA0C2309
:100A50001A4EB1F802C08288858B43EA0C23B0425B
:100A600092B2ADB20C889BB202D0154EB0421AD1F0
:100A70004FF2FF7C03EA0C0C4B894CEA032C4FF637
:100A8000FF330CEA0303B1F804C043EA0C234CF62D
:100A9000FF7C02EA0C0C8A899BB24CEA021CCA89D0
:100AA0004CEA021292B282804FF68C7205EA020280
:100AB00022438283CA888287038470BD002C014050
:100AC00000340140038C2DE9F04123F480531B04D2
:100AD0001B0C0384194D078C8488B0F81C80A84235
:100AE000BFB2A4B21FFA88F80A880E894B8802D0D8
:100AF000134DA84207D14BF6FF7504EA05058C8912
:100B000045EA8414A4B248F6FF4C08EA0C0C4CEAFF
:100B1000022C1FFA8CFC8480A0F81CC0CA88A0F8A4
:100B200040204DF6FF7207EA020242EA063242EA2C
:100B300003339BB20384BDE8F08100BF002C014069
:100B4000003401404A880B8842EA03038A88134331
:100B5000CA8813430A8913434A8913438A89134372
:100B60009BB2A0F8443070474FF0FF3383800023DE
:100B70000380C38043800372704700230380438057
:100B80008380C380038143818381C38170470023B5
:100B90004FF00102038043808280C380038170474D
:100BA0000023038043808380C3800381438183814A
:100BB000704721B103889BB243F0010304E003882E
:100BC00023F001031B041B0C0380704739B1B0F8FC
:100BD00044306FEA43436FEA53439BB203E0B0F8FB
:100BE00044305B045B0CA0F8443070471AB1838931
:100BF0009BB2194303E083899BB223EA01018181FF
:100C00007047818270470A43A0F8482070471AB1A4
:100C100083899BB2194303E083899BB223EA0101D4
:100C200081817047038923F007031B041B0C038198
:100C30007047B0F808C05FFA8CFC41EA0C0C42EA3D
:100C40000C0C4CEA032C1FFA8CFCA0F808C070476F
:100C500010B50446FFF7EDFF23899BB243F48043B0
:100C6000238110BD10B50446FFF7E3FF238923F06D
:100C700077031B041B0C43F07703238110BD018510
:100C800082827047038823F070031B041B0C41EA27
:100C9000030303807047038923F070031B041B0CBC
:100CA00041EA03030381704710B50446FFF7F3FFE1
:100CB00023899BB243F00703238110BDB0F808C01D
:100CC00030B5058B048C25F4407524F0220425F002
:100CD000030524042CF0070C2D04240C4FEA0C4CC3
:100CE0002D0C42EA04044FEA1C4C45F4807544EA9A
:100CF000031441EA0C0145F00105A4B2018105830A
:100D0000048430BD038B23F070031B041B0C41EAE9
:100D1000030303837047038B23F4E0431B041B0C82
:100D200043EA01239BB203837047838B23F0700354
:100D30001B041B0C41EA030383837047838B23F45A
:100D4000E0431B041B0C43EA01239BB283837047DF
:100D500021B103889BB243F0800304E0038823F0B1
:100D600080031B041B0C0380704721B183889BB256
:100D700043F0040304E0838823F004031B041B0CEA
:100D80008380704721B183889BB243F0080304E05D
:100D9000838823F008031B041B0C8380704721B158
:100DA00083889BB243F0010304E0838823F00103AE
:100DB0001B041B0C83807047038B23F008031B0468
:100DC0001B0C41EA030303837047038B23F4006386
:100DD0001B041B0C43EA01239BB203837047838BE4
:100DE00023F008031B041B0C41EA030383837047B1
:100DF000838B23F400631B041B0C43EA01239BB287
:100E000083837047038B23F004031B041B0C41EA0C
:100E1000030303837047038B23F480631B041B0CC1
:100E200043EA01239BB203837047838B23F00403BF
:100E30001B041B0C41EA030383837047838B23F459
:100E400080631B041B0C43EA01239BB2838370471E
:100E5000038B23F080031B041B0C41EA0303038371
:100E60007047038B5B045B0C43EA01239BB2038353
:100E70007047838B23F080031B041B0C41EA0303A0
:100E800083837047838B5B045B0C43EA01239BB233
:100E900083837047038C23F002031B041B0C41EA7D
:100EA000030303847047038C23F008031B041B0C0B
:100EB00041EA030303847047038C23F020031B04DF
:100EC0001B0C43EA01139BB203847047038C23F08D
:100ED00080031B041B0C43EA01139BB2038470477D
:100EE000038C23F400731B041B0C43EA01239BB205
:100EF00003847047038C23F400631B041B0C43EA38
:100F000001239BB203847047038C23F400531B041A
:100F10001B0C43EA01339BB20384704701238B40CF
:100F200012FA01F1B0F820C01FFA8CFC2CEA03037E
:100F30000384038C41EA03039BB2038470470423B8
:100F40008B4012FA01F1B0F820C01FFA8CFC2CEA99
:100F500003030384038C41EA03039BB203847047B9
:100F60004FF0010C0CFA01FC10B5048C00F11803D1
:100F7000A4B224EA0C0CA0F820C009B1082906D1BB
:100F80004908C85820F07000C850C85809E0043912
:100F900089B24908C858120220F4E040C850C85825
:100FA00092B240EA0202CA5010BD21B103889BB23E
:100FB00043F0020304E0038823F002031B041B0C2C
:100FC0000380704721B103889BB243F0040304E01F
:100FD000038823F004031B041B0C0380704721B11A
:100FE00083889BB243F0800304E0838823F080036E
:100FF0001B041B0C83807047038823F008031B0429
:101000001B0C038003889BB241EA030303807047F3
:10101000838823F070031B041B0C838083889BB29E
:1010200041EA030383807047038923F007031B040D
:101030001B0C038103899BB241EA030303817047C0
:10104000038923F080031B041B0C038103899BB2DB
:1010500041EA0303038170478184704781857047AB
:10106000818670470187704781877047A0F84010DC
:101070007047038B23F00C031B041B0C0383038BAF
:101080009BB241EA030303837047038B23F440635D
:101090001B041B0C0383038B9BB243EA01239BB20B
:1010A00003837047838B23F00C031B041B0C838387
:1010B000838B9BB241EA030383837047838B23F4C2
:1010C00040631B041B0C8383838B9BB243EA012385
:1010D0009BB283837047038823F440731B041B0C6B
:1010E000038003889BB241EA030303807047808E2C
:1010F00080B27047008F80B27047808F80B2704797
:10110000B0F8400080B27047808C80B27047008D8C
:1011100080B27047038A19420CBF0020012070473B
:10112000C94389B201827047038A828911EA0300A8
:1011300092B203D011420CBF002001207047C94376
:1011400089B201827047B0F820C010B52CF0010CB4
:101150004FEA0C4C4FEA1C4CA0F820C0B0F818C065
:10116000048C2CF0F30C4FEA0C4C24F002044FEAF0
:101170001C4C240442EA0C0C240C4CEA031C44F0E2
:1011800001041FFA8CFC0C43A0F818C0048410BDA5
:10119000B0F820C010B52CF0100C4FEA0C4C4FEA00
:1011A0001C4CA0F820C0B0F818C0048C2CF4407C73
:1011B00024F020044FEA0C5C24044FEA1C5C240C4D
:1011C0004CEA022C44F010044CEA033C44EA0114BB
:1011D0001FFA8CFCA4B2A0F818C0048410BD38B566
:1011E0000D46602D0446114603D10122FFF7D0FFC2
:1011F00002E00122FFF7A7FF20462946FFF74BFD3B
:1012000023899BB243F00703238138BD2DE9F041C8
:101210000C46A2884988B4F800C0054600290CBFD6
:1012200002270027012A0CBF022601262389BCF1D0
:10123000000F10D1FFF787FF2846E188FFF719FF5D
:101240002846394632462389FFF7A2FFE18828461F
:10125000BDE8F04119E7FFF79BFF2846E188FFF75B
:1012600014FF2846394632462389FFF76CFFE18890
:101270002846BDE8F041FCE60B882DE9F04705461D
:101280000C464BB94988A2882389FFF75CFFE188A7
:101290002846BDE8F047ECE6042B09D14988A2882E
:1012A0002389FFF775FFE1882846BDE8F047ECE6A3
:1012B000082B4F88B1F804A0B1F8088024D1068C1F
:1012C00026F480763604360C0684B0F81CC0018CF7
:1012D0002CF0F30C21F4007109044FEA0C4C090CBA
:1012E0004FEA1C4C4CEA081C41EA07211FFA8CFC0F
:1012F00089B24CEA0A0A41F48071A0F81CA001846A
:10130000E188BDE8F047CDE6018C21F48051090465
:10131000090C0184828B038C22F4407223F4005365
:1013200012051B04120D1B0C42EA0A2243EA073382
:1013300042EA08329BB292B243F480538283038420
:10134000E188BDE8F047B9E65A4B10B5984207D19D
:101350004FF400600121FFF785F84FF40060A2E030
:10136000B0F1804F05D101200146FFF789F8012037
:1013700007E0514B984209D102200121FFF780F884
:1013800002200021BDE81040FFF77AB84B4B98428D
:1013900005D104200121FFF773F80420F1E7484B41
:1013A000984205D108200121FFF76AF80820E8E7F4
:1013B000444B984205D110200121FFF761F810201D
:1013C000DFE7414B984205D120200121FFF758F873
:1013D0002020D6E73D4B984207D14FF40050012121
:1013E000FFF740F84FF400505DE0394B984207D1C9
:1013F0004FF400200121FFF735F84FF4002052E0B0
:10140000344B984207D14FF480100121FFF72AF89E
:101410004FF4801047E0304B984207D14FF4001052
:101420000121FFF71FF84FF400103CE02B4B9842CE
:1014300005D140200121FFF723F84020A1E7284BE8
:10144000984205D180200121FFF71AF8802098E703
:10145000244B984207D14FF480700121FFF710F818
:101460004FF480708DE7204B984207D14FF48030C5
:101470000121FEF7F7FF4FF4803014E01B4B984238
:1014800007D14FF400300121FEF7ECFF4FF400309C
:1014900009E0174B98420BD14FF480200121FEF751
:1014A000E1FF4FF480200021BDE81040FEF7DABFD5
:1014B00010BD00BF002C01400004004000080040A7
:1014C000000C0040001000400014004000340140B7
:1014D000004C014000500140005401400018004001
:1014E000001C00400020004000400140004401403A
:1014F0000048014001F10051013201F5405110B5A1
:1015000049005208002309E0C41810F803C06478A9
:10151000013A4CEA042C21F813C00233002AF3D11B
:1015200010BD01F10051013201F54051490052084E
:10153000002305E031F813C0013A20F803C002335C
:10154000002AF7D170470000014B1860704700BFB8
:10155000405C0040014B186880B27047405C00401E
:10156000014B1860704700BF445C0040014B186895
:1015700080B27047445C0040014B186880B27047ED
:10158000485C0040014B1860704700BF4C5C004055
:10159000014B186880B270474C5C00404FF6F873FE
:1015A000024A00EA03031360704700BF505C00402A
:1015B000014B186880B27047505C0040800000F119
:1015C000804000F5B84001607047800000F1804025
:1015D00000F5B840006880B27047800000F180409C
:1015E00000F5B840026848F68F1302EA03030B4384
:1015F00003607047800000F1804000F5B84000684B
:1016000000F4C0607047800000F1804000F5B840F1
:10161000026848F6BF7302EA030311F0100F18BF07
:1016200083F0100311F0200F18BF83F0200343F460
:10163000004343F0800303607047800000F1804066
:1016400000F5B84002684BF68F7302EA030311F409
:10165000805F18BF83F4805311F4005F18BF83F4D8
:10166000005343F4004343F080030360704738B5F0
:101670000D460446FFF7A9FF012D08D1A40004F18F
:10168000804404F5B84420F48050206038BD022D19
:1016900007D1A40004F1804404F5B84420F0100000
:1016A000206038BD800000F1804000F5B84000683F
:1016B00000F030007047800000F1804000F5B84035
:1016C000006800F440507047800000F1804000F551
:1016D000B840026848F6BF7302EA030383F03003A0
:1016E00043F4004343F0800303607047800000F13F
:1016F000804000F5B84002684BF68F7302EA03039E
:1017000083F4405343F4004343F080030360704785
:10171000800000F1804000F5B840026840F60F6399
:1017200002EA030343F4004343F4C07303607047C9
:10173000800000F1804000F5B840026840F60F6379
:1017400002EA030343F4004343F08003036070475D
:10175000800000F1804000F5B840026840F60F6359
:1017600002EA030343F4004343F08003036070473D
:10177000800000F1804000F5B840026840F60F6339
:1017800002EA030343F4004343F4C0730360704769
:10179000800000F1804000F5B840026840F60F6319
:1017A00002EA030343F4004343F4C0730360704749
:1017B000800000F1804000F5B840026840F60F63F9
:1017C00002EA030343F4004343F0800303607047DD
:1017D000800000F1804000F5B840006800F0300063
:1017E000102814BF002001207047800000F18040C5
:1017F00000F5B840006800F44050B0F5805F14BFB9
:10180000002001207047800000F1804000F5B840C2
:10181000026840F60F7302EA030343F0800303609B
:101820007047800000F1804000F5B840026840F643
:101830000F7302EA030343F4004303607047800020
:1018400000F1804000F5B840026840F60F7302EAEC
:10185000030343F4404343F0800303607047800078
:1018600000F1804000F5B840026840F60F7302EACC
:10187000030343F4004343F0C00303607047800058
:1018800000F1804000F5B840036813F4804F09D0A0
:10189000026840F60F7302EA030343F4404343F047
:1018A000800303607047800000F1804000F5B8407D
:1018B000036813F0400F09D0026840F60F7302EA84
:1018C000030343F4004343F0C00303607047800008
:1018D00000F1804000F5B840036841F4004140F653
:1018E0000F7241F0800103EA020241EA0202026043
:1018F0007047800000F1804000F5B840006800F0BB
:101900000F007047074B4FF6FE721B6801EA020298
:101910009BB203EBC00303F1005303F540535B009C
:101920001A607047505C0040064B074A1B689BB228
:1019300003EBC0039A184FF6FE73520001EA03034B
:1019400013607047505C004004300020054B1B685A
:101950009BB203EBC00303F1005303F540535B005C
:1019600018887047505C0040044B054A1B689BB2C6
:1019700003EBC0039A18520010887047505C004077
:1019800004300020044B054A1B689BB203EBC003E4
:101990009A18520011607047505C004002300020DD
:1019A0003E2909D94B0911F01F0F01D1013B9BB210
:1019B0009B0243F4004305E04B0811F0010F18BFF0
:1019C00001339B02036070470D4B1A680D4B92B2B6
:1019D000D31803EBC0035B003E2909D94A0911F073
:1019E0001F0F01D1013A92B2920242F4004205E087
:1019F0004A0811F0010F18BF013292021A607047B5
:101A0000505C004006300020054B064A1B689BB224
:101A100003EBC0039A18520010688005800D7047D0
:101A2000505C004002300020054B064A1B689BB208
:101A300003EBC0039A18520010688005800D7047B0
:101A4000505C0040063000200D4B30B51C681B6810
:101A5000C000A4B204199BB2C01804F10054094B91
:101A600004F540546500C3184FF6FE7401EA0404FF
:101A700059004FF6FE7302EA03032C600B6030BD81
:101A8000505C004004300020074B4FF6FE721B688C
:101A900001EA02029BB203EBC00303F1005303F51A
:101AA00040535B001A607047505C0040064B074A89
:101AB0001B689BB203EBC0039A184FF6FE735200EB
:101AC00001EA030313607047505C004004300020BB
:101AD000054B1B689BB203EBC00303F1005303F5F6
:101AE00040535B0018887047505C0040044B054A27
:101AF0001B689BB203EBC0039A1852001088704712
:101B0000505C004004300020012924D1254B264997
:101B10001B68C0009BB2591809184B003E2A09D90E
:101B2000510912F01F0F01D1013989B2890241F424
:101B3000004105E0510812F0010F18BF0131890280
:101B40001960184B1968194B89B2CB181818400046
:101B50003E2A1FD913E0022923D11249C0000B6885
:101B60001FFA83FC104B844463445B001A600B68CB
:101B70009BB2C0180D4BC3185B001A607047530925
:101B800012F01F0F01D1013B9BB29B0243F40043B3
:101B900003607047530812F0010F18BF01339B0216
:101BA00003607047505C0040023000200630002087
:101BB00001291BD1134B1968134B89B2CB1803EBC6
:101BC000C00040003E2A09D9530912F01F0F01D16D
:101BD000013B9BB29B0243F4004305E0530812F023
:101BE000010F18BF01339B0203607047022908D11F
:101BF000044B1B689BB203EBC000034BC3185B0094
:101C00001A607047505C00400230002001291BD14F
:101C1000134B1968134B89B2CB1803EBC00040007B
:101C20003E2A09D9530912F01F0F01D1013B9BB283
:101C30009B0243F4004305E0530812F0010F18BF64
:101C400001339B0203607047022908D1044B1B68D3
:101C50009BB203EBC000034BC3185B001A607047D4
:101C6000505C004006300020054B064A1B689BB2C2
:101C700003EBC0039A18520010688005800D70476E
:101C8000505C004002300020054B064A1B689BB2A6
:101C900003EBC0039A18520010688005800D70474E
:101CA000505C0040063000200D4BC0001A680D4902
:101CB00092B28218511849000A8812F47C4F01D060
:101CC000012070471B689BB2C018074BC3185B000C
:101CD00018888005800D002814BF0220002070475E
:101CE000505C0040063000200230002001290FD156
:101CF000800000F1804000F5B840026840F60F73A4
:101D000002EA030343F4004343F0C0030360704757
:101D100002290ED1800000F1804000F5B840026831
:101D200040F60F7302EA030343F4404343F0800399
:101D30000360704741EA00207047C3B2000A40EADE
:101D400003207047084B10B5084C1B6800209847CB
:101D500023681B6F984723689B6F984700F0B8F87B
:101D600000F0B0F8FCE700BF60800008F40000203D
:101D7000F8B5254B07461A680E46002A03DA0122F9
:101D80005A60013A9A60FB683046D3F88030984731
:101D9000FB683046D3F89C3098471B4CFB68A26820
:101DA000054604F10C018918D3F8A03030462A46C4
:101DB0009847FB683046D3F898300121984705B31F
:101DC000A36893B9237B0F2B07D80A2B03D1637B1E
:101DD000A27B073306E0256007E013F0800F04D1F3
:101DE000A27B637B03EB02232360074B9A68AD1849
:101DF0009D601A689968914203D31A6842F00042C4
:101E00001A600020F8BD00BFD0090020CB6810B5D3
:101E10009B6C02200C46984758B9E36803309B6FCF
:101E2000984730B9E36803305B6F0349984700B9BE
:101E300010BD6FF0050010BD711D0008F7B51D4CF9
:101E40002368002B34DA1C4B00209F6E02464FF4AF
:101E50000071B847204650F80C1B89B205F0F6F91E
:101E6000164BD3F8142F32B1D3F8142F42F000429E
:101E7000C3F8142F00E022600E4E00250F4CB56011
:101E8000D4F8143FAB420EDA06F10C030093D4F8F9
:101E9000143F0B489BB202216A46019303F088FD70
:101EA0003560C4F8145F4FF4007100200A46B8474B
:101EB0000020FEBDD009002060800008C81A002064
:101EC00014000020014803F0C4BC00BF140000202F
:101ED000F7B5194F4FF4A060FEF71AF90024252337
:101EE000012601A88DF804308DF805408DF80640D4
:101EF0008DF80760FEF716F93D6D2046A84730467D
:101F0000A8470220A8474FF40071BB6E0A4620463E
:101F100098472046A84709213246BB6D204698477E
:101F2000064BD3F884309847054804F0DEFD054899
:101F300003F045FCFEBD00BF60800008B87F0008CC
:101F4000E031002014000020034600E001331A783D
:101F5000002AFBD1181A704730B50023C25C5D1807
:101F600022B1CC5C14B10133A242F7D02878101A08
:101F700030BD0B7810B543B102460023CC5C013272
:101F8000C4540133002CF9D1147010BD0B7830B556
:101F90005BB1044600239A4205D0CD5C0134C554A0
:101FA0000133002DF7D10023237030BD00E0013054
:101FB000037813B1CAB29342F9D1C9B28B4218BFA8
:101FC000002070470A7810B5034662B108E000228D
:101FD0008C5CD01844B1985C0132A042F8D0013337
:101FE0001A78002AF3D1002010BD10B5024600E097
:101FF00001321378002BFBD1CC5CD4540133002C7C
:10200000FAD110BD30B5044600E001342378002B2E
:10201000FBD12AB1CD5C013AE5540133002DF8D152
:1020200030BD002304E011F803C000F803C0013301
:10203000013AF8D2704710B5002309E0C45C11F8EA
:1020400003C00133644502D0CCEB040010BD013A5B
:10205000002AF3DC002010BD002302E0C154013A45
:102060000133002AFADC704710B50446FFF76CFF15
:10207000013005F032E92146BDE8104079E7000063
:10208000054B1A680AB9054A1A60034A13681818FA
:1020900010601846704700BFE0390020043D002062
:1020A0004FF0FF307047002070474FF400534B60F3
:1020B00000207047012070470020704700207047C3
:1020C0001046704700234FF4003230B580EA020416
:1020D00081EA030554EA050C00F0EF80824273EBBD
:1020E000010C67D31022002380EA020481EA030571
:1020F00054EA050C00F0D580824273EB010C27D323
:102100000222002380EA020481EA030554EA050C56
:1021100000F0BF80824273EB010C08D30122002340
:102120005040594050EA010300F0B580DDE0042240
:10213000002342404B4052EA030C00F0AE800822DC
:1021400000235040594050EA010300F0A880CCE041
:102150008022002380EA020481EA030554EA050C88
:1021600000F0A580824273EB010C10D320220023E3
:1021700042404B4052EA030C00F09580402200237D
:102180005040594050EA010300F08F80ADE0002339
:102190004FF4807242404B4052EA030C00F08980B9
:1021A00000234FF480325040594050EA010300F0C0
:1021B00082809AE000234FF4000280EA020481EA60
:1021C000030554EA050C00F08680824273EB010C93
:1021D0002FD300234FF4801280EA020481EA030522
:1021E00054EA050C6FD0824273EB010C10D300232C
:1021F0004FF4802242404B4052EA030C5FD0002350
:102200004FF400225040594050EA01035DD06CE089
:1022100000234FF4001242404B4052EA030C56D0C8
:1022200000234FF480025040594050EA010350D03F
:102230005BE000234FF0806280EA020481EA03053C
:1022400054EA050C4DD0824273EB010C10D30023ED
:102250004FF0807242404B4052EA030C3DD00023C5
:102260004FF000725040594050EA010337D03CE033
:1022700000234FF0006242404B4052EA030C20D052
:1022800000234FF080525040594050EA01032AD0B9
:102290002BE0174830BD174830BD174830BD1748F0
:1022A00030BD174830BD174830BD174830BD1748FE
:1022B00030BD174830BD174830BD174830BD1748EE
:1022C00030BD174830BD174830BD174830BD1748DE
:1022D00030BD174830BD174830BD174830BD1748CE
:1022E00030BD174830BD174830BD002030BD00BF9D
:1022F000F4840008FC840008068500080E850008A8
:10230000178500081F850008298500083185000809
:1023100039850008438500084C8500085885000869
:1023200064850008718500087885000887850008A5
:1023300097850008A3850008AB850008B4850008D0
:10234000BB850008C3850008072930B502F00F0CD3
:102350000BD88B000F249C400CFA03FC056825EA7F
:10236000040444EA0C0303600CE0A1F108039B00A1
:102370000F249C400CFA03FC456825EA040444EA57
:102380000C03436012F0200F0BD012F0100F04D09A
:10239000012313FA01F1016130BD012313FA01F1A8
:1023A000416130BD08B5024BD3F8D032984708BD23
:1023B0006080000808B5034B4004D3F8D432400CC9
:1023C000984708BD6080000808B5034B4004D3F867
:1023D000D832400C984708BD6080000808B5024B11
:1023E000D3F8BC32984708BD6080000808B5024B9E
:1023F000D3F8C032984708BD6080000808B5024B8A
:10240000D3F8C432984708BD6080000808B5024B75
:10241000D3F8C832984708BD6080000808B5024B61
:10242000D3F8CC32984708BD608000080020704780
:10243000002070470020704708B1024A0260002067
:10244000704700BFB87F0008002814BF4FF0FF306E
:1024500000207047002814BF4FF0FF300020704765
:1024600010B14FF0FF30704711F0010F02D0164B42
:1024700002225A6111F0020F02D0134B01225A615D
:1024800011F4807F03D0104B4FF480425A6111F059
:10249000040F03D00D4B4FF400725A6111F0080F76
:1024A00003D00A4B4FF480625A6111F0100F03D031
:1024B000054B4FF400525A6111F0400003D0024B1B
:1024C00020225A6100207047000C014000080140A2
:1024D00010B14FF0FF30704711F0010F02D0164BD2
:1024E00002221A6111F0020F02D0134B01221A616D
:1024F00011F4807F03D0104B4FF480421A6111F029
:10250000040F03D00D4B4FF400721A6111F0080F45
:1025100003D00A4B4FF480621A6111F0100F03D000
:10252000054B4FF400521A6111F0400003D0024BEA
:1025300020221A6100207047000C01400008014071
:1025400010B14FF0FF30704721F47E7323F0070382
:1025500013B16FF00600704711F0010F09D012F0AF
:10256000010F03D0274B0220186102E0254B022007
:10257000586111F0020F09D012F0020F03D0214B65
:102580000120186102E01F4B0120586111F4807F87
:1025900007D01C4B12F4807F4FF4804014BF1861A9
:1025A000586111F0040F07D0174B12F0040F4FF4CD
:1025B000007014BF1861586111F0080F07D0124B5A
:1025C00012F0080F4FF4806014BF1861586111F0C9
:1025D000100F07D00B4B12F0100F4FF4005014BF28
:1025E0001861586111F040000AD012F0400004D088
:1025F000044B20221A6100207047024B20225A61AE
:10260000704700BF000C01400008014010B14FF0BE
:10261000FF30704721F46A7323F0070313B16FF0A2
:102620000600704711F0010304D0234B9B685B0840
:1026300003F0010311F0020F06D01F48806810F06C
:10264000010F18BF43F0020311F4807F06D01A482F
:10265000806810F4804F18BF43F4807311F0040FAA
:1026600006D01648806810F4007F18BF43F00403BA
:1026700011F0080F06D01148806810F4806F18BF61
:1026800043F0080311F0200F06D00B48806810F0CB
:10269000400F18BF43F0200311F0800F06D0074908
:1026A000896811F0400F18BF43F080030AB9104643
:1026B0007047136000207047000C01400008014083
:1026C0002DE9F041069E0C4615461F4618B14FF005
:1026D000FF30BDE8F08121F4567323F00703134265
:1026E00040F0E78021F46A7323F00703934340F03E
:1026F000E08011F0010F35D012F0010F07F0010357
:1027000020D006F001087BB16C4801210722FFF7B9
:102710001BFEB8F1000F03D0684B02221A6121E0C2
:10272000664B02225A611DE0B8F1000F03D0634BE3
:1027300002221A6102E0614B02225A615F480121C4
:1027400003220DE04BB116F0010F5C4802D00121CD
:10275000382205E00121282202E058480121042204
:10276000FFF7F2FD14F0020F21D015F002010DD099
:1027700016F0020F03D0514B01221A6102E04F4BB9
:1027800001225A614D48002103220EE017F0020396
:1027900008D016F00203494801D0382205E0194656
:1027A000282202E0454819460422FFF7CDFD14F423
:1027B000807F13D015F4807F0BD0404B16F4807FC0
:1027C0004FF4804214BF1A615A613C480E21032223
:1027D00002E03A480E210422FFF7B6FD14F0040F80
:1027E00020D015F0040F0BD0354B16F0040F4FF42A
:1027F000007214BF1A615A613148092103220FE0A7
:1028000017F0040F09D016F0040F2D4802D009214B
:10281000382205E00921282202E029480921042262
:10282000FFF792FD14F0080F20D015F0080F0BD021
:10283000234B16F0080F4FF4806214BF1A615A61DF
:102840001F480A2103220FE017F0080F09D016F0E5
:10285000080F1B4802D00A21382205E00A2128224D
:1028600002E017480A210422FFF76EFD14F0100F52
:1028700004D012480D210322FFF766FD14F0400F2B
:1028800004D00E4805210322FFF75EFD14F0200F4F
:1028900004D00A4806210422FFF756FD14F08000F8
:1028A00009D0074806210422FFF74EFD0020BDE8AD
:1028B000F0816FF00600BDE8F08100BF000C014020
:1028C0000008014010B14FF0FF307047014802F09E
:1028D000FDBE00BFF800002038B50C46054610B11B
:1028E0004FF0FF3038BD11B96FF0080038BD09480E
:1028F00003F0F8FF2060074803F0EAFF6060064835
:1029000003F0F0FFA060044803F0E2FFE060284617
:1029100038BD00BFFC0000200C01002007B510B13D
:102920004FF0FF3009E011B96FF0080005E00091A9
:1029300002486946019202F0F4FE0EBDF800002044
:1029400007B510B14FF0FF3009E011B96FF0080082
:1029500005E0009102486946019202F0D5FE0EBDE5
:10296000F800002010B14FF0FF307047034880F8A6
:102970002820416280F8293002F08CBEF800002047
:1029800010B14FF0FF307047014802F075BE00BF34
:10299000F800002010B14FF0FF307047014802F0FE
:1029A000D6BE00BFF8000020002330B51A4624E050
:1029B000154C4FF4005525616561A4684FEADC0CA5
:1029C00014F4804F1FFA8CFC03F007040BD0012590
:1029D00015FA04F410F80C50013245EA040400F82A
:1029E0000C40D2B208E0012515FA04F410F80C509E
:1029F00025EA040400F80C4001331FFA83FC8C45DF
:102A0000D6D302F0010030BD000C0140002330B5E8
:102A10001A4618E04FEADC0C10F80C4003F0070CE3
:102A200044FA0CFC1CF0010F4FF48045094C03D014
:102A300001322561D2B200E06561064C4FF40055C9
:102A40002561013365611FFA83FC8C45E2D302F0F6
:102A5000010030BD000C01402DE9F047002504467F
:102A600089462E4632E01D4B1D4F18881D4B4FF4F2
:102A7000005AD3F88C30C7F810A09847C7F814A0B4
:102A8000BB684FEAD80813F4804F1FFA88F805F0A6
:102A900007030BD0012212FA03F314F808200136C1
:102AA00042EA030304F80830F6B208E0012212FA01
:102AB00003F314F8082022EA030304F80830074B54
:102AC00001351888074BD3F88C3098471FFA85F8E2
:102AD000C845C8D306F00100BDE8F087E4390020FE
:102AE000000C0140B87F00082DE9F84F184B002575
:102AF00004468B46D3F88C702E4621E0DB08E25C5E
:102B000005F0070352FA03F313F0010F4FF480426C
:102B1000104B03D001361A61F6B200E05A61DFF8BB
:102B20003890DFF830804FF4005AB9F80000B84709
:102B3000C8F810A0B9F80000B8470135C8F814A0CB
:102B4000ABB25B45DAD306F00100BDE8F88F00BFF9
:102B5000B87F0008000C0140E439002007B50023CD
:102B600002A840F8043D024B08215B6898470EBD5F
:102B7000E4390020064B20B9064A9A60064A5A609A
:102B800070470649421E996005491A80596070478E
:102B9000E4390020A92900080D2A0008592A000854
:102BA000E92A00080E289CBF014B1870704700BF2F
:102BB00028010020014B9881704700BFE4390020B4
:102BC000002814BF4FF0FF300020704738B50B4687
:102BD000044610B14FF0FF3038BD11B96FF0080056
:102BE00038BD034918468D681146A847204638BDB0
:102BF000E4390020F8B50D461746064610B14FF0EF
:102C0000FF30F8BD11B96FF00800F8BD0A4C4FF461
:102C100080430322236120460E21FFF795FB074BDB
:102C200039465B682846984720460E210422FFF764
:102C30008BFB3046F8BD00BF000C0140E43900209A
:102C40000E21042210B50548FFF77EFB03480D2135
:102C50000422BDE81040FFF777BB00BF000C014025
:102C600010B5044610B14FF0FF3010BDFFF7E8FF7C
:102C7000204610BD0E21042210B50648FFF764FB64
:102C800004484FF400530D2103220361BDE81040B6
:102C9000FFF75ABB000C014070B514461E460546AE
:102CA00010B14FF0FF3070BD0846FFF77BFF2046A4
:102CB000FFF780FF3046FFF75DFFFFF7DBFF284699
:102CC00070BD2DE9F04F89B08DF80F0000F00400C1
:102CD0008A46029000264E4D4FF480484D4C032208
:102CE00028460E21C5F81080FFF72EFB63680821E7
:102CF0000DF10F009847284604220E21FFF724FB10
:102D0000DAF8003004AF1A0A8DF810308DF811206F
:102D10001A0C1B0E8DF81330029B8DF8122006A89A
:102D20003D4A03B30192A36803219847A368202179
:102D3000384698470DF1140B81468DF81F00A368A3
:102D4000012158469847019A48448DF81F00117890
:102D5000A36858469847C5F8108028460E210322DC
:102D6000FFF7F2FA18E01178A36803319847284674
:102D70000322C5F810800E21FFF7E6FA63682021D0
:102D800038469847054608A800F8015D63680121A8
:102D9000984740198DF81F00FFF7E0FE1C480E21F0
:102DA0000422FFF7D1FA029B73B19DF812309DF80F
:102DB00011201B0443EA02233A7813439DF81320A1
:102DC00043EA0263CAF80030069800F007000228C0
:102DD00006900FD0042802D0012814D101E08420ED
:102DE00013E09DF81F0000F0010000280CBF012037
:102DF00011200AE0074B01369B89B6B2B3423FF679
:102E00006AAF422001E040F0200009B0BDE8F08F39
:102E1000000C0140E43900202801002038B51C4690
:102E2000054610B14FF0FF3038BD12B96FF0080001
:102E300038BD48088B0803F0010300F00100C018FA
:102E4000CB0803F00103C01800EB111000F00100E3
:102E500041EA401141F0810000F0BF001146FFF748
:102E600030FF0CB9204638BD2070284638BD00BF61
:102E700000207047014B0360002070472C010020A8
:102E800000207047054A064BD16801F4E06141EA31
:102E90000303D360BFF34F8FFEE700BF00ED00E0F8
:102EA0000400FA0501220023824205D001331F2BC2
:102EB00001D05200F8E7002318467047024B042265
:102EC00000201A609860704710E000E038B50446B2
:102ED000FFF7F4FF12E00B4B6FF07F45AC4238BFB9
:102EE00025465D601A6842F001021A60054B1B68B6
:102EF00013F4803FFAD0FFF7E1FF641B002CEAD106
:102F0000204638BD10E000E008B5054B5A6A054B75
:102F1000B2FBF3F35843FFF7D9FF002008BD00BF11
:102F20002C01002040420F0008B5054B5A6A4FF4AF
:102F30007A73B2FBF3F35843FFF7C8FF002008BDD4
:102F40002C010020044A4FF080439B8C908C9BB254
:102F500043EA0040704700BF000C004010B5FFF787
:102F6000F1FF0446FFF7EEFF8442F8D110BD08B52B
:102F700000214FF40060FDF759FA01200021FDF710
:102F800063FA08200021FDF75FFA002008BD2DE953
:102F9000FF4101214FF40060FDF748FA012001468E
:102FA000FDF752FA01210820FDF74EFA3D48FEF7E1
:102FB000CBF94FF08040FEF7C7F901AD3A48FEF774
:102FC000C3F92846FDF7D0FD384B00245A694FF469
:102FD000FA63B2FBF3F3012629463248ADF8083014
:102FE000ADF80460ADF80640ADF80A408DF80C402D
:102FF000FDF724FC20212B48FEF70AF88021294800
:10300000FEF71EF82846FDF7AFFD4FF6FF7829467C
:103010004FF08040ADF80440ADF80640ADF80880B0
:10302000ADF80A408DF80C40FDF708FC07214FF081
:103030008040FDF7F9FF21464FF08040FDF734FE58
:1030400020214FF08040FDF7E3FF80214FF08040CA
:10305000FDF7F6FF31464FF08040FDF7AAFD284608
:10306000FDF782FD29461048ADF80440ADF8064052
:10307000ADF80880ADF80A408DF80C40FDF7DEFB96
:1030800007210948FDF7D0FF21460748FDF70CFE50
:1030900005483146FDF78DFD2746204604B0BDE8C2
:1030A000F08100BF002C0140000C00402C010020EA
:1030B00008B503480021FDF77CFD002008BD00BFD6
:1030C000002C014008B503480121FDF772FD0020E6
:1030D00008BD00BF002C014010B5864668B1664CA3
:1030E000BEE80F00A446ACE80F00BEE80F00ACE855
:1030F0000F009EE803008CE803005F4B1A78012A5A
:1031000003D002D3022A04D101E05C4A00E05C4A09
:103110005A62FDF75DF8584B1A78012A05D05A78A3
:103120001AB1012A01D09B78ABB9564B1A6842F408
:1031300080321A60504AD2781AB91A6842F4802252
:1031400002E01A6822F480221A604E4B1B6813F4C6
:10315000003FFAD004E04B4B1A6822F480321A6028
:10316000494B484C12221A60636823F47E5323F0C3
:1031700070036360404B586ADB68B0FBF3F0FFF705
:1031800091FE30B16268431E43F0080342EA031324
:103190006360394B586A1B69B0FBF3F0FFF782FE9E
:1031A00038B1384A431E516843F0040341EA03230F
:1031B0005360314B586A5B69B0FBF3F0FFF772FE66
:1031C000034638B12F4A591E506841F0040140EAC5
:1031D000C12151602849886800282CD0294A91F8DB
:1031E00001C05468BCF1010F24F47C1454600BD06E
:1031F00005D3264ABCF1020F08BF13460AE04B680C
:10320000516841F4803104E04B6851685B0841F437
:10321000403151601B4AB0FBF3F35168023B41EA75
:1032200083435360136843F080731360154B1B682E
:1032300013F0007FFAD0134B5A6822F003025A6051
:103240005A6842F002025A600E4B5A68920802F025
:103250000302022AF8D19A6942F001029A610C4AEB
:10326000054B516893F8200041EA00615160DA692A
:10327000084B00209A6010BD2C01002000127A003B
:1032800000A24A04001002400020024000093D0054
:103290000000014000ED00E004218140034B0020CC
:1032A0009A6941EA02029A61704700BF0010024029
:1032B00004218140054BC9439A69002001EA0202BA
:1032C0009A61DA681140D960704700BF001002406F
:1032D000800200F18040072930B502F00F0300F5AD
:1032E00084300DD84FEA810C0F2404FA0CF403FA51
:1032F0000CFC056825EA040444EA0C0404600EE0B2
:10330000A1F1080C4FEA8C0C0F2404FA0CF403FA18
:103310000CFC456825EA040444EA0C044460082BCC
:103320000BD112F0800F04D0073B13FA01F10161B9
:1033300003E0012313FA01F14161002030BD800256
:1033400000F180402DE9F04F00F584308B46056890
:103350000999446802274FF0000C4FF0010A0AFA5D
:103360000CF616EA0B0F25D04FEA8C094FF00F0828
:1033700008FA09F8164225EA08080ED0032505FACE
:1033800009F548EA050501EA030818EA060F0DD019
:103390000AFA07FA45EA0A0508E01E4202D010259B
:1033A000BD4001E00AFA07F548EA05050E4214BFE0
:1033B000066146610CF108064FF0010808FA06F6AE
:1033C00016EA0B0F27D04FEA8C084FF00F0A0AFAC3
:1033D00008FA164224EA0A0A10D0032404FA08F470
:1033E0004AEA040401EA030A1AEA060F0FD04FF072
:1033F000040A0AFA08F844EA080408E01E4201D068
:10340000082400E0042404FA08F44AEA04040E4202
:1034100014BF066146610CF1010C0437BCF1080FC2
:103420009BD1056044600020BDE8F08F800200F170
:10343000804000F58430016100207047800200F177
:10344000804000F58430416100207047800200F127
:10345000804000F5843002EA010321EA02010361A1
:10346000416100207047800200F1804000F5843007
:103470008368002001EA030313607047800200F1B3
:10348000804000F58430806801EA0000704700BF8A
:10349000002070470020704700207047024B1868DA
:1034A00000F07F00704700BF4C5C00400020704778
:1034B0000020704700207047024B4FF400721A80C2
:1034C000002070475401002000230649DAB2C95693
:1034D000884201D1104603E00133082BF5D1FF20CB
:1034E00040B27047F43900200020704710B50C46F8
:1034F000FFF7EAFFC0B210F0800F02D06FF00500B6
:1035000010BD034B03EB80008460002010BD00BFA2
:10351000F439002008B5FFF7D7FFC0B210F0800FD4
:1035200001D0012008BD024B181890F8280008BDF2
:10353000F439002008B5FFF7C7FFC0B210F0800FC4
:1035400001D0002008BD024B03EB4000008E08BDF7
:10355000F439002010B50C46FFF7B6FFC0B210F0EA
:10356000800F02D06FF0050010BD034B03EB80000D
:103570000464002010BD00BFF439002008B5FFF737
:10358000A3FFC0B210F0800F01D0012008BD024B94
:10359000181890F8600008BDF439002008B5FFF74E
:1035A00093FFC0B210F0800F01D0002008BD034B84
:1035B00003EB4000B0F8680008BD00BFF4390020FC
:1035C00010B52FE001F00F0147F6FF7288001A6076
:1035D00000F1804303F5B8431A6892B212F4004F29
:1035E0000BD01C6840F60F7204EA020242F080021F
:1035F0001A60104A8018036C0DE012F0800F11D091
:103600001C6840F60F7204EA020242F400421A609B
:10361000084A801883682BB1515C11F0800F01D1EA
:10362000906F9847044B196889B211F4004FC9D1C3
:1036300010BD00BFF4390020445C0040C0E7704773
:1036400037B54FF00003ADF8063071E03C4A01F0A9
:103650000F041357002B34D111F010010CD139484D
:1036600040F60F73056802EB840405EA030343F494
:1036700000430360A3681FE0324B196889B2ADF8BC
:103680000610186840F60F7100EA010141F0800150
:103690001960BDF8061011F4006105D0906F03B0F9
:1036A000BDE8304002F0B7BDBDF806301BB2002BBC
:1036B00044DA02EB8404236C002B3FD0906F9847D0
:1036C0003CE0A10001F1804505F5B8452B689BB2AF
:1036D000ADF80630BDF806301BB2002B10DA2868B2
:1036E00040F60F7300EA030343F0800389182B6050
:1036F0000B6C2BB1115D11F0800F01D1906F9847C9
:10370000BDF8063013F0800F12D02A6840F60F7310
:1037100002EA03030A4A43F400432B6002EB8403EA
:103720009B682BB1115D11F0800F01D1906F98470C
:10373000054B196889B211F4004F87D103B030BD31
:10374000F4390020005C0040445C00402A4B10B576
:103750001C68A4B214F4806F06D04FF6FF321A60D2
:10376000264B986F02F0F7FB14F4804F03D0224BE6
:103770004BF6FF721A6014F4005F08D01E4B4DF632
:10378000FF721A601D4B0021986F02F0CAFB14F4FF
:10379000805F07D0184B4EF6FF721A60174B986F78
:1037A00002F0A1FB14F4006F07D0144B986F02F0E5
:1037B000A0FB114B4FF2FF721A6014F4007F07D088
:1037C0000D4B4FF6FF521A600C4B986F02F0A3FBA3
:1037D00014F4807F08D0084B4FF6FF621A60074B45
:1037E0000221986F02F09DFB14F4004F02D0BDE857
:1037F000104025E710BD00BF445C0040F4390020B4
:10380000A4E708B5FFF7A2FF002008BDF8B50E46F3
:103810001546FFF759FEC0B210F0800F02D06FF0CE
:10382000050420E0114BC7B2FB1893F8604094B137
:103830003846FDF7CAFE10F04004384608D0FEF7BF
:1038400055F92A4601463046FDF76BFE00240AE092
:10385000FEF73EF902E03846FEF786F801462A46B2
:103860003046FDF75EFE2046F8BD00BFF43900206B
:1038700010B5FFF729FEC0B210F0800F01D0002074
:1038800010BD0C4BC4B2E31893F8603063B120460E
:10389000FDF79BFE10F0400F2046BDE8104001D020
:1038A000FEF7F2B9FEF7E0B92046BDE81040FEF79A
:1038B000BBB800BFF439002008B5FFF705FEC0B261
:1038C00010F0800F11D1FDF7F6FEB0F5005F06D0C5
:1038D000B0F5405F07D0B0F5805F02D105E002206F
:1038E00008BD032008BD012008BD002008BD10B59B
:1038F0000C46FFF7E9FDC0B210F0800F02D06FF068
:10390000050010BDC0B2032C03D8DFE804F00508A1
:103910000B116FF0060010BD4FF4805104E04FF41E
:10392000405101E04FF40051FDF787FE002010BD2B
:103930000021FDF782FE002010BD08B5FFF7C4FD91
:10394000C0B210F0800F02D06FF0050008BDFDF787
:1039500076FF002008BD08B5FFF7B6FDC0B210F035
:10396000800F02D06FF0050008BDFDF788FF002032
:1039700008BDF8B50F46FFF7A7FDC0B210F0800FE5
:1039800002D06FF00500F8BD17F0070615D10C4CFA
:103990002388DB1B3F2B10DD23800A4BC5B203EBD2
:1039A0004503A3F8687028463946FEF70DF8284607
:1039B0002188FDF7B9FF3046F8BD6FF00400F8BD6F
:1039C00054010020F439002008B5FFF77DFDC0B296
:1039D00010F0800F02D06FF0050008BD0121FEF746
:1039E00085F9002008BD08B5FFF76EFDC0B210F0E4
:1039F000800F02D06FF0050008BD0221FEF776F9B6
:103A0000002008BD08B5FFF75FFDC0B210F0800FC1
:103A100002D06FF0050008BDFDF745FF002008BD8E
:103A200008B5FFF751FDC0B210F0800F02D06FF063
:103A3000050008BDFDF713FF002008BD70B5044662
:103A4000FFF7ACFD05462046FFF73EFDC0B210F083
:103A5000800F02D06FF0050070BD194E33885B1BDC
:103A60003F2B02DC6FF0040070BDC4B220463380EF
:103A7000FDF78EFE2046FDF777FF3288014620468F
:103A8000FDF7E2FF2A4601212046FEF73DF82046D9
:103A9000FDF7F5FE2046FDF706FF2046FDF7DFFEA9
:103AA00020464FF44051FDF7C8FD20460021FDF7A8
:103AB000AAFD044B0020E418012384F8603070BD97
:103AC00054010020F439002010B50C46FFF7FCFC2F
:103AD000C0B210F0800F02D06FF0050010BDC0B270
:103AE000032C03D8DFE804F00507090E6FF0060089
:103AF00010BD102102E0302100E02021FDF783FD00
:103B0000002010BD0021FDF77EFD002010BD70B526
:103B10000446FFF70FFD06462046FFF7D5FCC0B26E
:103B200010F0800F02D06FF0050070BD174D2B888C
:103B30009E1B3F2E02DC6FF0040070BDC4B2204615
:103B40002E80FDF725FE2046FDF700FF2A8801465E
:103B50002046FDF779FF002202212046FDF7D4FF21
:103B60002046FDF78CFE2046FDF79DFE20460021F5
:103B7000FDF763FD20462021FDF745FD044B0020A5
:103B8000E418012384F8283070BD00BF54010020E0
:103B9000F439002070B50D461446FFF795FCC0B20D
:103BA00010F0800F02D06FF0050070BD0E4BC6B252
:103BB000F31893F8283063B13046FDF706FD10F492
:103BC000804F304602D0FDF791FF05E0FDF780FF02
:103BD00002E03046FDF7BAFE014689B22846224689
:103BE000FDF788FC002070BDF439002070B50D464B
:103BF000FFF76AFCC0B210F0800F02D06FF005042E
:103C00001BE00F4BC6B2F31893F828408CB1304636
:103C1000FDF7DBFC10F48044304605D002212A4633
:103C2000FDF7F4FF002408E002212A46FDF7C0FF5B
:103C300003E030462946FDF7A5FE204670BD00BFD3
:103C4000F439002008B5FFF73FFCC0B210F0800F38
:103C500001D0002008BDFDF725FD103880B22028D6
:103C600001D9032008BD014B185C08BD4083000842
:103C7000F8B50F46FFF728FCC0B210F0800F02D055
:103C80006FF00500F8BD17F0070614D10B4C238820
:103C9000DB1B3F2B0FDD2380094BC5B203EB450334
:103CA0001F8628463946FDF76DFE28462188FDF718
:103CB00029FE3046F8BD6FF00400F8BD5401002025
:103CC000F439002008B5FFF7FFFBC0B210F0800FF9
:103CD0000FD1FDF78FFCB0F5806F08D0B0F5C06F45
:103CE00001D010B105E0012008BD022008BD03206D
:103CF00008BD002008BD70B506460D46FFF7E4FB81
:103D0000C4B214F0800F13D00BE01E4A1946D05CE9
:103D10000133FF2806D1565420463146FDF7D7FD22
:103D200006E00023082BDCB2EFD16FF0050070BD78
:103D3000E4B2032D03D8DFE805F0050E141D6FF083
:103D4000060070BD20464FF40071FDF746FC20468A
:103D5000FDF7FEFC0CE020464FF4C061FDF73DFC92
:103D600006E020460021FDF738FC2046FDF720FD47
:103D7000002070BD20464FF48061FDF72EFC00202E
:103D800070BD00BFF439002008B5FDF7F5FB400514
:103D9000400D08BD08B540F08000FDF7F3FB0020A2
:103DA00008BD08B50120FDF7CFFB0020FDF7D8FBCB
:103DB0000320FDF7C9FB002008BD37B52E4C054692
:103DC0000021202204F10800FEF746F900212022FC
:103DD00004F14000FEF740F90021102204F1300008
:103DE000FEF73AF90021102204F16800FEF734F9D9
:103DF000002304F12802536004F16002536020465E
:103E00004FF0FF310822A3622366FEF725F901A8CF
:103E1000A567FFF72FF810B16FF005002AE0019BAE
:103E2000164A5B6A93420AD0154A934202D06FF059
:103E300006001FE0134B5A6822F4800203E0114B86
:103E40005A6842F480025A600E4B0120DA6942F44B
:103E50000002DA61FDF778FB0020FDF775FB00201A
:103E6000FDF77EFB4FF43C40FDF76EFB0020FDF7B5
:103E700095FB00203EBD00BFF4390020006CDC0241
:103E800000A24A0400100240020910F00F0003D003
:103E9000012814D000207047104B012A996941F481
:103EA0008051996117D10E494A6842F0E06242F0B0
:103EB00001024A609A6942F008029A617047074B12
:103EC000D96941F48041D9612AB99969104641F014
:103ED0000801996170474FF0FF30704700100240B1
:103EE00000000140054B00F00F0053F82030002087
:103EF0001A8892B242F040021A8070476483000828
:103F0000064B00F00F0053F820200020138823F008
:103F100040031B041B0C1380704700BF6483000820
:103F2000034B00F00F0053F82030002099817047B8
:103F300064830008064B00F00F0053F820301B8903
:103F400003F00203002B0CBF6FF00100002070474C
:103F500064830008064B00F00F0053F820301B89E3
:103F600003F00103002B0CBF6FF00100002070472D
:103F700064830008034B00F00F0053F82030988949
:103F8000C0B270476483000810B5204C00F00F00E9
:103F900054F820008C46E1B9C2B908E04FF0FF01A7
:103FA0008181018911F0010FFBD0818901329A4290
:103FB000F4D329E04FF0FF018181018911F0010F55
:103FC000FBD0818902F80C100CF1010C9C45F1D357
:103FD0001AE052B1002115E01CF80210818101891C
:103FE00011F0010FFBD0818901329A42F4D30BE02A
:103FF0001CF801408481048914F0010FFBD08489EE
:10400000545401319942F3D3002010BD6483000859
:1040100000F00F0030B51A4C012854F8204023D08E
:1040200002D302282AD124E01648456945F001054B
:1040300045615AB11448802505604360A589ADB239
:104040008560C260026842F001020260B1B10F4AAD
:10405000902010605360A3899BB29360D160136875
:1040600043F00103136009E0064B5A6942F0010274
:1040700003E0044B5A6942F002025A61002030BD4D
:1040800064830008001002401C000240300002401F
:1040900000207047002070472DE9F341574B00F096
:1040A0000F07044601A80D46904653F82760FEF717
:1040B000E1FE10B16FF005009EE0240908F0040154
:1040C0001FB1012F40F0968024E0019B012C5A691A
:1040D0004FF47A73B2FBF3F340F08C8061B1484A3D
:1040E000106820F4704040F430401060106820F4F4
:1040F000702040F480200BE0414A106820F47040AA
:1041000040F480401060106820F4702040F43020AB
:1041100010602EE0019B1A694FF47A73B2FBF3F33F
:10412000002C67D191B1364A506820F4700040F4F9
:1041300030005060506820F0706040F08060506047
:10414000506820F0704040F0304011E02C4A506838
:1041500020F4700040F480005060506820F07060DF
:1041600040F030605060506820F0704040F0804077
:104170005060328822F040021204120CB5EB530F4B
:10418000328001D300231DE0B5EB930F01D301234F
:1041900018E0B5EBD30F01D3022313E0B5EB131FE7
:1041A00001D303230EE0B5EB531F01D3042309E031
:1041B000B5EB931F01D9052304E0B5EBD31F8CBFEA
:1041C0000623072348F4007848EAC303338021B16B
:1041D00033889BB243F480733380B38B002023F485
:1041E00000631B041B0CB38333889BB243F0400372
:1041F000338001E04FF0FF30BDE8FC8164830008AC
:10420000000C014037B5044601A80D46FEF732FE0A
:1042100010B16FF0050013E014F00F0402D0022C6F
:1042200007D802E0019B5B6901E0019B1B696B60A1
:104230002B602B6800205B082B606B681B0A6B608F
:104240003EBD08B5030910F00F0002D001282ED1A1
:1042500014E01C4A012B916921F4805191612DD108
:10426000194B1A6822F4704242F480421A601A68AC
:1042700022F4702242F480221A6018E0114AD169B7
:1042800021F48041D161CBB90F4B5A6822F47002FE
:1042900042F480025A605A6822F0706242F08062F2
:1042A0005A605A6822F0704242F080425A60074BCE
:1042B00053F82000FCF790FA002008BD4FF0FF30C3
:1042C00008BD00BF00100240000C014064830008DC
:1042D000102832D8DFE800F0090E0E0E0E0E0E1375
:1042E0001919191F1F1F28282800154BDA6842F4D6
:1042F000006208E0124B01381A6901210FE0104BEF
:10430000DA6842F40052DA6017E00D4B0838DA68D8
:104310004FF400210DE00A4B0B381A69402111FAC5
:1043200000F01043186108E0054B0E38DA684FF4CE
:10433000803111FA00F01043D8600020704700BFB0
:104340000010024000207047044B53F8203000203A
:104350001A8892B242F001021A8070476C830008FA
:10436000054B53F820200020138823F001031B0481
:104370001B0C1380704700BF6C830008034B53F87D
:10438000203000209B8C9BB20B6070476C83000830
:10439000034B89B253F8203000209984704700BF46
:1043A0006C83000800207047044B53F82030002035
:1043B000343333F831301360704700BF6C8300082A
:1043C000034B53F820300020343323F8312070475A
:1043D0006C83000808B5034B53F82000FCF7B4FFCA
:1043E000002008BD6C83000800F0030130B589008F
:1043F0000F248C4000F00F02000910FA01F1074B66
:104400009208023253F8225000202C4043F82240F8
:1044100053F82240214343F8221030BD00000140F0
:1044200000F00F0001218140074BC9431A680020AA
:1044300001EA02021A605A6801EA02025A605A69E5
:1044400011435961704700BF00040140012300F08F
:104450000F00834011F0010F70B501F0020503D188
:104460006FEA030C3DB927E01A4CE66843EA0606FA
:10447000E66055B104E0174CE5680CEA0505E56017
:10448000144CA56843EA050502E0A56825EA030582
:10449000A560114C11F0040F44F8202004D00D4AFF
:1044A000506843EA0000506011F0080F10D0094A2C
:1044B00011680B4313600BE0064B1A680CEA02020A
:1044C0001A605A680CEA02025A60034B43F8205003
:1044D000002070BD00040140703A0020012100F06E
:1044E0000F0011FA00F0034B1A6840EA02021A604A
:1044F0000020704700040140012100F00F0011FA74
:1045000000F0034B1A6822EA00021A60002070478C
:1045100000040140012100F00F0011FA00F0034BEC
:104520001A6940EA02021A61002070470004014043
:10453000064B10B553F82030044603B198470123C9
:1045400013FA04F4024B5C6110BD00BF703A002006
:10455000000401400020EBE70120E9E70220E7E743
:104560000320E5E70420E3E738B5002505246B1DAB
:10457000012010FA03F3084A11680B4205D0526972
:10458000134202D02046FFF7D3FF0134E4B20135D5
:104590000A2CECD138BD00BF0004014038B500251D
:1045A0000A24012005F10A0310FA03F3074A1168EF
:1045B0000B4205D05269134202D02046FFF7B8FFE4
:1045C0000134E4B20135102CEBD138BD00040140B8
:1045D0001C4B012853F8202012D004D302281CD0F1
:1045E0004FF0FF307047184BD96841F40071D96023
:1045F000D96821F40071D960996941F4007118E01B
:10460000114BD96841F48061D960D96821F4806187
:10461000D960996941F480610BE00B4BD96841F492
:104620000041D960D96821F40041D960996941F409
:104630000041996100204FF4006353609060D062A4
:10464000704700BFB08300080010024020B101286D
:1046500008D04FF0FF307047064A916921F400718D
:1046600091617047034B00209A6922F480629A613D
:10467000704700BF00100240434B032930B553F888
:10468000203003D907290BD8012809D83F484FEA21
:10469000810C846944F0040484613D48056832E07B
:1046A000A1F10A0C5FFA8CFCBCF1030F08D9A1F14F
:1046B0000E0C5FFA8CFCBCF1010F13D8012811D845
:1046C0003248846944F0100484613248A1F10A043C
:1046D0000568A4004FF00F0C0CFA04F425EA04045A
:1046E000046032E0A1F1080C5FFA8CF4012C0ED8C2
:1046F00001280CD825484FEA8C0C846944F0080442
:104700008461254805680F2404FA0CF4E6E7A1F15A
:10471000040C5FFA8CFCBCF1040F16D8022814D1EB
:104720001A480529846944F0800484611B4802D832
:1047300005688C1CCDE78C1FA4004FF00F0C0CFA01
:1047400004F4456825EA0404446009294FEA41005D
:104750004FEA52120BD941181E39072088408A406F
:10476000DC6824EA000040EA0201D96009E041184F
:104770000720884012FA01F11C6924EA0000014375
:104780001961002030BD00BFB08300080010024056
:104790000008014000100140000C0140001C0140D5
:1047A0000C4B53F8203059639A6842F001029A602A
:1047B0009A6842F008029A609A6812F0080FFBD1DA
:1047C0009A6842F004029A60986810F00400FBD1E5
:1047D000704700BFB0830008064B53F8203000201C
:1047E00059631A6822F002021A609A6842F00102C4
:1047F0009A607047B0830008054B53F820301B685F
:1048000003F00203002B0CBF6FF001000020704783
:10481000B0830008024B53F82030D86C704700BFBB
:10482000B083000870B504460D461646FFF7D4FF66
:1048300020462946FFF7E0FF0028F9D1024B53F844
:104840002430DB6C336070BDB083000873B5044660
:1048500001A80D461646FEF70DFB034610B16FF09A
:10486000050016E00B4A360252F824100A4A019C51
:10487000506846F4C02620F4404050606469506897
:10488000B4FBF5F56D08013D40EA853555601846E5
:104890008E607CBDB08300080010024010F00F0F46
:1048A00001D000207047124B00099A6942F48042FF
:1048B0009A6102D04FF0FF3070470E494A6822F0EB
:1048C000E06222F0040242F0E0624A609A6942F03B
:1048D00004029A61084B5A6822F0F00242F0B002DA
:1048E0005A605A6822F4706242F480625A607047DB
:1048F000001002400000014000080140154A00F08D
:104900000F0352F823204FF0000191810BB10020DA
:104910007047114B00099A6922F480429A6102D0D3
:104920004FF0FF3070470D4A536823F0E06323F0E7
:10493000040343F0E0635360094B5A6822F49E621B
:1049400042F480625A605A6822F49E4242F48042E5
:104950005A607047BC83000800100240000001400C
:104960000008014030B50F4D0F4C00F00F0045F826
:10497000202054F8204005EB8000C3608161002AAC
:1049800014BF802200220BB142F02002A389002034
:1049900023F0A0031B041B0CA381A3891A4392B22A
:1049A000A28130BDB03A0020BC830008034B00F068
:1049B0000F0053F82030002099807047BC83000816
:1049C000064B00F00F0053F820301B8803F0400323
:1049D000002B0CBF6FF0010000207047BC83000863
:1049E000034B00F00F0053F82030988880B27047D6
:1049F000BC830008064B00F00F0053F820301B88E2
:104A000003F02003002B0CBF6FF001000020704763
:104A1000BC8300080B4A08B5D36843B10A4908882B
:104A200010F0200F03D08988906989B29847054A11
:104A3000136833B10449098811F0800F01D09069DF
:104A4000984708BDB03A0020003801402DE9F341F5
:104A50001F461F4B00F00F0801A80C46154653F8DF
:104A60002860FEF707FA10B16FF005002EE0B2895A
:104A700092B2B8F1000F02D04FF0FF3026E0019B58
:104A800002F0A002082D596942F00C0308D0092D4C
:104A900002D06FF0060019E042F4805343F00C039B
:104AA0007A02B1FBF4F402F4C0621343A4B2FF0132
:104AB000348107F45857B3814FF0000337823382B3
:104AC000B38900209BB243F40053B381BDE8FC815D
:104AD000BC83000810F00F0010B502D04FF0FF307B
:104AE00010BD2C4B2C4C9A6942F4F0729A615A69B1
:104AF00042F480725A61294B1A6822F47F0242F410
:104B00003B021A601A6822F0FF0242F0BB021A60F0
:104B1000234A116821F0704141F030411160596819
:104B200001EA04041F4944EA010159604FF0BB3116
:104B300051601D490C6804F07F4C1C4C4CEA040485
:104B40000C604C68A4B244F03B4444F43B044C6019
:104B500017490C6804F07F4C144C4CEA04040C60B8
:104B60005C6824F47E0424F4F83444F43A0444F4F5
:104B7000D8345C6013680F4C03EA04040E4B44EA1B
:104B8000030313604B6823F07F6343F03B634B6088
:104B900010BD00BF0010024000F0FF0000140140F3
:104BA00000180140BB0B00BB001C0140BBBBBB009D
:104BB00000200140FF0000F000BBBB0B10F00F0015
:104BC00002D04FF0FF307047024B5A6922F48072D6
:104BD0005A6170470010024010F00F0018BF4FF0EC
:104BE000FF30704710F00F0018BF4FF0FF307047D4
:104BF00010F00F0F10B540F08E804A4B00095A6834
:104C000000F0030022F47F2242F43B2201285A6084
:104C100002D002287FD106E01A6822F0704242F0EA
:104C200030421A6006E0404B5A6822F0F00242F02F
:104C3000B0025A600B7B4A7B013B013A03F00F0341
:104C40005B0302F00F020C7A43EA422242F00C03AB
:104C500044B3B1F80AC042F04C03BCF5806F14D0E5
:104C600006D8BCF5807F1DD0BCF5007F56D109E089
:104C7000BCF5805F0FD0BCF5005F0FD0BCF5006FB6
:104C80004CD105E042F400330AE042F4802307E00F
:104C900042F4C02304E042F4002301E042F4202364
:104CA00043F04C034A7842B11E4A43F002031468B1
:104CB00024F0706444F0306414600A78082A03D049
:104CC000102A2BD143F01003CA898C7C013A42EAA6
:104CD0000442CC7C91F818C042EA04620C8A013C80
:104CE00042EA04248A8A013A42EA0C4291F819C045
:104CF000C98A42EA0C620139012842EA012102D044
:104D0000022808D101E0094A00E0094A9460002025
:104D1000D160136010BD4FF0FF3010BD6FF0060082
:104D200010BD00BF0014014000200140600000A041
:104D3000800000A06FF0050070476FF0050070471D
:104D400010F00F0018BF4FF0FF307047030903F059
:104D500003039A1D01EB027213B9800902EB806212
:104D600010787047030903F0030303F1060C01EB0D
:104D70000C7113B9800901EB80610A707047030957
:104D800003F003039A1D01EB027213B9800902EBD1
:104D90008062108880B27047030903F0030303F1B7
:104DA000060C01EB0C7113B9800901EB80610A80DC
:104DB00070470020704770476FF0050070476FF034
:104DC000050070476FF0050070476FF005007047F1
:104DD00070B5049C059D00283AD111F0F00002F155
:104DE000C04202D0102833D104E001F0030102EBED
:104DF000816204E001F00101013102EB0172022B3A
:104E000009D0042B04D0012B08D06FF0060070BD30
:104E10001346002119E0134600210EE0002302E0B2
:104E2000995CE1540133AB42FAD314E0B3F800C00B
:104E3000A01A20F803C001310233A942F6D30AE0D8
:104E40001E68A01AC65001310433A942F8D302E00B
:104E50004FF0FF3070BD002070BD30B5039C049D45
:104E6000002836D111F0F00002F1C04202D0102823
:104E70002FD104E001F0030102EB816204E001F0B4
:104E80000101013102EB0172022B08D0042B04D086
:104E9000012B06D06FF0060030BD002316E0002382
:104EA0000CE0002302E0E15C99540133AB42FAD3F9
:104EB00012E034F81310013322F8021BAB42F8D38E
:104EC0000AE054F82310013342F8041BAB42F8D334
:104ED00002E04FF0FF3030BD002030BD73B5044616
:104EE00001A80D46FDF7C6FF10B16FF00500CCE03C
:104EF00014F00F0F40F0C480A409032C00F2C0800E
:104F0000DFE804F0020A1118604B1A6822F07042C0
:104F100042F030421A6014E05D4B5A6822F0F00211
:104F200042F0B0020CE05A4B5A6822F4706242F42C
:104F3000306205E0564B5A6822F4702242F4302267
:104F40005A602A6932B1534B196821F0704141F01F
:104F5000304119602B7913B941F2490308E04B4BFA
:104F6000196821F4704141F43041196041F24B035A
:104F70006978C1B145480139066826F0706646F087
:104F80003066066003297ED8DFE801F00205080BD1
:104F900043F4285307E043F4085304E043F4205358
:104FA00001E043F400532978082903D010296AD17D
:104FB00043F010030AB911460DE00199C968B1FB2D
:104FC000F2F1C9B2881EC0B20E2802D96FF00700F4
:104FD0005BE00139C9B26E89B5F80CC0013E3601FB
:104FE0000CF1FF3006F0FF06000646EA10402E895D
:104FF00001F00F01013E06F00F06304340EA015078
:10500000E96940F08050914209D16E69AA689642E0
:1050100005D12A8B624502D16FF0704122E021B1A7
:10502000019AD268B2FBF1F1C9B2B5F816C02A8B69
:105030000CF1FF3C4FEA0C1C013A0CF0FF0C12067D
:105040004CEA1242B5F814C001F00F010CF1FF3C1C
:105050000CF00F0C42EA0C0242EA015140F480408D
:1050600041F0805164004FF0204204F1010C42F8FD
:105070002C00094840F8241042F82430002004E0B5
:105080004FF0FF3001E06FF006007CBD00140140DE
:1050900000200140000C0140040100A00B46114615
:1050A000002810D103F00F0013F0F00302D0102BF2
:1050B00009D103E0800100F0C0000FE7013000F0EB
:1050C0000300000194E54FF0FF307047002814BF43
:1050D0004FF0FF3000207047002814BF4FF0FF3022
:1050E0000020704710B14FF0FF307047024A11693D
:1050F00041F08001116170470020024010B14FF073
:10510000FF307047044A0549516005495160D16834
:1051100041F03501D160704700200240230167450E
:10512000AB89EFCD0C4B1B8810B14FF0FF307047AF
:10513000FF2B06D911B14FF4006008604AB15B083B
:1051400004E011B14FF48060086012B113600020D8
:1051500070470020704700BFE0F7FF1F002814BF12
:105160004FF0FF300020704730B5844610B14FF04B
:10517000FF3030BD14485B08046944F00104046149
:10518000644618E032F80C5001F1006020F80C5031
:105190000D48C56815F0010FFAD1C5680CF1020C75
:1051A00015F0100F06D0036923F0010303616FF0BF
:1051B000050030BD01349C42E4D3034B00201A6942
:1051C00022F001021A6130BD00200240002814BF05
:1051D0004FF0FF300020704773B50E461546044669
:1051E00010B14FF0FF3009E001A90246FFF79AFF26
:1051F000204631462A46019BFFF7B0FF7CBD03469F
:1052000010B14FF0FF307047064A01F1006110699C
:1052100040F00200106151611169184641F04001EF
:10522000116170470020024010B14FF0FF3070470D
:10523000094BD86810F0010009BF1A696FF001002E
:1052400022F002021A61044BDB6803F01003002B0A
:1052500018BF6FF0050070470020024073B50E467E
:105260001546044610B14FF0FF3009E001A902468F
:10527000FFF758FF204631462A46019BFFF774FF8F
:105280007CBD73B50E461546044610B14FF0FF3095
:1052900009E001A90246FFF745FF204631462A46AC
:1052A000019BFFF793FF7CBD10B14FF0FF307047BB
:1052B000124B134A9A60134A9A601A6942F020020C
:1052C0001A611A6942F040021A610C4BDA6812F056
:1052D0000102FAD1196921F020011961196941F01F
:1052E00010011961084B1A80044BD86810F00100B6
:1052F000FAD11A6922F010021A61704700200240A8
:1053000023016745AB89EFCD00F8FF1F08B10020EE
:105310007047034BD869400800F00100704700BF98
:105320000020024010B5044610B14FF0FF3010BD10
:10533000104601F100611A46FCF773FE204610BDCD
:1053400073B50E461546044610B14FF0FF3009E024
:1053500001A90246FFF7E6FE204631462A46019B98
:10536000FFF7E0FF7CBD00BF064B074A0020186036
:1053700058609860D86058629862D8629A63D8631F
:10538000704700BF00800140FF07C0000E4B10B502
:105390009A690E4C42F030029A6161680C4A090D1C
:1053A000090541EA020262600A4A116821F470614B
:1053B00041F4306111605A6942F4806242F00202A5
:1053C0005A61BDE81040CFE70010024000100140D4
:1053D000BBBB0B0000140140024B03221A600020EB
:1053E000704700BF00800140014B002018607047EB
:1053F0000080014001F03F01044841F4806141EA2E
:1054000003038260C3600020704700BF008001403A
:10541000104A536B13F0040004D0042393636FF01D
:105420000500704729B113F0410F0FD0412393635A
:10543000704713F0010F01D00121916313F0800F29
:1054400004D0044B80229A63002070476FF0010063
:10545000704700BF0080014010B5084611B10849EF
:105460000969017052B10748002104E050F8044C6A
:1054700042F82140013104309942F7D3002010BD99
:105480000080014014800140014B5B6B704700BFFE
:105490000080014030B5254C40F22A23606B00EAC1
:1054A00003031BB9224B1B68D4180BE040F22A738C
:1054B000A3636FF0050030BD1C4D0433D5F8805058
:1054C00044F8045C10F4001502D004348B42F3D38A
:1054D000174C00F4A0602360154B1B688B4208D367
:1054E00018B1124B4FF4A0629A63114B0020186060
:1054F00030BD40B9023830BD0C480433D0F88000CC
:1055000042F8040C01E01DB1D21804328B42F3D3EF
:10551000064B4FF4A0629A630022054B91421A6039
:105520000CBF08466FF0050030BD00BF0080014091
:10553000D43A0020B2F1007F73B50C46154629D24B
:1055400000260122B240934203D001360F2EF8D13B
:1055500020E001A8FDF78EFCE0B9104A019B5168DC
:10556000DB6811F4806F05D1526802F0FF0202324D
:10557000B3FBF2F34FF47A72B3FBF2F35C43360100
:10558000064B46F003065C629D62DE62044B00201F
:10559000186001E06FF005007CBD00BF0080014095
:1055A000D43A0020B2F1007F73B50C46154629D2DB
:1055B00000260122B240934203D001360F2EF8D1CB
:1055C00020E001A8FDF756FCE0B9104A019B5168A4
:1055D000DB6811F4806F05D1526802F0FF020232DD
:1055E000B3FBF2F34FF47A72B3FBF2F35C43360190
:1055F000064B46F001065C629D62DE62044B0020B1
:10560000586001E06FF005007CBD00BF00800140E4
:10561000D43A002037B501A80C461546FDF72AFC00
:10562000034610B16FF0050022E0019A012DD16808
:1056300005D0042D0CBF4FF400634FF480534FF49A
:105640007A72B1FBF2F2B2FBF4F414B943F4806362
:1056500009E0012C01D1013402E0FF2C28BFFF2416
:10566000023C44EA0303034A43F4824353600020AC
:105670003EBD00BF0080014008B50078FF2801D181
:10568000FF3808BD024BD3F8B830984708BD00BFBB
:105690006080000870B504460078FF2801D1FF380B
:1056A00070BD084D616AD5F8BC6094F8282094F864
:1056B0002930B047D5F8C050207821460022024B4F
:1056C000A84770BD608000083757000870B50546D0
:1056D0000078FF2813D00B4CD4F8C830984770B925
:1056E0002E1D304601F0F4F848B130462D78D4F83C
:1056F000C44001F010F901462846A04770BD0020C3
:1057000070BD00BF6080000810B50C4604304968C9
:10571000226801F0ABF96368984218BF606000200E
:1057200010BD10B50C4614304968226801F06CF9C0
:105730006060002010BD10B5C9B20446143001F0FD
:10574000D9F8012802D0012384F82C3010BD38B5D7
:105750000025044680F82C50043001F0B4F804F120
:10576000140001F0B0F82078FF2801D1284638BD98
:10577000024BD3F8B430984738BD00BF60800008B2
:1057800070B50598BDF810C011E00E7896420DD1A5
:105790004E789E420AD14E88664507D1CB68456057
:1057A00004600BB9184670BD984770BD10314C6845
:1057B00014B18D68002DE8D16FF0050070BD30B5D3
:1057C000002585B002950395044680F83C5080F88A
:1057D0003D5080F83E5013E00023009302AB01934C
:1057E0002046A16802222B46FFF7CAFFC0B96368B2
:1057F000342202FB0533029A01355279EDB21A7454
:105800002378AB42E8D8E36820461B68984738B94C
:10581000E3681B69984718B9236923B1984710B109
:105820006FF0050000E0002005B030BDC36810B582
:105830005B680446984738B9E3685B69984718B9CC
:10584000636923B1984710B16FF0050010BD0020C7
:1058500010BD70B5436890F83D20342606FB023633
:10586000C3680446DB689847C8B9A3690BB1984779
:10587000A8B994F83C30ABB100250CE00C226A4387
:10588000F368D3582BB15B691BB128462146984772
:1058900028B90135EDB2337AAB42EFD802E06FF0B0
:1058A000050070BD002070BD0020704700207047CB
:1058B0000C234B432DE9F7450C46314E1168F71880
:1058C000F150536801927B600023BB60C3680546BA
:1058D0009B6D2046D2F80480984708F1FF331B18CF
:1058E000B3FBF0F306EB8406019AC6F8C0305168AA
:1058F000B1FBF0FC00FB1C1111B90133C6F8C0303C
:10590000D2F800A0404534BF06464646EB68B6B222
:105910001B6F5146324620469847EB682046DB6EA7
:1059200031469847EB68BE60DB6C20469847F8B17B
:10593000EB6820461B6D9847B8EB0601EB6814D066
:10594000B14234BF8846B0461FFA88F81B6F0AEB95
:105950000601424620469847EB682046DB6E4146EA
:105960009847BB684344BB6002E0DB6E2046984723
:10597000EB6820469B6E012198470020BDE8FE851C
:10598000DC3A0020064B0C2202FB01339A685B686C
:1059900092B29BB29A4234BF6FF001000020704770
:1059A000DC3A002008B5C368DB689847002008BDD2
:1059B00038B504460D46FFF77BFF10B16FF00503C5
:1059C0000BE0E368DB68984720462946FFF7DAFFDB
:1059D000034610B110F1020FF3D0184638BD002075
:1059E000086048607047B0F8463073B9B0F8483086
:1059F0005BB990F83E2080F85D3080F85C205C3028
:105A0000022208604A60184670476FF00500704730
:105A10000020704710B5B0F84630446890F83D203B
:105A200093B94FF0340C0CFB0242B0F848C0127A24
:105A3000944509D280F85C3080F85D3002225C30F9
:105A400008604A60184610BD6FF0050010BD0020C8
:105A5000704738B5B0F8463004460D46B0F84820D7
:105A6000E3B9C368596B0978914217D9D2B212F0E1
:105A7000800F14BF5B6ED3F8943002F07F0098471C
:105A800008B9012300E00023002084F85C3084F88A
:105A90005D0002235C342C606B6038BD6FF0050044
:105AA00038BD6FF005007047B0F8482052B9B0F823
:105AB0004620012A06D190F83E2022F0200280F8EC
:105AC0003E208CE76FF0050070470020704786E7A6
:105AD00000207047B0F8463070B5B0F84820044652
